{
	"data": {
		"bytecode": {
			"linkReferences": {
				"poseidon-solidity/PoseidonT3.sol": {
					"PoseidonT3": [
						{
							"length": 20,
							"start": 9898
						},
						{
							"length": 20,
							"start": 10748
						},
						{
							"length": 20,
							"start": 11453
						},
						{
							"length": 20,
							"start": 11620
						},
						{
							"length": 20,
							"start": 11925
						},
						{
							"length": 20,
							"start": 12092
						}
					]
				}
			},
			"object": "6080604052600160075534801561001557600080fd5b5060405161433938038061433983398181016040528101906100379190610173565b81600360006101000a81548173ffffffffffffffffffffffffffffffffffffffff021916908373ffffffffffffffffffffffffffffffffffffffff16021790555080600460006101000a81548173ffffffffffffffffffffffffffffffffffffffff021916908373ffffffffffffffffffffffffffffffffffffffff16021790555050506101b3565b600080fd5b600073ffffffffffffffffffffffffffffffffffffffff82169050919050565b60006100f0826100c5565b9050919050565b6000610102826100e5565b9050919050565b610112816100f7565b811461011d57600080fd5b50565b60008151905061012f81610109565b92915050565b6000610140826100e5565b9050919050565b61015081610135565b811461015b57600080fd5b50565b60008151905061016d81610147565b92915050565b6000806040838503121561018a576101896100c0565b5b600061019885828601610120565b92505060206101a98582860161015e565b9150509250929050565b614177806101c26000396000f3fe6080604052600436106101c25760003560e01c80636389e107116100f7578063c6e8925811610095578063da3cda5211610064578063da3cda52146106a7578063dabc4d51146106d0578063e007fe521461070d578063fcf0b6ec1461074a576101c2565b8063c6e892581461060c578063c8bce99514610637578063d0d898dd14610660578063d24924fe1461067c576101c2565b80637ee35a0c116100d15780637ee35a0c1461051757806390509d441461055457806396324bd414610591578063a9961c94146105cf576101c2565b80636389e107146104955780636c69a468146104d25780636cdd32fe146104ee576101c2565b806340d66168116101645780634f842c3a1161013e5780634f842c3a146103c7578063568ee82614610404578063575185ed1461042d5780635c3f3b6014610458576101c2565b806340d66168146103245780634178c4d514610361578063456f41881461038a576101c2565b80632b7ac3f3116101a05780632b7ac3f3146102565780632c880363146102815780632e1a7d4d146102be5780633f9a4ba3146102e7576101c2565b806304245371146101c757806306dd8485146101f05780631783efc31461022d575b600080fd5b3480156101d357600080fd5b506101ee60048036038101906101e99190612fd1565b610773565b005b3480156101fc57600080fd5b5061021760048036038101906102129190613031565b6107b4565b6040516102249190613080565b60405180910390f35b34801561023957600080fd5b50610254600480360381019061024f9190613031565b6107e2565b005b34801561026257600080fd5b5061026b610821565b604051610278919061311a565b60405180910390f35b34801561028d57600080fd5b506102a860048036038101906102a39190613173565b610847565b6040516102b59190613080565b60405180910390f35b3480156102ca57600080fd5b506102e560048036038101906102e091906131b3565b61088d565b005b3480156102f357600080fd5b5061030e60048036038101906103099190613031565b6109b0565b60405161031b9190613080565b60405180910390f35b34801561033057600080fd5b5061034b600480360381019061034691906131b3565b610a4c565b6040516103589190613080565b60405180910390f35b34801561036d57600080fd5b50610388600480360381019061038391906131e0565b610a64565b005b34801561039657600080fd5b506103b160048036038101906103ac919061328d565b610aa9565b6040516103be91906132e9565b60405180910390f35b3480156103d357600080fd5b506103ee60048036038101906103e991906131b3565b610ef4565b6040516103fb9190613080565b60405180910390f35b34801561041057600080fd5b5061042b60048036038101906104269190613304565b610f14565b005b34801561043957600080fd5b50610442610f22565b60405161044f9190613080565b60405180910390f35b34801561046457600080fd5b5061047f600480360381019061047a9190613344565b610f67565b60405161048c9190613080565b60405180910390f35b3480156104a157600080fd5b506104bc60048036038101906104b791906131b3565b610fae565b6040516104c99190613080565b60405180910390f35b6104ec60048036038101906104e79190613391565b610fcd565b005b3480156104fa57600080fd5b50610515600480360381019061051091906133bf565b611088565b005b34801561052357600080fd5b5061053e600480360381019061053991906131b3565b6110cb565b60405161054b9190613080565b60405180910390f35b34801561056057600080fd5b5061057b60048036038101906105769190613031565b6110ea565b60405161058891906132e9565b60405180910390f35b34801561059d57600080fd5b506105b860048036038101906105b391906131b3565b611118565b6040516105c6929190613433565b60405180910390f35b3480156105db57600080fd5b506105f660048036038101906105f191906131b3565b61113c565b604051610603919061346b565b60405180910390f35b34801561061857600080fd5b50610621611179565b60405161062e91906134a7565b60405180910390f35b34801561064357600080fd5b5061065e600480360381019061065991906134c2565b61119f565b005b61067a6004803603810190610675919061328d565b6112c8565b005b34801561068857600080fd5b50610691611481565b60405161069e9190613080565b60405180910390f35b3480156106b357600080fd5b506106ce60048036038101906106c991906131b3565b611487565b005b3480156106dc57600080fd5b506106f760048036038101906106f291906131b3565b611493565b6040516107049190613080565b60405180910390f35b34801561071957600080fd5b50610734600480360381019061072f9190613548565b6114b6565b60405161074191906132e9565b60405180910390f35b34801561075657600080fd5b50610771600480360381019061076c9190613031565b611579565b005b6000610780848484611688565b9050426005600086815260200190815260200160002060020160008381526020019081526020016000208190555050505050565b60006107da8260008086815260200190815260200160002061179f90919063ffffffff16565b905092915050565b60006107ee8383611819565b90504260056000858152602001908152602001600020600201600083815260200190815260200160002081905550505050565b600360009054906101000a900473ffffffffffffffffffffffffffffffffffffffff1681565b60006007600081548092919061085c906135f5565b91905055905061086c818461192b565b81600560008381526020019081526020016000206000018190555092915050565b6001600082815260200190815260200160002060009054906101000a900473ffffffffffffffffffffffffffffffffffffffff1673ffffffffffffffffffffffffffffffffffffffff163373ffffffffffffffffffffffffffffffffffffffff161461092e576040517f08c379a00000000000000000000000000000000000000000000000000000000081526004016109259061369a565b60405180910390fd5b6000600560008381526020019081526020016000206001015490503373ffffffffffffffffffffffffffffffffffffffff166108fc829081150290604051600060405180830381858888f1935050505015801561098f573d6000803e3d6000fd5b50600060056000848152602001908152602001600020600101819055505050565b60008160056000858152602001908152602001600020600101541015610a0b576040517f08c379a0000000000000000000000000000000000000000000000000000000008152600401610a0290613706565b60405180910390fd5b610a158383611a0a565b5081600560008581526020019081526020016000206001016000828254610a3c9190613726565b9250508190555081905092915050565b60066020528060005260406000206000915090505481565b6000610a738686868686611b2f565b90504260056000888152602001908152602001600020600201600083815260200190815260200160002081905550505050505050565b600082600073ffffffffffffffffffffffffffffffffffffffff166001600083815260200190815260200160002060009054906101000a900473ffffffffffffffffffffffffffffffffffffffff1673ffffffffffffffffffffffffffffffffffffffff1603610b45576040517f029f057900000000000000000000000000000000000000000000000000000000815260040160405180910390fd5b600160ff1683600001351080610b625750600c60ff168360000135115b15610b99576040517fecf64f1200000000000000000000000000000000000000000000000000000000815260040160405180910390fd5b6000610ba4856110cb565b905060008103610be0576040517fc8b02e0100000000000000000000000000000000000000000000000000000000815260040160405180910390fd5b6000610beb86611493565b905080856020013514610cc55760006005600088815260200190815260200160002060020160008760200135815260200190815260200160002054905060006005600089815260200190815260200160002060000154905060008203610c7d576040517f4d32958600000000000000000000000000000000000000000000000000000000815260040160405180910390fd5b8082610c89919061375a565b421115610cc2576040517f9581a99000000000000000000000000000000000000000000000000000000000815260040160405180910390fd5b50505b600360009054906101000a900473ffffffffffffffffffffffffffffffffffffffff1673ffffffffffffffffffffffffffffffffffffffff1663a23f019960405180604001604052808860a001600060088110610d2557610d2461378e565b5b602002013581526020018860a001600160088110610d4657610d4561378e565b5b6020020135815250604051806040016040528060405180604001604052808b60a001600260088110610d7b57610d7a61378e565b5b602002013581526020018b60a001600360088110610d9c57610d9b61378e565b5b6020020135815250815260200160405180604001604052808b60a001600460088110610dcb57610dca61378e565b5b602002013581526020018b60a001600560088110610dec57610deb61378e565b5b602002013581525081525060405180604001604052808a60a001600660088110610e1957610e1861378e565b5b602002013581526020018a60a001600760088110610e3a57610e3961378e565b5b602002013581525060405180608001604052808b6020013581526020018b604001358152602001610e6e8c60600135611c67565b8152602001610e808c60800135611c67565b8152508a600001356040518663ffffffff1660e01b8152600401610ea89594939291906139ea565b602060405180830381865afa158015610ec5573d6000803e3d6000fd5b505050506040513d601f19601f82011682018060405250810190610ee99190613a6c565b935050505092915050565b600060056000838152602001908152602001600020600101549050919050565b610f1e8282611c9e565b5050565b600060076000815480929190610f37906135f5565b919050559050610f47813361192b565b610e10600560008381526020019081526020016000206000018190555090565b600060076000815480929190610f7c906135f5565b919050559050610f8c818361192b565b610e106005600083815260200190815260200160002060000181905550919050565b6000806000838152602001908152602001600020600101549050919050565b806101200135341015611015576040517f08c379a000000000000000000000000000000000000000000000000000000000815260040161100c90613b0b565b60405180910390fd5b61103581600001826040018360c0018461010001358561012001356114b6565b611074576040517f08c379a000000000000000000000000000000000000000000000000000000000815260040161106b90613b77565b60405180910390fd5b6110846000826101000135611819565b5050565b600061109685858585611de9565b905042600560008781526020019081526020016000206002016000838152602001908152602001600020819055505050505050565b6000806000838152602001908152602001600020600001549050919050565b600061111082600080868152602001908152602001600020611f1c90919063ffffffff16565b905092915050565b60056020528060005260406000206000915090508060000154908060010154905082565b60006001600083815260200190815260200160002060009054906101000a900473ffffffffffffffffffffffffffffffffffffffff169050919050565b600460009054906101000a900473ffffffffffffffffffffffffffffffffffffffff1681565b6005600080815260200190815260200160002060030160008360400135815260200190815260200160002060009054906101000a900460ff161561120f576040517f208b15e800000000000000000000000000000000000000000000000000000000815260040160405180910390fd5b6112198183610aa9565b61124f576040517f4aa6bc4000000000000000000000000000000000000000000000000000000000815260040160405180910390fd5b60016005600080815260200190815260200160002060030160008460400135815260200190815260200160002060006101000a81548160ff02191690831515021790555081606001356005600083815260200190815260200160002060010160008282546112bd919061375a565b925050819055505050565b6005600083815260200190815260200160002060030160008260400135815260200190815260200160002060009054906101000a900460ff1615611338576040517f208b15e800000000000000000000000000000000000000000000000000000000815260040160405180910390fd5b80606001353411611375576040517f2112fc6700000000000000000000000000000000000000000000000000000000815260040160405180910390fd5b61137f8282610aa9565b6113b5576040517f4aa6bc4000000000000000000000000000000000000000000000000000000000815260040160405180910390fd5b60016005600084815260200190815260200160002060030160008360400135815260200190815260200160002060006101000a81548160ff0219169083151502179055503460056000848152602001908152602001600020600101600082825461141f919061375a565b9250508190555080608001358160200135837f0c32e14cfe81a05d371c248d22de6b7ae849e981b76a1f8842e7b6da73fc405a8460000135856040013586606001358760a0016040516114759493929190613bb1565b60405180910390a45050565b60075481565b61149081611f3f565b50565b60006114af6000808481526020019081526020016000206120f6565b9050919050565b6000600460009054906101000a900473ffffffffffffffffffffffffffffffffffffffff1673ffffffffffffffffffffffffffffffffffffffff1663f5c9d69e8787876040518060400160405280898152602001888152506040518563ffffffff1660e01b815260040161152d9493929190613cbb565b602060405180830381865afa15801561154a573d6000803e3d6000fd5b505050506040513d601f19601f8201168201806040525081019061156e9190613a6c565b905095945050505050565b813373ffffffffffffffffffffffffffffffffffffffff166001600083815260200190815260200160002060009054906101000a900473ffffffffffffffffffffffffffffffffffffffff1673ffffffffffffffffffffffffffffffffffffffff1614611612576040517fbb9bf27800000000000000000000000000000000000000000000000000000000815260040160405180910390fd5b600060056000858152602001908152602001600020600001549050826005600086815260200190815260200160002060000181905550837f264b2a8f6763c084235fe832ba903482b2ef1a521336881fc75b987c2dfd29c5828560405161167a929190613433565b60405180910390a250505050565b6000833373ffffffffffffffffffffffffffffffffffffffff166001600083815260200190815260200160002060009054906101000a900473ffffffffffffffffffffffffffffffffffffffff1673ffffffffffffffffffffffffffffffffffffffff1614611723576040517fbb9bf27800000000000000000000000000000000000000000000000000000000815260040160405180910390fd5b600061172e866110cb565b905061175685856000808a81526020019081526020016000206121199092919063ffffffff16565b9250857f61e5e8054e3daf084a0c6c646c065e8bf5e7ca4d5567bda942309bd1652f349d8287878760405161178e9493929190613d74565b60405180910390a250509392505050565b60008083600301600084815260200190815260200160002054036117ef576040517f7204756c00000000000000000000000000000000000000000000000000000000815260040160405180910390fd5b6001836003016000848152602001908152602001600020546118119190613726565b905092915050565b6000823373ffffffffffffffffffffffffffffffffffffffff166001600083815260200190815260200160002060009054906101000a900473ffffffffffffffffffffffffffffffffffffffff1673ffffffffffffffffffffffffffffffffffffffff16146118b4576040517fbb9bf27800000000000000000000000000000000000000000000000000000000815260040160405180910390fd5b60006118bf856110cb565b90506118e5846000808881526020019081526020016000206126fd90919063ffffffff16565b9250847f19239b3f93cd10558aaf11423af70c77763bf54f52bcc75bfa74d4d13548cde982868660405161191b93929190613db4565b60405180910390a2505092915050565b806001600084815260200190815260200160002060006101000a81548173ffffffffffffffffffffffffffffffffffffffff021916908373ffffffffffffffffffffffffffffffffffffffff160217905550817ff0adfb94eab6daf835deb69c5738fe636150c3dfd08094a76f39b963dc8cb05a60405160405180910390a28073ffffffffffffffffffffffffffffffffffffffff16600073ffffffffffffffffffffffffffffffffffffffff16837f0ba83579a0e79193ef649b9f5a8759d35af086ba62a3e207b52e4a8ae30d49e360405160405180910390a45050565b6000823373ffffffffffffffffffffffffffffffffffffffff166001600083815260200190815260200160002060009054906101000a900473ffffffffffffffffffffffffffffffffffffffff1673ffffffffffffffffffffffffffffffffffffffff1614611aa5576040517fbb9bf27800000000000000000000000000000000000000000000000000000000815260040160405180910390fd5b60006001600086815260200190815260200160002060009054906101000a900473ffffffffffffffffffffffffffffffffffffffff1690508073ffffffffffffffffffffffffffffffffffffffff166108fc859081150290604051600060405180830381858888f19350505050158015611b23573d6000803e3d6000fd5b50839250505092915050565b6000853373ffffffffffffffffffffffffffffffffffffffff166001600083815260200190815260200160002060009054906101000a900473ffffffffffffffffffffffffffffffffffffffff1673ffffffffffffffffffffffffffffffffffffffff1614611bca576040517fbb9bf27800000000000000000000000000000000000000000000000000000000815260040160405180910390fd5b6000611bf0876000808b815260200190815260200160002061179f90919063ffffffff16565b9050611c1c878787876000808e815260200190815260200160002061295c90949392919063ffffffff16565b9250877fea3588e4a2a0c93d6a0e69dfeaf7496f43ccccf02ad9ce0a5b7627cbca4b61b182898987604051611c549493929190613deb565b60405180910390a2505095945050505050565b6000600882604051602001611c7c9190613e51565b6040516020818303038152906040528051906020012060001c901c9050919050565b813373ffffffffffffffffffffffffffffffffffffffff166001600083815260200190815260200160002060009054906101000a900473ffffffffffffffffffffffffffffffffffffffff1673ffffffffffffffffffffffffffffffffffffffff1614611d37576040517fbb9bf27800000000000000000000000000000000000000000000000000000000815260040160405180910390fd5b816002600085815260200190815260200160002060006101000a81548173ffffffffffffffffffffffffffffffffffffffff021916908373ffffffffffffffffffffffffffffffffffffffff1602179055508173ffffffffffffffffffffffffffffffffffffffff163373ffffffffffffffffffffffffffffffffffffffff16847f1018365553cce55d9cb02ef73e18cc9311894f3fe1d1eafd235ac2d26cd8ba5860405160405180910390a4505050565b6000843373ffffffffffffffffffffffffffffffffffffffff166001600083815260200190815260200160002060009054906101000a900473ffffffffffffffffffffffffffffffffffffffff1673ffffffffffffffffffffffffffffffffffffffff1614611e84576040517fbb9bf27800000000000000000000000000000000000000000000000000000000815260040160405180910390fd5b6000611eaa866000808a815260200190815260200160002061179f90919063ffffffff16565b9050611ed48686866000808c8152602001908152602001600020612f12909392919063ffffffff16565b9250867f3108849c053c77b8073a11256dffb5ffd5b55e93e105a355e1c9061db890d871828886604051611f0a93929190613db4565b60405180910390a25050949350505050565b600080836003016000848152602001908152602001600020541415905092915050565b3373ffffffffffffffffffffffffffffffffffffffff166002600083815260200190815260200160002060009054906101000a900473ffffffffffffffffffffffffffffffffffffffff1673ffffffffffffffffffffffffffffffffffffffff1614611fd7576040517f34c4245d00000000000000000000000000000000000000000000000000000000815260040160405180910390fd5b60006001600083815260200190815260200160002060009054906101000a900473ffffffffffffffffffffffffffffffffffffffff169050336001600084815260200190815260200160002060006101000a81548173ffffffffffffffffffffffffffffffffffffffff021916908373ffffffffffffffffffffffffffffffffffffffff1602179055506002600083815260200190815260200160002060006101000a81549073ffffffffffffffffffffffffffffffffffffffff02191690553373ffffffffffffffffffffffffffffffffffffffff168173ffffffffffffffffffffffffffffffffffffffff16837f0ba83579a0e79193ef649b9f5a8759d35af086ba62a3e207b52e4a8ae30d49e360405160405180910390a45050565b600081600201600083600101548152602001908152602001600020549050919050565b6000808460000154905060005b848490508110156122a5577f30644e72e131a029b85045b68181585d2833e84879b9709143e1f593f00000018585838181106121655761216461378e565b5b90506020020135106121a3576040517fc380a82e00000000000000000000000000000000000000000000000000000000815260040160405180910390fd5b60008585838181106121b8576121b761378e565b5b90506020020135036121f6576040517f29691be200000000000000000000000000000000000000000000000000000000815260040160405180910390fd5b6122198686868481811061220d5761220c61378e565b5b90506020020135611f1c565b15612250576040517f258a195a00000000000000000000000000000000000000000000000000000000815260040160405180910390fd5b8060018361225e919061375a565b612268919061375a565b8660030160008787858181106122815761228061378e565b5b90506020020135815260200190815260200160002081905550806001019050612126565b506060848480806020026020016040519081016040528093929190818152602001838360200280828437600081840152601f19601f8201169050808301925050505050505090506000866001015490505b8585905083612305919061375a565b8160026123129190613f9f565b10156123295780612322906135f5565b90506122f6565b808760010181905550600083905060008787905085612348919061375a565b90506000600183901c905060006001806001856123659190613726565b901c612371919061375a565b905060005b85811015612684576000838361238c9190613726565b905060008167ffffffffffffffff8111156123aa576123a9613fea565b5b6040519080825280602002602001820160405280156123d85781602001602082028036833780820191505090505b50905060005b828110156125ab57600088600288846123f7919061375a565b6124019190614019565b1015612424578f6002016000868152602001908152602001600020549050612464565b8a8960028985612434919061375a565b61243e9190614019565b6124489190613726565b815181106124595761245861378e565b5b602002602001015190505b600088600160028a86612477919061375a565b6124819190614019565b61248b919061375a565b10156124dd578b8a600160028b876124a3919061375a565b6124ad9190614019565b6124b7919061375a565b6124c19190613726565b815181106124d2576124d161378e565b5b602002602001015190505b60008082146125795773__$75f79a42d9bcbdbb69ad79ebd80f556f39$__63561558fe6040518060400160405280868152602001858152506040518263ffffffff1660e01b815260040161253191906140e4565b602060405180830381865af415801561254e573d6000803e3d6000fd5b505050506040513d601f19601f820116820180604052508101906125729190614114565b905061257d565b8290505b808585815181106125915761259061378e565b5b6020026020010181815250508360010193505050506123de565b506001808716036125fc578860018a516125c59190613726565b815181106125d6576125d561378e565b5b60200260200101518e600201600085815260200190815260200160002081905550612649565b600189511115612648578860028a516126159190613726565b815181106126265761262561378e565b5b60200260200101518e6002016000858152602001908152602001600020819055505b5b849650600185901c94508098508395506001806001866126699190613726565b901c612675919061375a565b93508260010192505050612376565b508989905087612694919061375a565b8b60000181905550856000815181106126b0576126af61378e565b5b60200260200101518b600201600087815260200190815260200160002081905550856000815181106126e5576126e461378e565b5b60200260200101519750505050505050509392505050565b60007f30644e72e131a029b85045b68181585d2833e84879b9709143e1f593f00000018210612758576040517fc380a82e00000000000000000000000000000000000000000000000000000000815260040160405180910390fd5b60008203612792576040517f29691be200000000000000000000000000000000000000000000000000000000815260040160405180910390fd5b61279c8383611f1c565b156127d3576040517f258a195a00000000000000000000000000000000000000000000000000000000815260040160405180910390fd5b6000836000015490506000846001015490506001826127f2919061375a565b8160026127ff9190613f9f565b1015612812578061280f906135f5565b90505b808560010181905550600084905060005b82811015612906576001808286901c16036128e05773__$75f79a42d9bcbdbb69ad79ebd80f556f39$__63561558fe60405180604001604052808a6002016000868152602001908152602001600020548152602001858152506040518263ffffffff1660e01b815260040161289891906140e4565b602060405180830381865af41580156128b5573d6000803e3d6000fd5b505050506040513d601f19601f820116820180604052508101906128d99190614114565b91506128fb565b81876002016000838152602001908152602001600020819055505b806001019050612823565b5082612911906135f5565b92508286600001819055508086600201600084815260200190815260200160002081905550828660030160008781526020019081526020016000208190555080935050505092915050565b60007f30644e72e131a029b85045b68181585d2833e84879b9709143e1f593f000000184106129b7576040517fc380a82e00000000000000000000000000000000000000000000000000000000815260040160405180910390fd5b6129c18686611f1c565b6129f7576040517f7204756c00000000000000000000000000000000000000000000000000000000815260040160405180910390fd5b612a018685611f1c565b15612a38576040517f258a195a00000000000000000000000000000000000000000000000000000000815260040160405180910390fd5b6000612a44878761179f565b905060008590506000879050600060018a60000154612a639190613726565b90506000808b60010154905060005b81811015612e51576001808289901c1603612c52577f30644e72e131a029b85045b68181585d2833e84879b9709143e1f593f00000018a8a85818110612abb57612aba61378e565b5b9050602002013510612af9576040517fc380a82e00000000000000000000000000000000000000000000000000000000815260040160405180910390fd5b73__$75f79a42d9bcbdbb69ad79ebd80f556f39$__63561558fe60405180604001604052808d8d88818110612b3157612b3061378e565b5b905060200201358152602001898152506040518263ffffffff1660e01b8152600401612b5d91906140e4565b602060405180830381865af4158015612b7a573d6000803e3d6000fd5b505050506040513d601f19601f82011682018060405250810190612b9e9190614114565b955073__$75f79a42d9bcbdbb69ad79ebd80f556f39$__63561558fe60405180604001604052808d8d88818110612bd857612bd761378e565b5b905060200201358152602001888152506040518263ffffffff1660e01b8152600401612c0491906140e4565b602060405180830381865af4158015612c21573d6000803e3d6000fd5b505050506040513d601f19601f82011682018060405250810190612c459190614114565b9450826001019250612e46565b8084901c8188901c14612e2a577f30644e72e131a029b85045b68181585d2833e84879b9709143e1f593f00000018a8a85818110612c9357612c9261378e565b5b9050602002013510612cd1576040517fc380a82e00000000000000000000000000000000000000000000000000000000815260040160405180910390fd5b73__$75f79a42d9bcbdbb69ad79ebd80f556f39$__63561558fe60405180604001604052808981526020018d8d88818110612d0f57612d0e61378e565b5b905060200201358152506040518263ffffffff1660e01b8152600401612d3591906140e4565b602060405180830381865af4158015612d52573d6000803e3d6000fd5b505050506040513d601f19601f82011682018060405250810190612d769190614114565b955073__$75f79a42d9bcbdbb69ad79ebd80f556f39$__63561558fe60405180604001604052808881526020018d8d88818110612db657612db561378e565b5b905060200201358152506040518263ffffffff1660e01b8152600401612ddc91906140e4565b602060405180830381865af4158015612df9573d6000803e3d6000fd5b505050506040513d601f19601f82011682018060405250810190612e1d9190614114565b9450826001019250612e45565b858d6002016000858152602001908152602001600020819055505b5b806001019050612a72565b50612e5b8c6120f6565b8414612e93576040517f3fa930c600000000000000000000000000000000000000000000000000000000815260040160405180910390fd5b848c60020160008381526020019081526020016000208190555060008a14612ee5578b60030160008c8152602001908152602001600020548c60030160008c8152602001908152602001600020819055505b60008c60030160008d81526020019081526020016000208190555084965050505050505095945050505050565b6000612f2285856000868661295c565b9050949350505050565b600080fd5b600080fd5b6000819050919050565b612f4981612f36565b8114612f5457600080fd5b50565b600081359050612f6681612f40565b92915050565b600080fd5b600080fd5b600080fd5b60008083601f840112612f9157612f90612f6c565b5b8235905067ffffffffffffffff811115612fae57612fad612f71565b5b602083019150836020820283011115612fca57612fc9612f76565b5b9250929050565b600080600060408486031215612fea57612fe9612f2c565b5b6000612ff886828701612f57565b935050602084013567ffffffffffffffff81111561301957613018612f31565b5b61302586828701612f7b565b92509250509250925092565b6000806040838503121561304857613047612f2c565b5b600061305685828601612f57565b925050602061306785828601612f57565b9150509250929050565b61307a81612f36565b82525050565b60006020820190506130956000830184613071565b92915050565b600073ffffffffffffffffffffffffffffffffffffffff82169050919050565b6000819050919050565b60006130e06130db6130d68461309b565b6130bb565b61309b565b9050919050565b60006130f2826130c5565b9050919050565b6000613104826130e7565b9050919050565b613114816130f9565b82525050565b600060208201905061312f600083018461310b565b92915050565b60006131408261309b565b9050919050565b61315081613135565b811461315b57600080fd5b50565b60008135905061316d81613147565b92915050565b6000806040838503121561318a57613189612f2c565b5b60006131988582860161315e565b92505060206131a985828601612f57565b9150509250929050565b6000602082840312156131c9576131c8612f2c565b5b60006131d784828501612f57565b91505092915050565b6000806000806000608086880312156131fc576131fb612f2c565b5b600061320a88828901612f57565b955050602061321b88828901612f57565b945050604061322c88828901612f57565b935050606086013567ffffffffffffffff81111561324d5761324c612f31565b5b61325988828901612f7b565b92509250509295509295909350565b600080fd5b60006101a0828403121561328457613283613268565b5b81905092915050565b6000806101c083850312156132a5576132a4612f2c565b5b60006132b385828601612f57565b92505060206132c48582860161326d565b9150509250929050565b60008115159050919050565b6132e3816132ce565b82525050565b60006020820190506132fe60008301846132da565b92915050565b6000806040838503121561331b5761331a612f2c565b5b600061332985828601612f57565b925050602061333a8582860161315e565b9150509250929050565b60006020828403121561335a57613359612f2c565b5b60006133688482850161315e565b91505092915050565b6000610140828403121561338857613387613268565b5b81905092915050565b600061014082840312156133a8576133a7612f2c565b5b60006133b684828501613371565b91505092915050565b600080600080606085870312156133d9576133d8612f2c565b5b60006133e787828801612f57565b94505060206133f887828801612f57565b935050604085013567ffffffffffffffff81111561341957613418612f31565b5b61342587828801612f7b565b925092505092959194509250565b60006040820190506134486000830185613071565b6134556020830184613071565b9392505050565b61346581613135565b82525050565b6000602082019050613480600083018461345c565b92915050565b6000613491826130e7565b9050919050565b6134a181613486565b82525050565b60006020820190506134bc6000830184613498565b92915050565b6000806101c083850312156134da576134d9612f2c565b5b60006134e88582860161326d565b9250506101a06134fa85828601612f57565b9150509250929050565b6000819050826020600202820111156135205761351f612f76565b5b92915050565b60008190508260406002028201111561354257613541612f76565b5b92915050565b6000806000806000610140868803121561356557613564612f2c565b5b600061357388828901613504565b955050604061358488828901613526565b94505060c061359588828901613504565b9350506101006135a788828901612f57565b9250506101206135b988828901612f57565b9150509295509295909350565b7f4e487b7100000000000000000000000000000000000000000000000000000000600052601160045260246000fd5b600061360082612f36565b91507fffffffffffffffffffffffffffffffffffffffffffffffffffffffffffffffff8203613632576136316135c6565b5b600182019050919050565b600082825260208201905092915050565b7f7572206e6f7420746865206f776e6572206f66207468697320626f7800000000600082015250565b6000613684601c8361363d565b915061368f8261364e565b602082019050919050565b600060208201905081810360008301526136b381613677565b9050919050565b7f4e6f7420656e6f7567682066756e647300000000000000000000000000000000600082015250565b60006136f060108361363d565b91506136fb826136ba565b602082019050919050565b6000602082019050818103600083015261371f816136e3565b9050919050565b600061373182612f36565b915061373c83612f36565b9250828203905081811115613754576137536135c6565b5b92915050565b600061376582612f36565b915061377083612f36565b9250828201905080821115613788576137876135c6565b5b92915050565b7f4e487b7100000000000000000000000000000000000000000000000000000000600052603260045260246000fd5b600060029050919050565b600081905092915050565b6000819050919050565b6137e681612f36565b82525050565b60006137f883836137dd565b60208301905092915050565b6000602082019050919050565b61381a816137bd565b61382481846137c8565b925061382f826137d3565b8060005b8381101561386057815161384787826137ec565b965061385283613804565b925050600181019050613833565b505050505050565b600060029050919050565b600081905092915050565b6000819050919050565b600081905092915050565b61389c816137bd565b6138a68184613888565b92506138b1826137d3565b8060005b838110156138e25781516138c987826137ec565b96506138d483613804565b9250506001810190506138b5565b505050505050565b60006138f68383613893565b60408301905092915050565b6000602082019050919050565b61391881613868565b6139228184613873565b925061392d8261387e565b8060005b8381101561395e57815161394587826138ea565b965061395083613902565b925050600181019050613931565b505050505050565b600060049050919050565b600081905092915050565b6000819050919050565b6000602082019050919050565b61399c81613966565b6139a68184613971565b92506139b18261397c565b8060005b838110156139e25781516139c987826137ec565b96506139d483613986565b9250506001810190506139b5565b505050505050565b60006101a082019050613a006000830188613811565b613a0d604083018761390f565b613a1a60c0830186613811565b613a28610100830185613993565b613a36610180830184613071565b9695505050505050565b613a49816132ce565b8114613a5457600080fd5b50565b600081519050613a6681613a40565b92915050565b600060208284031215613a8257613a81612f2c565b5b6000613a9084828501613a57565b91505092915050565b7f6e6f7420656e6f7567682066756e64732073656e7420776974682066756e637460008201527f696f6e0000000000000000000000000000000000000000000000000000000000602082015250565b6000613af560238361363d565b9150613b0082613a99565b604082019050919050565b60006020820190508181036000830152613b2481613ae8565b9050919050565b7f636f6d6d69746d656e7420616e6420616d6f756e7420646f6e74206d61746368600082015250565b6000613b6160208361363d565b9150613b6c82613b2b565b602082019050919050565b60006020820190508181036000830152613b9081613b54565b9050919050565b82818337505050565b613bad6101008383613b97565b5050565b600061016082019050613bc76000830187613071565b613bd46020830186613071565b613be16040830185613071565b613bee6060830184613ba0565b95945050505050565b613c0360408383613b97565b5050565b600060029050919050565b6000819050919050565b613c2860408383613b97565b5050565b6000613c388383613c1c565b60408301905092915050565b600082905092915050565b6000604082019050919050565b613c6581613c07565b613c6f8184613873565b9250613c7a82613c12565b8060005b83811015613cb357613c908284613c44565b613c9a8782613c2c565b9650613ca583613c4f565b925050600181019050613c7e565b505050505050565b600061014082019050613cd16000830187613bf7565b613cde6040830186613c5c565b613ceb60c0830185613bf7565b613cf9610100830184613811565b95945050505050565b600082825260208201905092915050565b600080fd5b6000613d248385613d02565b93507f07ffffffffffffffffffffffffffffffffffffffffffffffffffffffffffffff831115613d5757613d56613d13565b5b602083029250613d68838584613b97565b82840190509392505050565b6000606082019050613d896000830187613071565b8181036020830152613d9c818587613d18565b9050613dab6040830184613071565b95945050505050565b6000606082019050613dc96000830186613071565b613dd66020830185613071565b613de36040830184613071565b949350505050565b6000608082019050613e006000830187613071565b613e0d6020830186613071565b613e1a6040830185613071565b613e276060830184613071565b95945050505050565b6000819050919050565b613e4b613e4682612f36565b613e30565b82525050565b6000613e5d8284613e3a565b60208201915081905092915050565b60008160011c9050919050565b6000808291508390505b6001851115613ec357808604811115613e9f57613e9e6135c6565b5b6001851615613eae5780820291505b8081029050613ebc85613e6c565b9450613e83565b94509492505050565b600082613edc5760019050613f98565b81613eea5760009050613f98565b8160018114613f005760028114613f0a57613f39565b6001915050613f98565b60ff841115613f1c57613f1b6135c6565b5b8360020a915084821115613f3357613f326135c6565b5b50613f98565b5060208310610133831016604e8410600b8410161715613f6e5782820a905083811115613f6957613f686135c6565b5b613f98565b613f7b8484846001613e79565b92509050818404811115613f9257613f916135c6565b5b81810290505b9392505050565b6000613faa82612f36565b9150613fb583612f36565b9250613fe27fffffffffffffffffffffffffffffffffffffffffffffffffffffffffffffffff8484613ecc565b905092915050565b7f4e487b7100000000000000000000000000000000000000000000000000000000600052604160045260246000fd5b600061402482612f36565b915061402f83612f36565b925082820261403d81612f36565b91508282048414831517614054576140536135c6565b5b5092915050565b600081905092915050565b61406f81612f36565b82525050565b60006140818383614066565b60208301905092915050565b614096816137bd565b6140a0818461405b565b92506140ab826137d3565b8060005b838110156140dc5781516140c38782614075565b96506140ce83613804565b9250506001810190506140af565b505050505050565b60006040820190506140f9600083018461408d565b92915050565b60008151905061410e81612f40565b92915050565b60006020828403121561412a57614129612f2c565b5b6000614138848285016140ff565b9150509291505056fea2646970667358221220f216670a476e6969b79c6e4e6add0eb613f2eb6f373e4a2fd3df2c4d123933d764736f6c63430008190033",
			"opcodes": "PUSH1 0x80 PUSH1 0x40 MSTORE PUSH1 0x1 PUSH1 0x7 SSTORE CALLVALUE DUP1 ISZERO PUSH2 0x15 JUMPI PUSH1 0x0 DUP1 REVERT JUMPDEST POP PUSH1 0x40 MLOAD PUSH2 0x4339 CODESIZE SUB DUP1 PUSH2 0x4339 DUP4 CODECOPY DUP2 DUP2 ADD PUSH1 0x40 MSTORE DUP2 ADD SWAP1 PUSH2 0x37 SWAP2 SWAP1 PUSH2 0x173 JUMP JUMPDEST DUP2 PUSH1 0x3 PUSH1 0x0 PUSH2 0x100 EXP DUP2 SLOAD DUP2 PUSH20 0xFFFFFFFFFFFFFFFFFFFFFFFFFFFFFFFFFFFFFFFF MUL NOT AND SWAP1 DUP4 PUSH20 0xFFFFFFFFFFFFFFFFFFFFFFFFFFFFFFFFFFFFFFFF AND MUL OR SWAP1 SSTORE POP DUP1 PUSH1 0x4 PUSH1 0x0 PUSH2 0x100 EXP DUP2 SLOAD DUP2 PUSH20 0xFFFFFFFFFFFFFFFFFFFFFFFFFFFFFFFFFFFFFFFF MUL NOT AND SWAP1 DUP4 PUSH20 0xFFFFFFFFFFFFFFFFFFFFFFFFFFFFFFFFFFFFFFFF AND MUL OR SWAP1 SSTORE POP POP POP PUSH2 0x1B3 JUMP JUMPDEST PUSH1 0x0 DUP1 REVERT JUMPDEST PUSH1 0x0 PUSH20 0xFFFFFFFFFFFFFFFFFFFFFFFFFFFFFFFFFFFFFFFF DUP3 AND SWAP1 POP SWAP2 SWAP1 POP JUMP JUMPDEST PUSH1 0x0 PUSH2 0xF0 DUP3 PUSH2 0xC5 JUMP JUMPDEST SWAP1 POP SWAP2 SWAP1 POP JUMP JUMPDEST PUSH1 0x0 PUSH2 0x102 DUP3 PUSH2 0xE5 JUMP JUMPDEST SWAP1 POP SWAP2 SWAP1 POP JUMP JUMPDEST PUSH2 0x112 DUP2 PUSH2 0xF7 JUMP JUMPDEST DUP2 EQ PUSH2 0x11D JUMPI PUSH1 0x0 DUP1 REVERT JUMPDEST POP JUMP JUMPDEST PUSH1 0x0 DUP2 MLOAD SWAP1 POP PUSH2 0x12F DUP2 PUSH2 0x109 JUMP JUMPDEST SWAP3 SWAP2 POP POP JUMP JUMPDEST PUSH1 0x0 PUSH2 0x140 DUP3 PUSH2 0xE5 JUMP JUMPDEST SWAP1 POP SWAP2 SWAP1 POP JUMP JUMPDEST PUSH2 0x150 DUP2 PUSH2 0x135 JUMP JUMPDEST DUP2 EQ PUSH2 0x15B JUMPI PUSH1 0x0 DUP1 REVERT JUMPDEST POP JUMP JUMPDEST PUSH1 0x0 DUP2 MLOAD SWAP1 POP PUSH2 0x16D DUP2 PUSH2 0x147 JUMP JUMPDEST SWAP3 SWAP2 POP POP JUMP JUMPDEST PUSH1 0x0 DUP1 PUSH1 0x40 DUP4 DUP6 SUB SLT ISZERO PUSH2 0x18A JUMPI PUSH2 0x189 PUSH2 0xC0 JUMP JUMPDEST JUMPDEST PUSH1 0x0 PUSH2 0x198 DUP6 DUP3 DUP7 ADD PUSH2 0x120 JUMP JUMPDEST SWAP3 POP POP PUSH1 0x20 PUSH2 0x1A9 DUP6 DUP3 DUP7 ADD PUSH2 0x15E JUMP JUMPDEST SWAP2 POP POP SWAP3 POP SWAP3 SWAP1 POP JUMP JUMPDEST PUSH2 0x4177 DUP1 PUSH2 0x1C2 PUSH1 0x0 CODECOPY PUSH1 0x0 RETURN INVALID PUSH1 0x80 PUSH1 0x40 MSTORE PUSH1 0x4 CALLDATASIZE LT PUSH2 0x1C2 JUMPI PUSH1 0x0 CALLDATALOAD PUSH1 0xE0 SHR DUP1 PUSH4 0x6389E107 GT PUSH2 0xF7 JUMPI DUP1 PUSH4 0xC6E89258 GT PUSH2 0x95 JUMPI DUP1 PUSH4 0xDA3CDA52 GT PUSH2 0x64 JUMPI DUP1 PUSH4 0xDA3CDA52 EQ PUSH2 0x6A7 JUMPI DUP1 PUSH4 0xDABC4D51 EQ PUSH2 0x6D0 JUMPI DUP1 PUSH4 0xE007FE52 EQ PUSH2 0x70D JUMPI DUP1 PUSH4 0xFCF0B6EC EQ PUSH2 0x74A JUMPI PUSH2 0x1C2 JUMP JUMPDEST DUP1 PUSH4 0xC6E89258 EQ PUSH2 0x60C JUMPI DUP1 PUSH4 0xC8BCE995 EQ PUSH2 0x637 JUMPI DUP1 PUSH4 0xD0D898DD EQ PUSH2 0x660 JUMPI DUP1 PUSH4 0xD24924FE EQ PUSH2 0x67C JUMPI PUSH2 0x1C2 JUMP JUMPDEST DUP1 PUSH4 0x7EE35A0C GT PUSH2 0xD1 JUMPI DUP1 PUSH4 0x7EE35A0C EQ PUSH2 0x517 JUMPI DUP1 PUSH4 0x90509D44 EQ PUSH2 0x554 JUMPI DUP1 PUSH4 0x96324BD4 EQ PUSH2 0x591 JUMPI DUP1 PUSH4 0xA9961C94 EQ PUSH2 0x5CF JUMPI PUSH2 0x1C2 JUMP JUMPDEST DUP1 PUSH4 0x6389E107 EQ PUSH2 0x495 JUMPI DUP1 PUSH4 0x6C69A468 EQ PUSH2 0x4D2 JUMPI DUP1 PUSH4 0x6CDD32FE EQ PUSH2 0x4EE JUMPI PUSH2 0x1C2 JUMP JUMPDEST DUP1 PUSH4 0x40D66168 GT PUSH2 0x164 JUMPI DUP1 PUSH4 0x4F842C3A GT PUSH2 0x13E JUMPI DUP1 PUSH4 0x4F842C3A EQ PUSH2 0x3C7 JUMPI DUP1 PUSH4 0x568EE826 EQ PUSH2 0x404 JUMPI DUP1 PUSH4 0x575185ED EQ PUSH2 0x42D JUMPI DUP1 PUSH4 0x5C3F3B60 EQ PUSH2 0x458 JUMPI PUSH2 0x1C2 JUMP JUMPDEST DUP1 PUSH4 0x40D66168 EQ PUSH2 0x324 JUMPI DUP1 PUSH4 0x4178C4D5 EQ PUSH2 0x361 JUMPI DUP1 PUSH4 0x456F4188 EQ PUSH2 0x38A JUMPI PUSH2 0x1C2 JUMP JUMPDEST DUP1 PUSH4 0x2B7AC3F3 GT PUSH2 0x1A0 JUMPI DUP1 PUSH4 0x2B7AC3F3 EQ PUSH2 0x256 JUMPI DUP1 PUSH4 0x2C880363 EQ PUSH2 0x281 JUMPI DUP1 PUSH4 0x2E1A7D4D EQ PUSH2 0x2BE JUMPI DUP1 PUSH4 0x3F9A4BA3 EQ PUSH2 0x2E7 JUMPI PUSH2 0x1C2 JUMP JUMPDEST DUP1 PUSH4 0x4245371 EQ PUSH2 0x1C7 JUMPI DUP1 PUSH4 0x6DD8485 EQ PUSH2 0x1F0 JUMPI DUP1 PUSH4 0x1783EFC3 EQ PUSH2 0x22D JUMPI JUMPDEST PUSH1 0x0 DUP1 REVERT JUMPDEST CALLVALUE DUP1 ISZERO PUSH2 0x1D3 JUMPI PUSH1 0x0 DUP1 REVERT JUMPDEST POP PUSH2 0x1EE PUSH1 0x4 DUP1 CALLDATASIZE SUB DUP2 ADD SWAP1 PUSH2 0x1E9 SWAP2 SWAP1 PUSH2 0x2FD1 JUMP JUMPDEST PUSH2 0x773 JUMP JUMPDEST STOP JUMPDEST CALLVALUE DUP1 ISZERO PUSH2 0x1FC JUMPI PUSH1 0x0 DUP1 REVERT JUMPDEST POP PUSH2 0x217 PUSH1 0x4 DUP1 CALLDATASIZE SUB DUP2 ADD SWAP1 PUSH2 0x212 SWAP2 SWAP1 PUSH2 0x3031 JUMP JUMPDEST PUSH2 0x7B4 JUMP JUMPDEST PUSH1 0x40 MLOAD PUSH2 0x224 SWAP2 SWAP1 PUSH2 0x3080 JUMP JUMPDEST PUSH1 0x40 MLOAD DUP1 SWAP2 SUB SWAP1 RETURN JUMPDEST CALLVALUE DUP1 ISZERO PUSH2 0x239 JUMPI PUSH1 0x0 DUP1 REVERT JUMPDEST POP PUSH2 0x254 PUSH1 0x4 DUP1 CALLDATASIZE SUB DUP2 ADD SWAP1 PUSH2 0x24F SWAP2 SWAP1 PUSH2 0x3031 JUMP JUMPDEST PUSH2 0x7E2 JUMP JUMPDEST STOP JUMPDEST CALLVALUE DUP1 ISZERO PUSH2 0x262 JUMPI PUSH1 0x0 DUP1 REVERT JUMPDEST POP PUSH2 0x26B PUSH2 0x821 JUMP JUMPDEST PUSH1 0x40 MLOAD PUSH2 0x278 SWAP2 SWAP1 PUSH2 0x311A JUMP JUMPDEST PUSH1 0x40 MLOAD DUP1 SWAP2 SUB SWAP1 RETURN JUMPDEST CALLVALUE DUP1 ISZERO PUSH2 0x28D JUMPI PUSH1 0x0 DUP1 REVERT JUMPDEST POP PUSH2 0x2A8 PUSH1 0x4 DUP1 CALLDATASIZE SUB DUP2 ADD SWAP1 PUSH2 0x2A3 SWAP2 SWAP1 PUSH2 0x3173 JUMP JUMPDEST PUSH2 0x847 JUMP JUMPDEST PUSH1 0x40 MLOAD PUSH2 0x2B5 SWAP2 SWAP1 PUSH2 0x3080 JUMP JUMPDEST PUSH1 0x40 MLOAD DUP1 SWAP2 SUB SWAP1 RETURN JUMPDEST CALLVALUE DUP1 ISZERO PUSH2 0x2CA JUMPI PUSH1 0x0 DUP1 REVERT JUMPDEST POP PUSH2 0x2E5 PUSH1 0x4 DUP1 CALLDATASIZE SUB DUP2 ADD SWAP1 PUSH2 0x2E0 SWAP2 SWAP1 PUSH2 0x31B3 JUMP JUMPDEST PUSH2 0x88D JUMP JUMPDEST STOP JUMPDEST CALLVALUE DUP1 ISZERO PUSH2 0x2F3 JUMPI PUSH1 0x0 DUP1 REVERT JUMPDEST POP PUSH2 0x30E PUSH1 0x4 DUP1 CALLDATASIZE SUB DUP2 ADD SWAP1 PUSH2 0x309 SWAP2 SWAP1 PUSH2 0x3031 JUMP JUMPDEST PUSH2 0x9B0 JUMP JUMPDEST PUSH1 0x40 MLOAD PUSH2 0x31B SWAP2 SWAP1 PUSH2 0x3080 JUMP JUMPDEST PUSH1 0x40 MLOAD DUP1 SWAP2 SUB SWAP1 RETURN JUMPDEST CALLVALUE DUP1 ISZERO PUSH2 0x330 JUMPI PUSH1 0x0 DUP1 REVERT JUMPDEST POP PUSH2 0x34B PUSH1 0x4 DUP1 CALLDATASIZE SUB DUP2 ADD SWAP1 PUSH2 0x346 SWAP2 SWAP1 PUSH2 0x31B3 JUMP JUMPDEST PUSH2 0xA4C JUMP JUMPDEST PUSH1 0x40 MLOAD PUSH2 0x358 SWAP2 SWAP1 PUSH2 0x3080 JUMP JUMPDEST PUSH1 0x40 MLOAD DUP1 SWAP2 SUB SWAP1 RETURN JUMPDEST CALLVALUE DUP1 ISZERO PUSH2 0x36D JUMPI PUSH1 0x0 DUP1 REVERT JUMPDEST POP PUSH2 0x388 PUSH1 0x4 DUP1 CALLDATASIZE SUB DUP2 ADD SWAP1 PUSH2 0x383 SWAP2 SWAP1 PUSH2 0x31E0 JUMP JUMPDEST PUSH2 0xA64 JUMP JUMPDEST STOP JUMPDEST CALLVALUE DUP1 ISZERO PUSH2 0x396 JUMPI PUSH1 0x0 DUP1 REVERT JUMPDEST POP PUSH2 0x3B1 PUSH1 0x4 DUP1 CALLDATASIZE SUB DUP2 ADD SWAP1 PUSH2 0x3AC SWAP2 SWAP1 PUSH2 0x328D JUMP JUMPDEST PUSH2 0xAA9 JUMP JUMPDEST PUSH1 0x40 MLOAD PUSH2 0x3BE SWAP2 SWAP1 PUSH2 0x32E9 JUMP JUMPDEST PUSH1 0x40 MLOAD DUP1 SWAP2 SUB SWAP1 RETURN JUMPDEST CALLVALUE DUP1 ISZERO PUSH2 0x3D3 JUMPI PUSH1 0x0 DUP1 REVERT JUMPDEST POP PUSH2 0x3EE PUSH1 0x4 DUP1 CALLDATASIZE SUB DUP2 ADD SWAP1 PUSH2 0x3E9 SWAP2 SWAP1 PUSH2 0x31B3 JUMP JUMPDEST PUSH2 0xEF4 JUMP JUMPDEST PUSH1 0x40 MLOAD PUSH2 0x3FB SWAP2 SWAP1 PUSH2 0x3080 JUMP JUMPDEST PUSH1 0x40 MLOAD DUP1 SWAP2 SUB SWAP1 RETURN JUMPDEST CALLVALUE DUP1 ISZERO PUSH2 0x410 JUMPI PUSH1 0x0 DUP1 REVERT JUMPDEST POP PUSH2 0x42B PUSH1 0x4 DUP1 CALLDATASIZE SUB DUP2 ADD SWAP1 PUSH2 0x426 SWAP2 SWAP1 PUSH2 0x3304 JUMP JUMPDEST PUSH2 0xF14 JUMP JUMPDEST STOP JUMPDEST CALLVALUE DUP1 ISZERO PUSH2 0x439 JUMPI PUSH1 0x0 DUP1 REVERT JUMPDEST POP PUSH2 0x442 PUSH2 0xF22 JUMP JUMPDEST PUSH1 0x40 MLOAD PUSH2 0x44F SWAP2 SWAP1 PUSH2 0x3080 JUMP JUMPDEST PUSH1 0x40 MLOAD DUP1 SWAP2 SUB SWAP1 RETURN JUMPDEST CALLVALUE DUP1 ISZERO PUSH2 0x464 JUMPI PUSH1 0x0 DUP1 REVERT JUMPDEST POP PUSH2 0x47F PUSH1 0x4 DUP1 CALLDATASIZE SUB DUP2 ADD SWAP1 PUSH2 0x47A SWAP2 SWAP1 PUSH2 0x3344 JUMP JUMPDEST PUSH2 0xF67 JUMP JUMPDEST PUSH1 0x40 MLOAD PUSH2 0x48C SWAP2 SWAP1 PUSH2 0x3080 JUMP JUMPDEST PUSH1 0x40 MLOAD DUP1 SWAP2 SUB SWAP1 RETURN JUMPDEST CALLVALUE DUP1 ISZERO PUSH2 0x4A1 JUMPI PUSH1 0x0 DUP1 REVERT JUMPDEST POP PUSH2 0x4BC PUSH1 0x4 DUP1 CALLDATASIZE SUB DUP2 ADD SWAP1 PUSH2 0x4B7 SWAP2 SWAP1 PUSH2 0x31B3 JUMP JUMPDEST PUSH2 0xFAE JUMP JUMPDEST PUSH1 0x40 MLOAD PUSH2 0x4C9 SWAP2 SWAP1 PUSH2 0x3080 JUMP JUMPDEST PUSH1 0x40 MLOAD DUP1 SWAP2 SUB SWAP1 RETURN JUMPDEST PUSH2 0x4EC PUSH1 0x4 DUP1 CALLDATASIZE SUB DUP2 ADD SWAP1 PUSH2 0x4E7 SWAP2 SWAP1 PUSH2 0x3391 JUMP JUMPDEST PUSH2 0xFCD JUMP JUMPDEST STOP JUMPDEST CALLVALUE DUP1 ISZERO PUSH2 0x4FA JUMPI PUSH1 0x0 DUP1 REVERT JUMPDEST POP PUSH2 0x515 PUSH1 0x4 DUP1 CALLDATASIZE SUB DUP2 ADD SWAP1 PUSH2 0x510 SWAP2 SWAP1 PUSH2 0x33BF JUMP JUMPDEST PUSH2 0x1088 JUMP JUMPDEST STOP JUMPDEST CALLVALUE DUP1 ISZERO PUSH2 0x523 JUMPI PUSH1 0x0 DUP1 REVERT JUMPDEST POP PUSH2 0x53E PUSH1 0x4 DUP1 CALLDATASIZE SUB DUP2 ADD SWAP1 PUSH2 0x539 SWAP2 SWAP1 PUSH2 0x31B3 JUMP JUMPDEST PUSH2 0x10CB JUMP JUMPDEST PUSH1 0x40 MLOAD PUSH2 0x54B SWAP2 SWAP1 PUSH2 0x3080 JUMP JUMPDEST PUSH1 0x40 MLOAD DUP1 SWAP2 SUB SWAP1 RETURN JUMPDEST CALLVALUE DUP1 ISZERO PUSH2 0x560 JUMPI PUSH1 0x0 DUP1 REVERT JUMPDEST POP PUSH2 0x57B PUSH1 0x4 DUP1 CALLDATASIZE SUB DUP2 ADD SWAP1 PUSH2 0x576 SWAP2 SWAP1 PUSH2 0x3031 JUMP JUMPDEST PUSH2 0x10EA JUMP JUMPDEST PUSH1 0x40 MLOAD PUSH2 0x588 SWAP2 SWAP1 PUSH2 0x32E9 JUMP JUMPDEST PUSH1 0x40 MLOAD DUP1 SWAP2 SUB SWAP1 RETURN JUMPDEST CALLVALUE DUP1 ISZERO PUSH2 0x59D JUMPI PUSH1 0x0 DUP1 REVERT JUMPDEST POP PUSH2 0x5B8 PUSH1 0x4 DUP1 CALLDATASIZE SUB DUP2 ADD SWAP1 PUSH2 0x5B3 SWAP2 SWAP1 PUSH2 0x31B3 JUMP JUMPDEST PUSH2 0x1118 JUMP JUMPDEST PUSH1 0x40 MLOAD PUSH2 0x5C6 SWAP3 SWAP2 SWAP1 PUSH2 0x3433 JUMP JUMPDEST PUSH1 0x40 MLOAD DUP1 SWAP2 SUB SWAP1 RETURN JUMPDEST CALLVALUE DUP1 ISZERO PUSH2 0x5DB JUMPI PUSH1 0x0 DUP1 REVERT JUMPDEST POP PUSH2 0x5F6 PUSH1 0x4 DUP1 CALLDATASIZE SUB DUP2 ADD SWAP1 PUSH2 0x5F1 SWAP2 SWAP1 PUSH2 0x31B3 JUMP JUMPDEST PUSH2 0x113C JUMP JUMPDEST PUSH1 0x40 MLOAD PUSH2 0x603 SWAP2 SWAP1 PUSH2 0x346B JUMP JUMPDEST PUSH1 0x40 MLOAD DUP1 SWAP2 SUB SWAP1 RETURN JUMPDEST CALLVALUE DUP1 ISZERO PUSH2 0x618 JUMPI PUSH1 0x0 DUP1 REVERT JUMPDEST POP PUSH2 0x621 PUSH2 0x1179 JUMP JUMPDEST PUSH1 0x40 MLOAD PUSH2 0x62E SWAP2 SWAP1 PUSH2 0x34A7 JUMP JUMPDEST PUSH1 0x40 MLOAD DUP1 SWAP2 SUB SWAP1 RETURN JUMPDEST CALLVALUE DUP1 ISZERO PUSH2 0x643 JUMPI PUSH1 0x0 DUP1 REVERT JUMPDEST POP PUSH2 0x65E PUSH1 0x4 DUP1 CALLDATASIZE SUB DUP2 ADD SWAP1 PUSH2 0x659 SWAP2 SWAP1 PUSH2 0x34C2 JUMP JUMPDEST PUSH2 0x119F JUMP JUMPDEST STOP JUMPDEST PUSH2 0x67A PUSH1 0x4 DUP1 CALLDATASIZE SUB DUP2 ADD SWAP1 PUSH2 0x675 SWAP2 SWAP1 PUSH2 0x328D JUMP JUMPDEST PUSH2 0x12C8 JUMP JUMPDEST STOP JUMPDEST CALLVALUE DUP1 ISZERO PUSH2 0x688 JUMPI PUSH1 0x0 DUP1 REVERT JUMPDEST POP PUSH2 0x691 PUSH2 0x1481 JUMP JUMPDEST PUSH1 0x40 MLOAD PUSH2 0x69E SWAP2 SWAP1 PUSH2 0x3080 JUMP JUMPDEST PUSH1 0x40 MLOAD DUP1 SWAP2 SUB SWAP1 RETURN JUMPDEST CALLVALUE DUP1 ISZERO PUSH2 0x6B3 JUMPI PUSH1 0x0 DUP1 REVERT JUMPDEST POP PUSH2 0x6CE PUSH1 0x4 DUP1 CALLDATASIZE SUB DUP2 ADD SWAP1 PUSH2 0x6C9 SWAP2 SWAP1 PUSH2 0x31B3 JUMP JUMPDEST PUSH2 0x1487 JUMP JUMPDEST STOP JUMPDEST CALLVALUE DUP1 ISZERO PUSH2 0x6DC JUMPI PUSH1 0x0 DUP1 REVERT JUMPDEST POP PUSH2 0x6F7 PUSH1 0x4 DUP1 CALLDATASIZE SUB DUP2 ADD SWAP1 PUSH2 0x6F2 SWAP2 SWAP1 PUSH2 0x31B3 JUMP JUMPDEST PUSH2 0x1493 JUMP JUMPDEST PUSH1 0x40 MLOAD PUSH2 0x704 SWAP2 SWAP1 PUSH2 0x3080 JUMP JUMPDEST PUSH1 0x40 MLOAD DUP1 SWAP2 SUB SWAP1 RETURN JUMPDEST CALLVALUE DUP1 ISZERO PUSH2 0x719 JUMPI PUSH1 0x0 DUP1 REVERT JUMPDEST POP PUSH2 0x734 PUSH1 0x4 DUP1 CALLDATASIZE SUB DUP2 ADD SWAP1 PUSH2 0x72F SWAP2 SWAP1 PUSH2 0x3548 JUMP JUMPDEST PUSH2 0x14B6 JUMP JUMPDEST PUSH1 0x40 MLOAD PUSH2 0x741 SWAP2 SWAP1 PUSH2 0x32E9 JUMP JUMPDEST PUSH1 0x40 MLOAD DUP1 SWAP2 SUB SWAP1 RETURN JUMPDEST CALLVALUE DUP1 ISZERO PUSH2 0x756 JUMPI PUSH1 0x0 DUP1 REVERT JUMPDEST POP PUSH2 0x771 PUSH1 0x4 DUP1 CALLDATASIZE SUB DUP2 ADD SWAP1 PUSH2 0x76C SWAP2 SWAP1 PUSH2 0x3031 JUMP JUMPDEST PUSH2 0x1579 JUMP JUMPDEST STOP JUMPDEST PUSH1 0x0 PUSH2 0x780 DUP5 DUP5 DUP5 PUSH2 0x1688 JUMP JUMPDEST SWAP1 POP TIMESTAMP PUSH1 0x5 PUSH1 0x0 DUP7 DUP2 MSTORE PUSH1 0x20 ADD SWAP1 DUP2 MSTORE PUSH1 0x20 ADD PUSH1 0x0 KECCAK256 PUSH1 0x2 ADD PUSH1 0x0 DUP4 DUP2 MSTORE PUSH1 0x20 ADD SWAP1 DUP2 MSTORE PUSH1 0x20 ADD PUSH1 0x0 KECCAK256 DUP2 SWAP1 SSTORE POP POP POP POP POP JUMP JUMPDEST PUSH1 0x0 PUSH2 0x7DA DUP3 PUSH1 0x0 DUP1 DUP7 DUP2 MSTORE PUSH1 0x20 ADD SWAP1 DUP2 MSTORE PUSH1 0x20 ADD PUSH1 0x0 KECCAK256 PUSH2 0x179F SWAP1 SWAP2 SWAP1 PUSH4 0xFFFFFFFF AND JUMP JUMPDEST SWAP1 POP SWAP3 SWAP2 POP POP JUMP JUMPDEST PUSH1 0x0 PUSH2 0x7EE DUP4 DUP4 PUSH2 0x1819 JUMP JUMPDEST SWAP1 POP TIMESTAMP PUSH1 0x5 PUSH1 0x0 DUP6 DUP2 MSTORE PUSH1 0x20 ADD SWAP1 DUP2 MSTORE PUSH1 0x20 ADD PUSH1 0x0 KECCAK256 PUSH1 0x2 ADD PUSH1 0x0 DUP4 DUP2 MSTORE PUSH1 0x20 ADD SWAP1 DUP2 MSTORE PUSH1 0x20 ADD PUSH1 0x0 KECCAK256 DUP2 SWAP1 SSTORE POP POP POP POP JUMP JUMPDEST PUSH1 0x3 PUSH1 0x0 SWAP1 SLOAD SWAP1 PUSH2 0x100 EXP SWAP1 DIV PUSH20 0xFFFFFFFFFFFFFFFFFFFFFFFFFFFFFFFFFFFFFFFF AND DUP2 JUMP JUMPDEST PUSH1 0x0 PUSH1 0x7 PUSH1 0x0 DUP2 SLOAD DUP1 SWAP3 SWAP2 SWAP1 PUSH2 0x85C SWAP1 PUSH2 0x35F5 JUMP JUMPDEST SWAP2 SWAP1 POP SSTORE SWAP1 POP PUSH2 0x86C DUP2 DUP5 PUSH2 0x192B JUMP JUMPDEST DUP2 PUSH1 0x5 PUSH1 0x0 DUP4 DUP2 MSTORE PUSH1 0x20 ADD SWAP1 DUP2 MSTORE PUSH1 0x20 ADD PUSH1 0x0 KECCAK256 PUSH1 0x0 ADD DUP2 SWAP1 SSTORE POP SWAP3 SWAP2 POP POP JUMP JUMPDEST PUSH1 0x1 PUSH1 0x0 DUP3 DUP2 MSTORE PUSH1 0x20 ADD SWAP1 DUP2 MSTORE PUSH1 0x20 ADD PUSH1 0x0 KECCAK256 PUSH1 0x0 SWAP1 SLOAD SWAP1 PUSH2 0x100 EXP SWAP1 DIV PUSH20 0xFFFFFFFFFFFFFFFFFFFFFFFFFFFFFFFFFFFFFFFF AND PUSH20 0xFFFFFFFFFFFFFFFFFFFFFFFFFFFFFFFFFFFFFFFF AND CALLER PUSH20 0xFFFFFFFFFFFFFFFFFFFFFFFFFFFFFFFFFFFFFFFF AND EQ PUSH2 0x92E JUMPI PUSH1 0x40 MLOAD PUSH32 0x8C379A000000000000000000000000000000000000000000000000000000000 DUP2 MSTORE PUSH1 0x4 ADD PUSH2 0x925 SWAP1 PUSH2 0x369A JUMP JUMPDEST PUSH1 0x40 MLOAD DUP1 SWAP2 SUB SWAP1 REVERT JUMPDEST PUSH1 0x0 PUSH1 0x5 PUSH1 0x0 DUP4 DUP2 MSTORE PUSH1 0x20 ADD SWAP1 DUP2 MSTORE PUSH1 0x20 ADD PUSH1 0x0 KECCAK256 PUSH1 0x1 ADD SLOAD SWAP1 POP CALLER PUSH20 0xFFFFFFFFFFFFFFFFFFFFFFFFFFFFFFFFFFFFFFFF AND PUSH2 0x8FC DUP3 SWAP1 DUP2 ISZERO MUL SWAP1 PUSH1 0x40 MLOAD PUSH1 0x0 PUSH1 0x40 MLOAD DUP1 DUP4 SUB DUP2 DUP6 DUP9 DUP9 CALL SWAP4 POP POP POP POP ISZERO DUP1 ISZERO PUSH2 0x98F JUMPI RETURNDATASIZE PUSH1 0x0 DUP1 RETURNDATACOPY RETURNDATASIZE PUSH1 0x0 REVERT JUMPDEST POP PUSH1 0x0 PUSH1 0x5 PUSH1 0x0 DUP5 DUP2 MSTORE PUSH1 0x20 ADD SWAP1 DUP2 MSTORE PUSH1 0x20 ADD PUSH1 0x0 KECCAK256 PUSH1 0x1 ADD DUP2 SWAP1 SSTORE POP POP POP JUMP JUMPDEST PUSH1 0x0 DUP2 PUSH1 0x5 PUSH1 0x0 DUP6 DUP2 MSTORE PUSH1 0x20 ADD SWAP1 DUP2 MSTORE PUSH1 0x20 ADD PUSH1 0x0 KECCAK256 PUSH1 0x1 ADD SLOAD LT ISZERO PUSH2 0xA0B JUMPI PUSH1 0x40 MLOAD PUSH32 0x8C379A000000000000000000000000000000000000000000000000000000000 DUP2 MSTORE PUSH1 0x4 ADD PUSH2 0xA02 SWAP1 PUSH2 0x3706 JUMP JUMPDEST PUSH1 0x40 MLOAD DUP1 SWAP2 SUB SWAP1 REVERT JUMPDEST PUSH2 0xA15 DUP4 DUP4 PUSH2 0x1A0A JUMP JUMPDEST POP DUP2 PUSH1 0x5 PUSH1 0x0 DUP6 DUP2 MSTORE PUSH1 0x20 ADD SWAP1 DUP2 MSTORE PUSH1 0x20 ADD PUSH1 0x0 KECCAK256 PUSH1 0x1 ADD PUSH1 0x0 DUP3 DUP3 SLOAD PUSH2 0xA3C SWAP2 SWAP1 PUSH2 0x3726 JUMP JUMPDEST SWAP3 POP POP DUP2 SWAP1 SSTORE POP DUP2 SWAP1 POP SWAP3 SWAP2 POP POP JUMP JUMPDEST PUSH1 0x6 PUSH1 0x20 MSTORE DUP1 PUSH1 0x0 MSTORE PUSH1 0x40 PUSH1 0x0 KECCAK256 PUSH1 0x0 SWAP2 POP SWAP1 POP SLOAD DUP2 JUMP JUMPDEST PUSH1 0x0 PUSH2 0xA73 DUP7 DUP7 DUP7 DUP7 DUP7 PUSH2 0x1B2F JUMP JUMPDEST SWAP1 POP TIMESTAMP PUSH1 0x5 PUSH1 0x0 DUP9 DUP2 MSTORE PUSH1 0x20 ADD SWAP1 DUP2 MSTORE PUSH1 0x20 ADD PUSH1 0x0 KECCAK256 PUSH1 0x2 ADD PUSH1 0x0 DUP4 DUP2 MSTORE PUSH1 0x20 ADD SWAP1 DUP2 MSTORE PUSH1 0x20 ADD PUSH1 0x0 KECCAK256 DUP2 SWAP1 SSTORE POP POP POP POP POP POP POP JUMP JUMPDEST PUSH1 0x0 DUP3 PUSH1 0x0 PUSH20 0xFFFFFFFFFFFFFFFFFFFFFFFFFFFFFFFFFFFFFFFF AND PUSH1 0x1 PUSH1 0x0 DUP4 DUP2 MSTORE PUSH1 0x20 ADD SWAP1 DUP2 MSTORE PUSH1 0x20 ADD PUSH1 0x0 KECCAK256 PUSH1 0x0 SWAP1 SLOAD SWAP1 PUSH2 0x100 EXP SWAP1 DIV PUSH20 0xFFFFFFFFFFFFFFFFFFFFFFFFFFFFFFFFFFFFFFFF AND PUSH20 0xFFFFFFFFFFFFFFFFFFFFFFFFFFFFFFFFFFFFFFFF AND SUB PUSH2 0xB45 JUMPI PUSH1 0x40 MLOAD PUSH32 0x29F057900000000000000000000000000000000000000000000000000000000 DUP2 MSTORE PUSH1 0x4 ADD PUSH1 0x40 MLOAD DUP1 SWAP2 SUB SWAP1 REVERT JUMPDEST PUSH1 0x1 PUSH1 0xFF AND DUP4 PUSH1 0x0 ADD CALLDATALOAD LT DUP1 PUSH2 0xB62 JUMPI POP PUSH1 0xC PUSH1 0xFF AND DUP4 PUSH1 0x0 ADD CALLDATALOAD GT JUMPDEST ISZERO PUSH2 0xB99 JUMPI PUSH1 0x40 MLOAD PUSH32 0xECF64F1200000000000000000000000000000000000000000000000000000000 DUP2 MSTORE PUSH1 0x4 ADD PUSH1 0x40 MLOAD DUP1 SWAP2 SUB SWAP1 REVERT JUMPDEST PUSH1 0x0 PUSH2 0xBA4 DUP6 PUSH2 0x10CB JUMP JUMPDEST SWAP1 POP PUSH1 0x0 DUP2 SUB PUSH2 0xBE0 JUMPI PUSH1 0x40 MLOAD PUSH32 0xC8B02E0100000000000000000000000000000000000000000000000000000000 DUP2 MSTORE PUSH1 0x4 ADD PUSH1 0x40 MLOAD DUP1 SWAP2 SUB SWAP1 REVERT JUMPDEST PUSH1 0x0 PUSH2 0xBEB DUP7 PUSH2 0x1493 JUMP JUMPDEST SWAP1 POP DUP1 DUP6 PUSH1 0x20 ADD CALLDATALOAD EQ PUSH2 0xCC5 JUMPI PUSH1 0x0 PUSH1 0x5 PUSH1 0x0 DUP9 DUP2 MSTORE PUSH1 0x20 ADD SWAP1 DUP2 MSTORE PUSH1 0x20 ADD PUSH1 0x0 KECCAK256 PUSH1 0x2 ADD PUSH1 0x0 DUP8 PUSH1 0x20 ADD CALLDATALOAD DUP2 MSTORE PUSH1 0x20 ADD SWAP1 DUP2 MSTORE PUSH1 0x20 ADD PUSH1 0x0 KECCAK256 SLOAD SWAP1 POP PUSH1 0x0 PUSH1 0x5 PUSH1 0x0 DUP10 DUP2 MSTORE PUSH1 0x20 ADD SWAP1 DUP2 MSTORE PUSH1 0x20 ADD PUSH1 0x0 KECCAK256 PUSH1 0x0 ADD SLOAD SWAP1 POP PUSH1 0x0 DUP3 SUB PUSH2 0xC7D JUMPI PUSH1 0x40 MLOAD PUSH32 0x4D32958600000000000000000000000000000000000000000000000000000000 DUP2 MSTORE PUSH1 0x4 ADD PUSH1 0x40 MLOAD DUP1 SWAP2 SUB SWAP1 REVERT JUMPDEST DUP1 DUP3 PUSH2 0xC89 SWAP2 SWAP1 PUSH2 0x375A JUMP JUMPDEST TIMESTAMP GT ISZERO PUSH2 0xCC2 JUMPI PUSH1 0x40 MLOAD PUSH32 0x9581A99000000000000000000000000000000000000000000000000000000000 DUP2 MSTORE PUSH1 0x4 ADD PUSH1 0x40 MLOAD DUP1 SWAP2 SUB SWAP1 REVERT JUMPDEST POP POP JUMPDEST PUSH1 0x3 PUSH1 0x0 SWAP1 SLOAD SWAP1 PUSH2 0x100 EXP SWAP1 DIV PUSH20 0xFFFFFFFFFFFFFFFFFFFFFFFFFFFFFFFFFFFFFFFF AND PUSH20 0xFFFFFFFFFFFFFFFFFFFFFFFFFFFFFFFFFFFFFFFF AND PUSH4 0xA23F0199 PUSH1 0x40 MLOAD DUP1 PUSH1 0x40 ADD PUSH1 0x40 MSTORE DUP1 DUP9 PUSH1 0xA0 ADD PUSH1 0x0 PUSH1 0x8 DUP2 LT PUSH2 0xD25 JUMPI PUSH2 0xD24 PUSH2 0x378E JUMP JUMPDEST JUMPDEST PUSH1 0x20 MUL ADD CALLDATALOAD DUP2 MSTORE PUSH1 0x20 ADD DUP9 PUSH1 0xA0 ADD PUSH1 0x1 PUSH1 0x8 DUP2 LT PUSH2 0xD46 JUMPI PUSH2 0xD45 PUSH2 0x378E JUMP JUMPDEST JUMPDEST PUSH1 0x20 MUL ADD CALLDATALOAD DUP2 MSTORE POP PUSH1 0x40 MLOAD DUP1 PUSH1 0x40 ADD PUSH1 0x40 MSTORE DUP1 PUSH1 0x40 MLOAD DUP1 PUSH1 0x40 ADD PUSH1 0x40 MSTORE DUP1 DUP12 PUSH1 0xA0 ADD PUSH1 0x2 PUSH1 0x8 DUP2 LT PUSH2 0xD7B JUMPI PUSH2 0xD7A PUSH2 0x378E JUMP JUMPDEST JUMPDEST PUSH1 0x20 MUL ADD CALLDATALOAD DUP2 MSTORE PUSH1 0x20 ADD DUP12 PUSH1 0xA0 ADD PUSH1 0x3 PUSH1 0x8 DUP2 LT PUSH2 0xD9C JUMPI PUSH2 0xD9B PUSH2 0x378E JUMP JUMPDEST JUMPDEST PUSH1 0x20 MUL ADD CALLDATALOAD DUP2 MSTORE POP DUP2 MSTORE PUSH1 0x20 ADD PUSH1 0x40 MLOAD DUP1 PUSH1 0x40 ADD PUSH1 0x40 MSTORE DUP1 DUP12 PUSH1 0xA0 ADD PUSH1 0x4 PUSH1 0x8 DUP2 LT PUSH2 0xDCB JUMPI PUSH2 0xDCA PUSH2 0x378E JUMP JUMPDEST JUMPDEST PUSH1 0x20 MUL ADD CALLDATALOAD DUP2 MSTORE PUSH1 0x20 ADD DUP12 PUSH1 0xA0 ADD PUSH1 0x5 PUSH1 0x8 DUP2 LT PUSH2 0xDEC JUMPI PUSH2 0xDEB PUSH2 0x378E JUMP JUMPDEST JUMPDEST PUSH1 0x20 MUL ADD CALLDATALOAD DUP2 MSTORE POP DUP2 MSTORE POP PUSH1 0x40 MLOAD DUP1 PUSH1 0x40 ADD PUSH1 0x40 MSTORE DUP1 DUP11 PUSH1 0xA0 ADD PUSH1 0x6 PUSH1 0x8 DUP2 LT PUSH2 0xE19 JUMPI PUSH2 0xE18 PUSH2 0x378E JUMP JUMPDEST JUMPDEST PUSH1 0x20 MUL ADD CALLDATALOAD DUP2 MSTORE PUSH1 0x20 ADD DUP11 PUSH1 0xA0 ADD PUSH1 0x7 PUSH1 0x8 DUP2 LT PUSH2 0xE3A JUMPI PUSH2 0xE39 PUSH2 0x378E JUMP JUMPDEST JUMPDEST PUSH1 0x20 MUL ADD CALLDATALOAD DUP2 MSTORE POP PUSH1 0x40 MLOAD DUP1 PUSH1 0x80 ADD PUSH1 0x40 MSTORE DUP1 DUP12 PUSH1 0x20 ADD CALLDATALOAD DUP2 MSTORE PUSH1 0x20 ADD DUP12 PUSH1 0x40 ADD CALLDATALOAD DUP2 MSTORE PUSH1 0x20 ADD PUSH2 0xE6E DUP13 PUSH1 0x60 ADD CALLDATALOAD PUSH2 0x1C67 JUMP JUMPDEST DUP2 MSTORE PUSH1 0x20 ADD PUSH2 0xE80 DUP13 PUSH1 0x80 ADD CALLDATALOAD PUSH2 0x1C67 JUMP JUMPDEST DUP2 MSTORE POP DUP11 PUSH1 0x0 ADD CALLDATALOAD PUSH1 0x40 MLOAD DUP7 PUSH4 0xFFFFFFFF AND PUSH1 0xE0 SHL DUP2 MSTORE PUSH1 0x4 ADD PUSH2 0xEA8 SWAP6 SWAP5 SWAP4 SWAP3 SWAP2 SWAP1 PUSH2 0x39EA JUMP JUMPDEST PUSH1 0x20 PUSH1 0x40 MLOAD DUP1 DUP4 SUB DUP2 DUP7 GAS STATICCALL ISZERO DUP1 ISZERO PUSH2 0xEC5 JUMPI RETURNDATASIZE PUSH1 0x0 DUP1 RETURNDATACOPY RETURNDATASIZE PUSH1 0x0 REVERT JUMPDEST POP POP POP POP PUSH1 0x40 MLOAD RETURNDATASIZE PUSH1 0x1F NOT PUSH1 0x1F DUP3 ADD AND DUP3 ADD DUP1 PUSH1 0x40 MSTORE POP DUP2 ADD SWAP1 PUSH2 0xEE9 SWAP2 SWAP1 PUSH2 0x3A6C JUMP JUMPDEST SWAP4 POP POP POP POP SWAP3 SWAP2 POP POP JUMP JUMPDEST PUSH1 0x0 PUSH1 0x5 PUSH1 0x0 DUP4 DUP2 MSTORE PUSH1 0x20 ADD SWAP1 DUP2 MSTORE PUSH1 0x20 ADD PUSH1 0x0 KECCAK256 PUSH1 0x1 ADD SLOAD SWAP1 POP SWAP2 SWAP1 POP JUMP JUMPDEST PUSH2 0xF1E DUP3 DUP3 PUSH2 0x1C9E JUMP JUMPDEST POP POP JUMP JUMPDEST PUSH1 0x0 PUSH1 0x7 PUSH1 0x0 DUP2 SLOAD DUP1 SWAP3 SWAP2 SWAP1 PUSH2 0xF37 SWAP1 PUSH2 0x35F5 JUMP JUMPDEST SWAP2 SWAP1 POP SSTORE SWAP1 POP PUSH2 0xF47 DUP2 CALLER PUSH2 0x192B JUMP JUMPDEST PUSH2 0xE10 PUSH1 0x5 PUSH1 0x0 DUP4 DUP2 MSTORE PUSH1 0x20 ADD SWAP1 DUP2 MSTORE PUSH1 0x20 ADD PUSH1 0x0 KECCAK256 PUSH1 0x0 ADD DUP2 SWAP1 SSTORE POP SWAP1 JUMP JUMPDEST PUSH1 0x0 PUSH1 0x7 PUSH1 0x0 DUP2 SLOAD DUP1 SWAP3 SWAP2 SWAP1 PUSH2 0xF7C SWAP1 PUSH2 0x35F5 JUMP JUMPDEST SWAP2 SWAP1 POP SSTORE SWAP1 POP PUSH2 0xF8C DUP2 DUP4 PUSH2 0x192B JUMP JUMPDEST PUSH2 0xE10 PUSH1 0x5 PUSH1 0x0 DUP4 DUP2 MSTORE PUSH1 0x20 ADD SWAP1 DUP2 MSTORE PUSH1 0x20 ADD PUSH1 0x0 KECCAK256 PUSH1 0x0 ADD DUP2 SWAP1 SSTORE POP SWAP2 SWAP1 POP JUMP JUMPDEST PUSH1 0x0 DUP1 PUSH1 0x0 DUP4 DUP2 MSTORE PUSH1 0x20 ADD SWAP1 DUP2 MSTORE PUSH1 0x20 ADD PUSH1 0x0 KECCAK256 PUSH1 0x1 ADD SLOAD SWAP1 POP SWAP2 SWAP1 POP JUMP JUMPDEST DUP1 PUSH2 0x120 ADD CALLDATALOAD CALLVALUE LT ISZERO PUSH2 0x1015 JUMPI PUSH1 0x40 MLOAD PUSH32 0x8C379A000000000000000000000000000000000000000000000000000000000 DUP2 MSTORE PUSH1 0x4 ADD PUSH2 0x100C SWAP1 PUSH2 0x3B0B JUMP JUMPDEST PUSH1 0x40 MLOAD DUP1 SWAP2 SUB SWAP1 REVERT JUMPDEST PUSH2 0x1035 DUP2 PUSH1 0x0 ADD DUP3 PUSH1 0x40 ADD DUP4 PUSH1 0xC0 ADD DUP5 PUSH2 0x100 ADD CALLDATALOAD DUP6 PUSH2 0x120 ADD CALLDATALOAD PUSH2 0x14B6 JUMP JUMPDEST PUSH2 0x1074 JUMPI PUSH1 0x40 MLOAD PUSH32 0x8C379A000000000000000000000000000000000000000000000000000000000 DUP2 MSTORE PUSH1 0x4 ADD PUSH2 0x106B SWAP1 PUSH2 0x3B77 JUMP JUMPDEST PUSH1 0x40 MLOAD DUP1 SWAP2 SUB SWAP1 REVERT JUMPDEST PUSH2 0x1084 PUSH1 0x0 DUP3 PUSH2 0x100 ADD CALLDATALOAD PUSH2 0x1819 JUMP JUMPDEST POP POP JUMP JUMPDEST PUSH1 0x0 PUSH2 0x1096 DUP6 DUP6 DUP6 DUP6 PUSH2 0x1DE9 JUMP JUMPDEST SWAP1 POP TIMESTAMP PUSH1 0x5 PUSH1 0x0 DUP8 DUP2 MSTORE PUSH1 0x20 ADD SWAP1 DUP2 MSTORE PUSH1 0x20 ADD PUSH1 0x0 KECCAK256 PUSH1 0x2 ADD PUSH1 0x0 DUP4 DUP2 MSTORE PUSH1 0x20 ADD SWAP1 DUP2 MSTORE PUSH1 0x20 ADD PUSH1 0x0 KECCAK256 DUP2 SWAP1 SSTORE POP POP POP POP POP POP JUMP JUMPDEST PUSH1 0x0 DUP1 PUSH1 0x0 DUP4 DUP2 MSTORE PUSH1 0x20 ADD SWAP1 DUP2 MSTORE PUSH1 0x20 ADD PUSH1 0x0 KECCAK256 PUSH1 0x0 ADD SLOAD SWAP1 POP SWAP2 SWAP1 POP JUMP JUMPDEST PUSH1 0x0 PUSH2 0x1110 DUP3 PUSH1 0x0 DUP1 DUP7 DUP2 MSTORE PUSH1 0x20 ADD SWAP1 DUP2 MSTORE PUSH1 0x20 ADD PUSH1 0x0 KECCAK256 PUSH2 0x1F1C SWAP1 SWAP2 SWAP1 PUSH4 0xFFFFFFFF AND JUMP JUMPDEST SWAP1 POP SWAP3 SWAP2 POP POP JUMP JUMPDEST PUSH1 0x5 PUSH1 0x20 MSTORE DUP1 PUSH1 0x0 MSTORE PUSH1 0x40 PUSH1 0x0 KECCAK256 PUSH1 0x0 SWAP2 POP SWAP1 POP DUP1 PUSH1 0x0 ADD SLOAD SWAP1 DUP1 PUSH1 0x1 ADD SLOAD SWAP1 POP DUP3 JUMP JUMPDEST PUSH1 0x0 PUSH1 0x1 PUSH1 0x0 DUP4 DUP2 MSTORE PUSH1 0x20 ADD SWAP1 DUP2 MSTORE PUSH1 0x20 ADD PUSH1 0x0 KECCAK256 PUSH1 0x0 SWAP1 SLOAD SWAP1 PUSH2 0x100 EXP SWAP1 DIV PUSH20 0xFFFFFFFFFFFFFFFFFFFFFFFFFFFFFFFFFFFFFFFF AND SWAP1 POP SWAP2 SWAP1 POP JUMP JUMPDEST PUSH1 0x4 PUSH1 0x0 SWAP1 SLOAD SWAP1 PUSH2 0x100 EXP SWAP1 DIV PUSH20 0xFFFFFFFFFFFFFFFFFFFFFFFFFFFFFFFFFFFFFFFF AND DUP2 JUMP JUMPDEST PUSH1 0x5 PUSH1 0x0 DUP1 DUP2 MSTORE PUSH1 0x20 ADD SWAP1 DUP2 MSTORE PUSH1 0x20 ADD PUSH1 0x0 KECCAK256 PUSH1 0x3 ADD PUSH1 0x0 DUP4 PUSH1 0x40 ADD CALLDATALOAD DUP2 MSTORE PUSH1 0x20 ADD SWAP1 DUP2 MSTORE PUSH1 0x20 ADD PUSH1 0x0 KECCAK256 PUSH1 0x0 SWAP1 SLOAD SWAP1 PUSH2 0x100 EXP SWAP1 DIV PUSH1 0xFF AND ISZERO PUSH2 0x120F JUMPI PUSH1 0x40 MLOAD PUSH32 0x208B15E800000000000000000000000000000000000000000000000000000000 DUP2 MSTORE PUSH1 0x4 ADD PUSH1 0x40 MLOAD DUP1 SWAP2 SUB SWAP1 REVERT JUMPDEST PUSH2 0x1219 DUP2 DUP4 PUSH2 0xAA9 JUMP JUMPDEST PUSH2 0x124F JUMPI PUSH1 0x40 MLOAD PUSH32 0x4AA6BC4000000000000000000000000000000000000000000000000000000000 DUP2 MSTORE PUSH1 0x4 ADD PUSH1 0x40 MLOAD DUP1 SWAP2 SUB SWAP1 REVERT JUMPDEST PUSH1 0x1 PUSH1 0x5 PUSH1 0x0 DUP1 DUP2 MSTORE PUSH1 0x20 ADD SWAP1 DUP2 MSTORE PUSH1 0x20 ADD PUSH1 0x0 KECCAK256 PUSH1 0x3 ADD PUSH1 0x0 DUP5 PUSH1 0x40 ADD CALLDATALOAD DUP2 MSTORE PUSH1 0x20 ADD SWAP1 DUP2 MSTORE PUSH1 0x20 ADD PUSH1 0x0 KECCAK256 PUSH1 0x0 PUSH2 0x100 EXP DUP2 SLOAD DUP2 PUSH1 0xFF MUL NOT AND SWAP1 DUP4 ISZERO ISZERO MUL OR SWAP1 SSTORE POP DUP2 PUSH1 0x60 ADD CALLDATALOAD PUSH1 0x5 PUSH1 0x0 DUP4 DUP2 MSTORE PUSH1 0x20 ADD SWAP1 DUP2 MSTORE PUSH1 0x20 ADD PUSH1 0x0 KECCAK256 PUSH1 0x1 ADD PUSH1 0x0 DUP3 DUP3 SLOAD PUSH2 0x12BD SWAP2 SWAP1 PUSH2 0x375A JUMP JUMPDEST SWAP3 POP POP DUP2 SWAP1 SSTORE POP POP POP JUMP JUMPDEST PUSH1 0x5 PUSH1 0x0 DUP4 DUP2 MSTORE PUSH1 0x20 ADD SWAP1 DUP2 MSTORE PUSH1 0x20 ADD PUSH1 0x0 KECCAK256 PUSH1 0x3 ADD PUSH1 0x0 DUP3 PUSH1 0x40 ADD CALLDATALOAD DUP2 MSTORE PUSH1 0x20 ADD SWAP1 DUP2 MSTORE PUSH1 0x20 ADD PUSH1 0x0 KECCAK256 PUSH1 0x0 SWAP1 SLOAD SWAP1 PUSH2 0x100 EXP SWAP1 DIV PUSH1 0xFF AND ISZERO PUSH2 0x1338 JUMPI PUSH1 0x40 MLOAD PUSH32 0x208B15E800000000000000000000000000000000000000000000000000000000 DUP2 MSTORE PUSH1 0x4 ADD PUSH1 0x40 MLOAD DUP1 SWAP2 SUB SWAP1 REVERT JUMPDEST DUP1 PUSH1 0x60 ADD CALLDATALOAD CALLVALUE GT PUSH2 0x1375 JUMPI PUSH1 0x40 MLOAD PUSH32 0x2112FC6700000000000000000000000000000000000000000000000000000000 DUP2 MSTORE PUSH1 0x4 ADD PUSH1 0x40 MLOAD DUP1 SWAP2 SUB SWAP1 REVERT JUMPDEST PUSH2 0x137F DUP3 DUP3 PUSH2 0xAA9 JUMP JUMPDEST PUSH2 0x13B5 JUMPI PUSH1 0x40 MLOAD PUSH32 0x4AA6BC4000000000000000000000000000000000000000000000000000000000 DUP2 MSTORE PUSH1 0x4 ADD PUSH1 0x40 MLOAD DUP1 SWAP2 SUB SWAP1 REVERT JUMPDEST PUSH1 0x1 PUSH1 0x5 PUSH1 0x0 DUP5 DUP2 MSTORE PUSH1 0x20 ADD SWAP1 DUP2 MSTORE PUSH1 0x20 ADD PUSH1 0x0 KECCAK256 PUSH1 0x3 ADD PUSH1 0x0 DUP4 PUSH1 0x40 ADD CALLDATALOAD DUP2 MSTORE PUSH1 0x20 ADD SWAP1 DUP2 MSTORE PUSH1 0x20 ADD PUSH1 0x0 KECCAK256 PUSH1 0x0 PUSH2 0x100 EXP DUP2 SLOAD DUP2 PUSH1 0xFF MUL NOT AND SWAP1 DUP4 ISZERO ISZERO MUL OR SWAP1 SSTORE POP CALLVALUE PUSH1 0x5 PUSH1 0x0 DUP5 DUP2 MSTORE PUSH1 0x20 ADD SWAP1 DUP2 MSTORE PUSH1 0x20 ADD PUSH1 0x0 KECCAK256 PUSH1 0x1 ADD PUSH1 0x0 DUP3 DUP3 SLOAD PUSH2 0x141F SWAP2 SWAP1 PUSH2 0x375A JUMP JUMPDEST SWAP3 POP POP DUP2 SWAP1 SSTORE POP DUP1 PUSH1 0x80 ADD CALLDATALOAD DUP2 PUSH1 0x20 ADD CALLDATALOAD DUP4 PUSH32 0xC32E14CFE81A05D371C248D22DE6B7AE849E981B76A1F8842E7B6DA73FC405A DUP5 PUSH1 0x0 ADD CALLDATALOAD DUP6 PUSH1 0x40 ADD CALLDATALOAD DUP7 PUSH1 0x60 ADD CALLDATALOAD DUP8 PUSH1 0xA0 ADD PUSH1 0x40 MLOAD PUSH2 0x1475 SWAP5 SWAP4 SWAP3 SWAP2 SWAP1 PUSH2 0x3BB1 JUMP JUMPDEST PUSH1 0x40 MLOAD DUP1 SWAP2 SUB SWAP1 LOG4 POP POP JUMP JUMPDEST PUSH1 0x7 SLOAD DUP2 JUMP JUMPDEST PUSH2 0x1490 DUP2 PUSH2 0x1F3F JUMP JUMPDEST POP JUMP JUMPDEST PUSH1 0x0 PUSH2 0x14AF PUSH1 0x0 DUP1 DUP5 DUP2 MSTORE PUSH1 0x20 ADD SWAP1 DUP2 MSTORE PUSH1 0x20 ADD PUSH1 0x0 KECCAK256 PUSH2 0x20F6 JUMP JUMPDEST SWAP1 POP SWAP2 SWAP1 POP JUMP JUMPDEST PUSH1 0x0 PUSH1 0x4 PUSH1 0x0 SWAP1 SLOAD SWAP1 PUSH2 0x100 EXP SWAP1 DIV PUSH20 0xFFFFFFFFFFFFFFFFFFFFFFFFFFFFFFFFFFFFFFFF AND PUSH20 0xFFFFFFFFFFFFFFFFFFFFFFFFFFFFFFFFFFFFFFFF AND PUSH4 0xF5C9D69E DUP8 DUP8 DUP8 PUSH1 0x40 MLOAD DUP1 PUSH1 0x40 ADD PUSH1 0x40 MSTORE DUP1 DUP10 DUP2 MSTORE PUSH1 0x20 ADD DUP9 DUP2 MSTORE POP PUSH1 0x40 MLOAD DUP6 PUSH4 0xFFFFFFFF AND PUSH1 0xE0 SHL DUP2 MSTORE PUSH1 0x4 ADD PUSH2 0x152D SWAP5 SWAP4 SWAP3 SWAP2 SWAP1 PUSH2 0x3CBB JUMP JUMPDEST PUSH1 0x20 PUSH1 0x40 MLOAD DUP1 DUP4 SUB DUP2 DUP7 GAS STATICCALL ISZERO DUP1 ISZERO PUSH2 0x154A JUMPI RETURNDATASIZE PUSH1 0x0 DUP1 RETURNDATACOPY RETURNDATASIZE PUSH1 0x0 REVERT JUMPDEST POP POP POP POP PUSH1 0x40 MLOAD RETURNDATASIZE PUSH1 0x1F NOT PUSH1 0x1F DUP3 ADD AND DUP3 ADD DUP1 PUSH1 0x40 MSTORE POP DUP2 ADD SWAP1 PUSH2 0x156E SWAP2 SWAP1 PUSH2 0x3A6C JUMP JUMPDEST SWAP1 POP SWAP6 SWAP5 POP POP POP POP POP JUMP JUMPDEST DUP2 CALLER PUSH20 0xFFFFFFFFFFFFFFFFFFFFFFFFFFFFFFFFFFFFFFFF AND PUSH1 0x1 PUSH1 0x0 DUP4 DUP2 MSTORE PUSH1 0x20 ADD SWAP1 DUP2 MSTORE PUSH1 0x20 ADD PUSH1 0x0 KECCAK256 PUSH1 0x0 SWAP1 SLOAD SWAP1 PUSH2 0x100 EXP SWAP1 DIV PUSH20 0xFFFFFFFFFFFFFFFFFFFFFFFFFFFFFFFFFFFFFFFF AND PUSH20 0xFFFFFFFFFFFFFFFFFFFFFFFFFFFFFFFFFFFFFFFF AND EQ PUSH2 0x1612 JUMPI PUSH1 0x40 MLOAD PUSH32 0xBB9BF27800000000000000000000000000000000000000000000000000000000 DUP2 MSTORE PUSH1 0x4 ADD PUSH1 0x40 MLOAD DUP1 SWAP2 SUB SWAP1 REVERT JUMPDEST PUSH1 0x0 PUSH1 0x5 PUSH1 0x0 DUP6 DUP2 MSTORE PUSH1 0x20 ADD SWAP1 DUP2 MSTORE PUSH1 0x20 ADD PUSH1 0x0 KECCAK256 PUSH1 0x0 ADD SLOAD SWAP1 POP DUP3 PUSH1 0x5 PUSH1 0x0 DUP7 DUP2 MSTORE PUSH1 0x20 ADD SWAP1 DUP2 MSTORE PUSH1 0x20 ADD PUSH1 0x0 KECCAK256 PUSH1 0x0 ADD DUP2 SWAP1 SSTORE POP DUP4 PUSH32 0x264B2A8F6763C084235FE832BA903482B2EF1A521336881FC75B987C2DFD29C5 DUP3 DUP6 PUSH1 0x40 MLOAD PUSH2 0x167A SWAP3 SWAP2 SWAP1 PUSH2 0x3433 JUMP JUMPDEST PUSH1 0x40 MLOAD DUP1 SWAP2 SUB SWAP1 LOG2 POP POP POP POP JUMP JUMPDEST PUSH1 0x0 DUP4 CALLER PUSH20 0xFFFFFFFFFFFFFFFFFFFFFFFFFFFFFFFFFFFFFFFF AND PUSH1 0x1 PUSH1 0x0 DUP4 DUP2 MSTORE PUSH1 0x20 ADD SWAP1 DUP2 MSTORE PUSH1 0x20 ADD PUSH1 0x0 KECCAK256 PUSH1 0x0 SWAP1 SLOAD SWAP1 PUSH2 0x100 EXP SWAP1 DIV PUSH20 0xFFFFFFFFFFFFFFFFFFFFFFFFFFFFFFFFFFFFFFFF AND PUSH20 0xFFFFFFFFFFFFFFFFFFFFFFFFFFFFFFFFFFFFFFFF AND EQ PUSH2 0x1723 JUMPI PUSH1 0x40 MLOAD PUSH32 0xBB9BF27800000000000000000000000000000000000000000000000000000000 DUP2 MSTORE PUSH1 0x4 ADD PUSH1 0x40 MLOAD DUP1 SWAP2 SUB SWAP1 REVERT JUMPDEST PUSH1 0x0 PUSH2 0x172E DUP7 PUSH2 0x10CB JUMP JUMPDEST SWAP1 POP PUSH2 0x1756 DUP6 DUP6 PUSH1 0x0 DUP1 DUP11 DUP2 MSTORE PUSH1 0x20 ADD SWAP1 DUP2 MSTORE PUSH1 0x20 ADD PUSH1 0x0 KECCAK256 PUSH2 0x2119 SWAP1 SWAP3 SWAP2 SWAP1 PUSH4 0xFFFFFFFF AND JUMP JUMPDEST SWAP3 POP DUP6 PUSH32 0x61E5E8054E3DAF084A0C6C646C065E8BF5E7CA4D5567BDA942309BD1652F349D DUP3 DUP8 DUP8 DUP8 PUSH1 0x40 MLOAD PUSH2 0x178E SWAP5 SWAP4 SWAP3 SWAP2 SWAP1 PUSH2 0x3D74 JUMP JUMPDEST PUSH1 0x40 MLOAD DUP1 SWAP2 SUB SWAP1 LOG2 POP POP SWAP4 SWAP3 POP POP POP JUMP JUMPDEST PUSH1 0x0 DUP1 DUP4 PUSH1 0x3 ADD PUSH1 0x0 DUP5 DUP2 MSTORE PUSH1 0x20 ADD SWAP1 DUP2 MSTORE PUSH1 0x20 ADD PUSH1 0x0 KECCAK256 SLOAD SUB PUSH2 0x17EF JUMPI PUSH1 0x40 MLOAD PUSH32 0x7204756C00000000000000000000000000000000000000000000000000000000 DUP2 MSTORE PUSH1 0x4 ADD PUSH1 0x40 MLOAD DUP1 SWAP2 SUB SWAP1 REVERT JUMPDEST PUSH1 0x1 DUP4 PUSH1 0x3 ADD PUSH1 0x0 DUP5 DUP2 MSTORE PUSH1 0x20 ADD SWAP1 DUP2 MSTORE PUSH1 0x20 ADD PUSH1 0x0 KECCAK256 SLOAD PUSH2 0x1811 SWAP2 SWAP1 PUSH2 0x3726 JUMP JUMPDEST SWAP1 POP SWAP3 SWAP2 POP POP JUMP JUMPDEST PUSH1 0x0 DUP3 CALLER PUSH20 0xFFFFFFFFFFFFFFFFFFFFFFFFFFFFFFFFFFFFFFFF AND PUSH1 0x1 PUSH1 0x0 DUP4 DUP2 MSTORE PUSH1 0x20 ADD SWAP1 DUP2 MSTORE PUSH1 0x20 ADD PUSH1 0x0 KECCAK256 PUSH1 0x0 SWAP1 SLOAD SWAP1 PUSH2 0x100 EXP SWAP1 DIV PUSH20 0xFFFFFFFFFFFFFFFFFFFFFFFFFFFFFFFFFFFFFFFF AND PUSH20 0xFFFFFFFFFFFFFFFFFFFFFFFFFFFFFFFFFFFFFFFF AND EQ PUSH2 0x18B4 JUMPI PUSH1 0x40 MLOAD PUSH32 0xBB9BF27800000000000000000000000000000000000000000000000000000000 DUP2 MSTORE PUSH1 0x4 ADD PUSH1 0x40 MLOAD DUP1 SWAP2 SUB SWAP1 REVERT JUMPDEST PUSH1 0x0 PUSH2 0x18BF DUP6 PUSH2 0x10CB JUMP JUMPDEST SWAP1 POP PUSH2 0x18E5 DUP5 PUSH1 0x0 DUP1 DUP9 DUP2 MSTORE PUSH1 0x20 ADD SWAP1 DUP2 MSTORE PUSH1 0x20 ADD PUSH1 0x0 KECCAK256 PUSH2 0x26FD SWAP1 SWAP2 SWAP1 PUSH4 0xFFFFFFFF AND JUMP JUMPDEST SWAP3 POP DUP5 PUSH32 0x19239B3F93CD10558AAF11423AF70C77763BF54F52BCC75BFA74D4D13548CDE9 DUP3 DUP7 DUP7 PUSH1 0x40 MLOAD PUSH2 0x191B SWAP4 SWAP3 SWAP2 SWAP1 PUSH2 0x3DB4 JUMP JUMPDEST PUSH1 0x40 MLOAD DUP1 SWAP2 SUB SWAP1 LOG2 POP POP SWAP3 SWAP2 POP POP JUMP JUMPDEST DUP1 PUSH1 0x1 PUSH1 0x0 DUP5 DUP2 MSTORE PUSH1 0x20 ADD SWAP1 DUP2 MSTORE PUSH1 0x20 ADD PUSH1 0x0 KECCAK256 PUSH1 0x0 PUSH2 0x100 EXP DUP2 SLOAD DUP2 PUSH20 0xFFFFFFFFFFFFFFFFFFFFFFFFFFFFFFFFFFFFFFFF MUL NOT AND SWAP1 DUP4 PUSH20 0xFFFFFFFFFFFFFFFFFFFFFFFFFFFFFFFFFFFFFFFF AND MUL OR SWAP1 SSTORE POP DUP2 PUSH32 0xF0ADFB94EAB6DAF835DEB69C5738FE636150C3DFD08094A76F39B963DC8CB05A PUSH1 0x40 MLOAD PUSH1 0x40 MLOAD DUP1 SWAP2 SUB SWAP1 LOG2 DUP1 PUSH20 0xFFFFFFFFFFFFFFFFFFFFFFFFFFFFFFFFFFFFFFFF AND PUSH1 0x0 PUSH20 0xFFFFFFFFFFFFFFFFFFFFFFFFFFFFFFFFFFFFFFFF AND DUP4 PUSH32 0xBA83579A0E79193EF649B9F5A8759D35AF086BA62A3E207B52E4A8AE30D49E3 PUSH1 0x40 MLOAD PUSH1 0x40 MLOAD DUP1 SWAP2 SUB SWAP1 LOG4 POP POP JUMP JUMPDEST PUSH1 0x0 DUP3 CALLER PUSH20 0xFFFFFFFFFFFFFFFFFFFFFFFFFFFFFFFFFFFFFFFF AND PUSH1 0x1 PUSH1 0x0 DUP4 DUP2 MSTORE PUSH1 0x20 ADD SWAP1 DUP2 MSTORE PUSH1 0x20 ADD PUSH1 0x0 KECCAK256 PUSH1 0x0 SWAP1 SLOAD SWAP1 PUSH2 0x100 EXP SWAP1 DIV PUSH20 0xFFFFFFFFFFFFFFFFFFFFFFFFFFFFFFFFFFFFFFFF AND PUSH20 0xFFFFFFFFFFFFFFFFFFFFFFFFFFFFFFFFFFFFFFFF AND EQ PUSH2 0x1AA5 JUMPI PUSH1 0x40 MLOAD PUSH32 0xBB9BF27800000000000000000000000000000000000000000000000000000000 DUP2 MSTORE PUSH1 0x4 ADD PUSH1 0x40 MLOAD DUP1 SWAP2 SUB SWAP1 REVERT JUMPDEST PUSH1 0x0 PUSH1 0x1 PUSH1 0x0 DUP7 DUP2 MSTORE PUSH1 0x20 ADD SWAP1 DUP2 MSTORE PUSH1 0x20 ADD PUSH1 0x0 KECCAK256 PUSH1 0x0 SWAP1 SLOAD SWAP1 PUSH2 0x100 EXP SWAP1 DIV PUSH20 0xFFFFFFFFFFFFFFFFFFFFFFFFFFFFFFFFFFFFFFFF AND SWAP1 POP DUP1 PUSH20 0xFFFFFFFFFFFFFFFFFFFFFFFFFFFFFFFFFFFFFFFF AND PUSH2 0x8FC DUP6 SWAP1 DUP2 ISZERO MUL SWAP1 PUSH1 0x40 MLOAD PUSH1 0x0 PUSH1 0x40 MLOAD DUP1 DUP4 SUB DUP2 DUP6 DUP9 DUP9 CALL SWAP4 POP POP POP POP ISZERO DUP1 ISZERO PUSH2 0x1B23 JUMPI RETURNDATASIZE PUSH1 0x0 DUP1 RETURNDATACOPY RETURNDATASIZE PUSH1 0x0 REVERT JUMPDEST POP DUP4 SWAP3 POP POP POP SWAP3 SWAP2 POP POP JUMP JUMPDEST PUSH1 0x0 DUP6 CALLER PUSH20 0xFFFFFFFFFFFFFFFFFFFFFFFFFFFFFFFFFFFFFFFF AND PUSH1 0x1 PUSH1 0x0 DUP4 DUP2 MSTORE PUSH1 0x20 ADD SWAP1 DUP2 MSTORE PUSH1 0x20 ADD PUSH1 0x0 KECCAK256 PUSH1 0x0 SWAP1 SLOAD SWAP1 PUSH2 0x100 EXP SWAP1 DIV PUSH20 0xFFFFFFFFFFFFFFFFFFFFFFFFFFFFFFFFFFFFFFFF AND PUSH20 0xFFFFFFFFFFFFFFFFFFFFFFFFFFFFFFFFFFFFFFFF AND EQ PUSH2 0x1BCA JUMPI PUSH1 0x40 MLOAD PUSH32 0xBB9BF27800000000000000000000000000000000000000000000000000000000 DUP2 MSTORE PUSH1 0x4 ADD PUSH1 0x40 MLOAD DUP1 SWAP2 SUB SWAP1 REVERT JUMPDEST PUSH1 0x0 PUSH2 0x1BF0 DUP8 PUSH1 0x0 DUP1 DUP12 DUP2 MSTORE PUSH1 0x20 ADD SWAP1 DUP2 MSTORE PUSH1 0x20 ADD PUSH1 0x0 KECCAK256 PUSH2 0x179F SWAP1 SWAP2 SWAP1 PUSH4 0xFFFFFFFF AND JUMP JUMPDEST SWAP1 POP PUSH2 0x1C1C DUP8 DUP8 DUP8 DUP8 PUSH1 0x0 DUP1 DUP15 DUP2 MSTORE PUSH1 0x20 ADD SWAP1 DUP2 MSTORE PUSH1 0x20 ADD PUSH1 0x0 KECCAK256 PUSH2 0x295C SWAP1 SWAP5 SWAP4 SWAP3 SWAP2 SWAP1 PUSH4 0xFFFFFFFF AND JUMP JUMPDEST SWAP3 POP DUP8 PUSH32 0xEA3588E4A2A0C93D6A0E69DFEAF7496F43CCCCF02AD9CE0A5B7627CBCA4B61B1 DUP3 DUP10 DUP10 DUP8 PUSH1 0x40 MLOAD PUSH2 0x1C54 SWAP5 SWAP4 SWAP3 SWAP2 SWAP1 PUSH2 0x3DEB JUMP JUMPDEST PUSH1 0x40 MLOAD DUP1 SWAP2 SUB SWAP1 LOG2 POP POP SWAP6 SWAP5 POP POP POP POP POP JUMP JUMPDEST PUSH1 0x0 PUSH1 0x8 DUP3 PUSH1 0x40 MLOAD PUSH1 0x20 ADD PUSH2 0x1C7C SWAP2 SWAP1 PUSH2 0x3E51 JUMP JUMPDEST PUSH1 0x40 MLOAD PUSH1 0x20 DUP2 DUP4 SUB SUB DUP2 MSTORE SWAP1 PUSH1 0x40 MSTORE DUP1 MLOAD SWAP1 PUSH1 0x20 ADD KECCAK256 PUSH1 0x0 SHR SWAP1 SHR SWAP1 POP SWAP2 SWAP1 POP JUMP JUMPDEST DUP2 CALLER PUSH20 0xFFFFFFFFFFFFFFFFFFFFFFFFFFFFFFFFFFFFFFFF AND PUSH1 0x1 PUSH1 0x0 DUP4 DUP2 MSTORE PUSH1 0x20 ADD SWAP1 DUP2 MSTORE PUSH1 0x20 ADD PUSH1 0x0 KECCAK256 PUSH1 0x0 SWAP1 SLOAD SWAP1 PUSH2 0x100 EXP SWAP1 DIV PUSH20 0xFFFFFFFFFFFFFFFFFFFFFFFFFFFFFFFFFFFFFFFF AND PUSH20 0xFFFFFFFFFFFFFFFFFFFFFFFFFFFFFFFFFFFFFFFF AND EQ PUSH2 0x1D37 JUMPI PUSH1 0x40 MLOAD PUSH32 0xBB9BF27800000000000000000000000000000000000000000000000000000000 DUP2 MSTORE PUSH1 0x4 ADD PUSH1 0x40 MLOAD DUP1 SWAP2 SUB SWAP1 REVERT JUMPDEST DUP2 PUSH1 0x2 PUSH1 0x0 DUP6 DUP2 MSTORE PUSH1 0x20 ADD SWAP1 DUP2 MSTORE PUSH1 0x20 ADD PUSH1 0x0 KECCAK256 PUSH1 0x0 PUSH2 0x100 EXP DUP2 SLOAD DUP2 PUSH20 0xFFFFFFFFFFFFFFFFFFFFFFFFFFFFFFFFFFFFFFFF MUL NOT AND SWAP1 DUP4 PUSH20 0xFFFFFFFFFFFFFFFFFFFFFFFFFFFFFFFFFFFFFFFF AND MUL OR SWAP1 SSTORE POP DUP2 PUSH20 0xFFFFFFFFFFFFFFFFFFFFFFFFFFFFFFFFFFFFFFFF AND CALLER PUSH20 0xFFFFFFFFFFFFFFFFFFFFFFFFFFFFFFFFFFFFFFFF AND DUP5 PUSH32 0x1018365553CCE55D9CB02EF73E18CC9311894F3FE1D1EAFD235AC2D26CD8BA58 PUSH1 0x40 MLOAD PUSH1 0x40 MLOAD DUP1 SWAP2 SUB SWAP1 LOG4 POP POP POP JUMP JUMPDEST PUSH1 0x0 DUP5 CALLER PUSH20 0xFFFFFFFFFFFFFFFFFFFFFFFFFFFFFFFFFFFFFFFF AND PUSH1 0x1 PUSH1 0x0 DUP4 DUP2 MSTORE PUSH1 0x20 ADD SWAP1 DUP2 MSTORE PUSH1 0x20 ADD PUSH1 0x0 KECCAK256 PUSH1 0x0 SWAP1 SLOAD SWAP1 PUSH2 0x100 EXP SWAP1 DIV PUSH20 0xFFFFFFFFFFFFFFFFFFFFFFFFFFFFFFFFFFFFFFFF AND PUSH20 0xFFFFFFFFFFFFFFFFFFFFFFFFFFFFFFFFFFFFFFFF AND EQ PUSH2 0x1E84 JUMPI PUSH1 0x40 MLOAD PUSH32 0xBB9BF27800000000000000000000000000000000000000000000000000000000 DUP2 MSTORE PUSH1 0x4 ADD PUSH1 0x40 MLOAD DUP1 SWAP2 SUB SWAP1 REVERT JUMPDEST PUSH1 0x0 PUSH2 0x1EAA DUP7 PUSH1 0x0 DUP1 DUP11 DUP2 MSTORE PUSH1 0x20 ADD SWAP1 DUP2 MSTORE PUSH1 0x20 ADD PUSH1 0x0 KECCAK256 PUSH2 0x179F SWAP1 SWAP2 SWAP1 PUSH4 0xFFFFFFFF AND JUMP JUMPDEST SWAP1 POP PUSH2 0x1ED4 DUP7 DUP7 DUP7 PUSH1 0x0 DUP1 DUP13 DUP2 MSTORE PUSH1 0x20 ADD SWAP1 DUP2 MSTORE PUSH1 0x20 ADD PUSH1 0x0 KECCAK256 PUSH2 0x2F12 SWAP1 SWAP4 SWAP3 SWAP2 SWAP1 PUSH4 0xFFFFFFFF AND JUMP JUMPDEST SWAP3 POP DUP7 PUSH32 0x3108849C053C77B8073A11256DFFB5FFD5B55E93E105A355E1C9061DB890D871 DUP3 DUP9 DUP7 PUSH1 0x40 MLOAD PUSH2 0x1F0A SWAP4 SWAP3 SWAP2 SWAP1 PUSH2 0x3DB4 JUMP JUMPDEST PUSH1 0x40 MLOAD DUP1 SWAP2 SUB SWAP1 LOG2 POP POP SWAP5 SWAP4 POP POP POP POP JUMP JUMPDEST PUSH1 0x0 DUP1 DUP4 PUSH1 0x3 ADD PUSH1 0x0 DUP5 DUP2 MSTORE PUSH1 0x20 ADD SWAP1 DUP2 MSTORE PUSH1 0x20 ADD PUSH1 0x0 KECCAK256 SLOAD EQ ISZERO SWAP1 POP SWAP3 SWAP2 POP POP JUMP JUMPDEST CALLER PUSH20 0xFFFFFFFFFFFFFFFFFFFFFFFFFFFFFFFFFFFFFFFF AND PUSH1 0x2 PUSH1 0x0 DUP4 DUP2 MSTORE PUSH1 0x20 ADD SWAP1 DUP2 MSTORE PUSH1 0x20 ADD PUSH1 0x0 KECCAK256 PUSH1 0x0 SWAP1 SLOAD SWAP1 PUSH2 0x100 EXP SWAP1 DIV PUSH20 0xFFFFFFFFFFFFFFFFFFFFFFFFFFFFFFFFFFFFFFFF AND PUSH20 0xFFFFFFFFFFFFFFFFFFFFFFFFFFFFFFFFFFFFFFFF AND EQ PUSH2 0x1FD7 JUMPI PUSH1 0x40 MLOAD PUSH32 0x34C4245D00000000000000000000000000000000000000000000000000000000 DUP2 MSTORE PUSH1 0x4 ADD PUSH1 0x40 MLOAD DUP1 SWAP2 SUB SWAP1 REVERT JUMPDEST PUSH1 0x0 PUSH1 0x1 PUSH1 0x0 DUP4 DUP2 MSTORE PUSH1 0x20 ADD SWAP1 DUP2 MSTORE PUSH1 0x20 ADD PUSH1 0x0 KECCAK256 PUSH1 0x0 SWAP1 SLOAD SWAP1 PUSH2 0x100 EXP SWAP1 DIV PUSH20 0xFFFFFFFFFFFFFFFFFFFFFFFFFFFFFFFFFFFFFFFF AND SWAP1 POP CALLER PUSH1 0x1 PUSH1 0x0 DUP5 DUP2 MSTORE PUSH1 0x20 ADD SWAP1 DUP2 MSTORE PUSH1 0x20 ADD PUSH1 0x0 KECCAK256 PUSH1 0x0 PUSH2 0x100 EXP DUP2 SLOAD DUP2 PUSH20 0xFFFFFFFFFFFFFFFFFFFFFFFFFFFFFFFFFFFFFFFF MUL NOT AND SWAP1 DUP4 PUSH20 0xFFFFFFFFFFFFFFFFFFFFFFFFFFFFFFFFFFFFFFFF AND MUL OR SWAP1 SSTORE POP PUSH1 0x2 PUSH1 0x0 DUP4 DUP2 MSTORE PUSH1 0x20 ADD SWAP1 DUP2 MSTORE PUSH1 0x20 ADD PUSH1 0x0 KECCAK256 PUSH1 0x0 PUSH2 0x100 EXP DUP2 SLOAD SWAP1 PUSH20 0xFFFFFFFFFFFFFFFFFFFFFFFFFFFFFFFFFFFFFFFF MUL NOT AND SWAP1 SSTORE CALLER PUSH20 0xFFFFFFFFFFFFFFFFFFFFFFFFFFFFFFFFFFFFFFFF AND DUP2 PUSH20 0xFFFFFFFFFFFFFFFFFFFFFFFFFFFFFFFFFFFFFFFF AND DUP4 PUSH32 0xBA83579A0E79193EF649B9F5A8759D35AF086BA62A3E207B52E4A8AE30D49E3 PUSH1 0x40 MLOAD PUSH1 0x40 MLOAD DUP1 SWAP2 SUB SWAP1 LOG4 POP POP JUMP JUMPDEST PUSH1 0x0 DUP2 PUSH1 0x2 ADD PUSH1 0x0 DUP4 PUSH1 0x1 ADD SLOAD DUP2 MSTORE PUSH1 0x20 ADD SWAP1 DUP2 MSTORE PUSH1 0x20 ADD PUSH1 0x0 KECCAK256 SLOAD SWAP1 POP SWAP2 SWAP1 POP JUMP JUMPDEST PUSH1 0x0 DUP1 DUP5 PUSH1 0x0 ADD SLOAD SWAP1 POP PUSH1 0x0 JUMPDEST DUP5 DUP5 SWAP1 POP DUP2 LT ISZERO PUSH2 0x22A5 JUMPI PUSH32 0x30644E72E131A029B85045B68181585D2833E84879B9709143E1F593F0000001 DUP6 DUP6 DUP4 DUP2 DUP2 LT PUSH2 0x2165 JUMPI PUSH2 0x2164 PUSH2 0x378E JUMP JUMPDEST JUMPDEST SWAP1 POP PUSH1 0x20 MUL ADD CALLDATALOAD LT PUSH2 0x21A3 JUMPI PUSH1 0x40 MLOAD PUSH32 0xC380A82E00000000000000000000000000000000000000000000000000000000 DUP2 MSTORE PUSH1 0x4 ADD PUSH1 0x40 MLOAD DUP1 SWAP2 SUB SWAP1 REVERT JUMPDEST PUSH1 0x0 DUP6 DUP6 DUP4 DUP2 DUP2 LT PUSH2 0x21B8 JUMPI PUSH2 0x21B7 PUSH2 0x378E JUMP JUMPDEST JUMPDEST SWAP1 POP PUSH1 0x20 MUL ADD CALLDATALOAD SUB PUSH2 0x21F6 JUMPI PUSH1 0x40 MLOAD PUSH32 0x29691BE200000000000000000000000000000000000000000000000000000000 DUP2 MSTORE PUSH1 0x4 ADD PUSH1 0x40 MLOAD DUP1 SWAP2 SUB SWAP1 REVERT JUMPDEST PUSH2 0x2219 DUP7 DUP7 DUP7 DUP5 DUP2 DUP2 LT PUSH2 0x220D JUMPI PUSH2 0x220C PUSH2 0x378E JUMP JUMPDEST JUMPDEST SWAP1 POP PUSH1 0x20 MUL ADD CALLDATALOAD PUSH2 0x1F1C JUMP JUMPDEST ISZERO PUSH2 0x2250 JUMPI PUSH1 0x40 MLOAD PUSH32 0x258A195A00000000000000000000000000000000000000000000000000000000 DUP2 MSTORE PUSH1 0x4 ADD PUSH1 0x40 MLOAD DUP1 SWAP2 SUB SWAP1 REVERT JUMPDEST DUP1 PUSH1 0x1 DUP4 PUSH2 0x225E SWAP2 SWAP1 PUSH2 0x375A JUMP JUMPDEST PUSH2 0x2268 SWAP2 SWAP1 PUSH2 0x375A JUMP JUMPDEST DUP7 PUSH1 0x3 ADD PUSH1 0x0 DUP8 DUP8 DUP6 DUP2 DUP2 LT PUSH2 0x2281 JUMPI PUSH2 0x2280 PUSH2 0x378E JUMP JUMPDEST JUMPDEST SWAP1 POP PUSH1 0x20 MUL ADD CALLDATALOAD DUP2 MSTORE PUSH1 0x20 ADD SWAP1 DUP2 MSTORE PUSH1 0x20 ADD PUSH1 0x0 KECCAK256 DUP2 SWAP1 SSTORE POP DUP1 PUSH1 0x1 ADD SWAP1 POP PUSH2 0x2126 JUMP JUMPDEST POP PUSH1 0x60 DUP5 DUP5 DUP1 DUP1 PUSH1 0x20 MUL PUSH1 0x20 ADD PUSH1 0x40 MLOAD SWAP1 DUP2 ADD PUSH1 0x40 MSTORE DUP1 SWAP4 SWAP3 SWAP2 SWAP1 DUP2 DUP2 MSTORE PUSH1 0x20 ADD DUP4 DUP4 PUSH1 0x20 MUL DUP1 DUP3 DUP5 CALLDATACOPY PUSH1 0x0 DUP2 DUP5 ADD MSTORE PUSH1 0x1F NOT PUSH1 0x1F DUP3 ADD AND SWAP1 POP DUP1 DUP4 ADD SWAP3 POP POP POP POP POP POP POP SWAP1 POP PUSH1 0x0 DUP7 PUSH1 0x1 ADD SLOAD SWAP1 POP JUMPDEST DUP6 DUP6 SWAP1 POP DUP4 PUSH2 0x2305 SWAP2 SWAP1 PUSH2 0x375A JUMP JUMPDEST DUP2 PUSH1 0x2 PUSH2 0x2312 SWAP2 SWAP1 PUSH2 0x3F9F JUMP JUMPDEST LT ISZERO PUSH2 0x2329 JUMPI DUP1 PUSH2 0x2322 SWAP1 PUSH2 0x35F5 JUMP JUMPDEST SWAP1 POP PUSH2 0x22F6 JUMP JUMPDEST DUP1 DUP8 PUSH1 0x1 ADD DUP2 SWAP1 SSTORE POP PUSH1 0x0 DUP4 SWAP1 POP PUSH1 0x0 DUP8 DUP8 SWAP1 POP DUP6 PUSH2 0x2348 SWAP2 SWAP1 PUSH2 0x375A JUMP JUMPDEST SWAP1 POP PUSH1 0x0 PUSH1 0x1 DUP4 SWAP1 SHR SWAP1 POP PUSH1 0x0 PUSH1 0x1 DUP1 PUSH1 0x1 DUP6 PUSH2 0x2365 SWAP2 SWAP1 PUSH2 0x3726 JUMP JUMPDEST SWAP1 SHR PUSH2 0x2371 SWAP2 SWAP1 PUSH2 0x375A JUMP JUMPDEST SWAP1 POP PUSH1 0x0 JUMPDEST DUP6 DUP2 LT ISZERO PUSH2 0x2684 JUMPI PUSH1 0x0 DUP4 DUP4 PUSH2 0x238C SWAP2 SWAP1 PUSH2 0x3726 JUMP JUMPDEST SWAP1 POP PUSH1 0x0 DUP2 PUSH8 0xFFFFFFFFFFFFFFFF DUP2 GT ISZERO PUSH2 0x23AA JUMPI PUSH2 0x23A9 PUSH2 0x3FEA JUMP JUMPDEST JUMPDEST PUSH1 0x40 MLOAD SWAP1 DUP1 DUP3 MSTORE DUP1 PUSH1 0x20 MUL PUSH1 0x20 ADD DUP3 ADD PUSH1 0x40 MSTORE DUP1 ISZERO PUSH2 0x23D8 JUMPI DUP2 PUSH1 0x20 ADD PUSH1 0x20 DUP3 MUL DUP1 CALLDATASIZE DUP4 CALLDATACOPY DUP1 DUP3 ADD SWAP2 POP POP SWAP1 POP JUMPDEST POP SWAP1 POP PUSH1 0x0 JUMPDEST DUP3 DUP2 LT ISZERO PUSH2 0x25AB JUMPI PUSH1 0x0 DUP9 PUSH1 0x2 DUP9 DUP5 PUSH2 0x23F7 SWAP2 SWAP1 PUSH2 0x375A JUMP JUMPDEST PUSH2 0x2401 SWAP2 SWAP1 PUSH2 0x4019 JUMP JUMPDEST LT ISZERO PUSH2 0x2424 JUMPI DUP16 PUSH1 0x2 ADD PUSH1 0x0 DUP7 DUP2 MSTORE PUSH1 0x20 ADD SWAP1 DUP2 MSTORE PUSH1 0x20 ADD PUSH1 0x0 KECCAK256 SLOAD SWAP1 POP PUSH2 0x2464 JUMP JUMPDEST DUP11 DUP10 PUSH1 0x2 DUP10 DUP6 PUSH2 0x2434 SWAP2 SWAP1 PUSH2 0x375A JUMP JUMPDEST PUSH2 0x243E SWAP2 SWAP1 PUSH2 0x4019 JUMP JUMPDEST PUSH2 0x2448 SWAP2 SWAP1 PUSH2 0x3726 JUMP JUMPDEST DUP2 MLOAD DUP2 LT PUSH2 0x2459 JUMPI PUSH2 0x2458 PUSH2 0x378E JUMP JUMPDEST JUMPDEST PUSH1 0x20 MUL PUSH1 0x20 ADD ADD MLOAD SWAP1 POP JUMPDEST PUSH1 0x0 DUP9 PUSH1 0x1 PUSH1 0x2 DUP11 DUP7 PUSH2 0x2477 SWAP2 SWAP1 PUSH2 0x375A JUMP JUMPDEST PUSH2 0x2481 SWAP2 SWAP1 PUSH2 0x4019 JUMP JUMPDEST PUSH2 0x248B SWAP2 SWAP1 PUSH2 0x375A JUMP JUMPDEST LT ISZERO PUSH2 0x24DD JUMPI DUP12 DUP11 PUSH1 0x1 PUSH1 0x2 DUP12 DUP8 PUSH2 0x24A3 SWAP2 SWAP1 PUSH2 0x375A JUMP JUMPDEST PUSH2 0x24AD SWAP2 SWAP1 PUSH2 0x4019 JUMP JUMPDEST PUSH2 0x24B7 SWAP2 SWAP1 PUSH2 0x375A JUMP JUMPDEST PUSH2 0x24C1 SWAP2 SWAP1 PUSH2 0x3726 JUMP JUMPDEST DUP2 MLOAD DUP2 LT PUSH2 0x24D2 JUMPI PUSH2 0x24D1 PUSH2 0x378E JUMP JUMPDEST JUMPDEST PUSH1 0x20 MUL PUSH1 0x20 ADD ADD MLOAD SWAP1 POP JUMPDEST PUSH1 0x0 DUP1 DUP3 EQ PUSH2 0x2579 JUMPI PUSH20 0x0 PUSH4 0x561558FE PUSH1 0x40 MLOAD DUP1 PUSH1 0x40 ADD PUSH1 0x40 MSTORE DUP1 DUP7 DUP2 MSTORE PUSH1 0x20 ADD DUP6 DUP2 MSTORE POP PUSH1 0x40 MLOAD DUP3 PUSH4 0xFFFFFFFF AND PUSH1 0xE0 SHL DUP2 MSTORE PUSH1 0x4 ADD PUSH2 0x2531 SWAP2 SWAP1 PUSH2 0x40E4 JUMP JUMPDEST PUSH1 0x20 PUSH1 0x40 MLOAD DUP1 DUP4 SUB DUP2 DUP7 GAS DELEGATECALL ISZERO DUP1 ISZERO PUSH2 0x254E JUMPI RETURNDATASIZE PUSH1 0x0 DUP1 RETURNDATACOPY RETURNDATASIZE PUSH1 0x0 REVERT JUMPDEST POP POP POP POP PUSH1 0x40 MLOAD RETURNDATASIZE PUSH1 0x1F NOT PUSH1 0x1F DUP3 ADD AND DUP3 ADD DUP1 PUSH1 0x40 MSTORE POP DUP2 ADD SWAP1 PUSH2 0x2572 SWAP2 SWAP1 PUSH2 0x4114 JUMP JUMPDEST SWAP1 POP PUSH2 0x257D JUMP JUMPDEST DUP3 SWAP1 POP JUMPDEST DUP1 DUP6 DUP6 DUP2 MLOAD DUP2 LT PUSH2 0x2591 JUMPI PUSH2 0x2590 PUSH2 0x378E JUMP JUMPDEST JUMPDEST PUSH1 0x20 MUL PUSH1 0x20 ADD ADD DUP2 DUP2 MSTORE POP POP DUP4 PUSH1 0x1 ADD SWAP4 POP POP POP POP PUSH2 0x23DE JUMP JUMPDEST POP PUSH1 0x1 DUP1 DUP8 AND SUB PUSH2 0x25FC JUMPI DUP9 PUSH1 0x1 DUP11 MLOAD PUSH2 0x25C5 SWAP2 SWAP1 PUSH2 0x3726 JUMP JUMPDEST DUP2 MLOAD DUP2 LT PUSH2 0x25D6 JUMPI PUSH2 0x25D5 PUSH2 0x378E JUMP JUMPDEST JUMPDEST PUSH1 0x20 MUL PUSH1 0x20 ADD ADD MLOAD DUP15 PUSH1 0x2 ADD PUSH1 0x0 DUP6 DUP2 MSTORE PUSH1 0x20 ADD SWAP1 DUP2 MSTORE PUSH1 0x20 ADD PUSH1 0x0 KECCAK256 DUP2 SWAP1 SSTORE POP PUSH2 0x2649 JUMP JUMPDEST PUSH1 0x1 DUP10 MLOAD GT ISZERO PUSH2 0x2648 JUMPI DUP9 PUSH1 0x2 DUP11 MLOAD PUSH2 0x2615 SWAP2 SWAP1 PUSH2 0x3726 JUMP JUMPDEST DUP2 MLOAD DUP2 LT PUSH2 0x2626 JUMPI PUSH2 0x2625 PUSH2 0x378E JUMP JUMPDEST JUMPDEST PUSH1 0x20 MUL PUSH1 0x20 ADD ADD MLOAD DUP15 PUSH1 0x2 ADD PUSH1 0x0 DUP6 DUP2 MSTORE PUSH1 0x20 ADD SWAP1 DUP2 MSTORE PUSH1 0x20 ADD PUSH1 0x0 KECCAK256 DUP2 SWAP1 SSTORE POP JUMPDEST JUMPDEST DUP5 SWAP7 POP PUSH1 0x1 DUP6 SWAP1 SHR SWAP5 POP DUP1 SWAP9 POP DUP4 SWAP6 POP PUSH1 0x1 DUP1 PUSH1 0x1 DUP7 PUSH2 0x2669 SWAP2 SWAP1 PUSH2 0x3726 JUMP JUMPDEST SWAP1 SHR PUSH2 0x2675 SWAP2 SWAP1 PUSH2 0x375A JUMP JUMPDEST SWAP4 POP DUP3 PUSH1 0x1 ADD SWAP3 POP POP POP PUSH2 0x2376 JUMP JUMPDEST POP DUP10 DUP10 SWAP1 POP DUP8 PUSH2 0x2694 SWAP2 SWAP1 PUSH2 0x375A JUMP JUMPDEST DUP12 PUSH1 0x0 ADD DUP2 SWAP1 SSTORE POP DUP6 PUSH1 0x0 DUP2 MLOAD DUP2 LT PUSH2 0x26B0 JUMPI PUSH2 0x26AF PUSH2 0x378E JUMP JUMPDEST JUMPDEST PUSH1 0x20 MUL PUSH1 0x20 ADD ADD MLOAD DUP12 PUSH1 0x2 ADD PUSH1 0x0 DUP8 DUP2 MSTORE PUSH1 0x20 ADD SWAP1 DUP2 MSTORE PUSH1 0x20 ADD PUSH1 0x0 KECCAK256 DUP2 SWAP1 SSTORE POP DUP6 PUSH1 0x0 DUP2 MLOAD DUP2 LT PUSH2 0x26E5 JUMPI PUSH2 0x26E4 PUSH2 0x378E JUMP JUMPDEST JUMPDEST PUSH1 0x20 MUL PUSH1 0x20 ADD ADD MLOAD SWAP8 POP POP POP POP POP POP POP POP SWAP4 SWAP3 POP POP POP JUMP JUMPDEST PUSH1 0x0 PUSH32 0x30644E72E131A029B85045B68181585D2833E84879B9709143E1F593F0000001 DUP3 LT PUSH2 0x2758 JUMPI PUSH1 0x40 MLOAD PUSH32 0xC380A82E00000000000000000000000000000000000000000000000000000000 DUP2 MSTORE PUSH1 0x4 ADD PUSH1 0x40 MLOAD DUP1 SWAP2 SUB SWAP1 REVERT JUMPDEST PUSH1 0x0 DUP3 SUB PUSH2 0x2792 JUMPI PUSH1 0x40 MLOAD PUSH32 0x29691BE200000000000000000000000000000000000000000000000000000000 DUP2 MSTORE PUSH1 0x4 ADD PUSH1 0x40 MLOAD DUP1 SWAP2 SUB SWAP1 REVERT JUMPDEST PUSH2 0x279C DUP4 DUP4 PUSH2 0x1F1C JUMP JUMPDEST ISZERO PUSH2 0x27D3 JUMPI PUSH1 0x40 MLOAD PUSH32 0x258A195A00000000000000000000000000000000000000000000000000000000 DUP2 MSTORE PUSH1 0x4 ADD PUSH1 0x40 MLOAD DUP1 SWAP2 SUB SWAP1 REVERT JUMPDEST PUSH1 0x0 DUP4 PUSH1 0x0 ADD SLOAD SWAP1 POP PUSH1 0x0 DUP5 PUSH1 0x1 ADD SLOAD SWAP1 POP PUSH1 0x1 DUP3 PUSH2 0x27F2 SWAP2 SWAP1 PUSH2 0x375A JUMP JUMPDEST DUP2 PUSH1 0x2 PUSH2 0x27FF SWAP2 SWAP1 PUSH2 0x3F9F JUMP JUMPDEST LT ISZERO PUSH2 0x2812 JUMPI DUP1 PUSH2 0x280F SWAP1 PUSH2 0x35F5 JUMP JUMPDEST SWAP1 POP JUMPDEST DUP1 DUP6 PUSH1 0x1 ADD DUP2 SWAP1 SSTORE POP PUSH1 0x0 DUP5 SWAP1 POP PUSH1 0x0 JUMPDEST DUP3 DUP2 LT ISZERO PUSH2 0x2906 JUMPI PUSH1 0x1 DUP1 DUP3 DUP7 SWAP1 SHR AND SUB PUSH2 0x28E0 JUMPI PUSH20 0x0 PUSH4 0x561558FE PUSH1 0x40 MLOAD DUP1 PUSH1 0x40 ADD PUSH1 0x40 MSTORE DUP1 DUP11 PUSH1 0x2 ADD PUSH1 0x0 DUP7 DUP2 MSTORE PUSH1 0x20 ADD SWAP1 DUP2 MSTORE PUSH1 0x20 ADD PUSH1 0x0 KECCAK256 SLOAD DUP2 MSTORE PUSH1 0x20 ADD DUP6 DUP2 MSTORE POP PUSH1 0x40 MLOAD DUP3 PUSH4 0xFFFFFFFF AND PUSH1 0xE0 SHL DUP2 MSTORE PUSH1 0x4 ADD PUSH2 0x2898 SWAP2 SWAP1 PUSH2 0x40E4 JUMP JUMPDEST PUSH1 0x20 PUSH1 0x40 MLOAD DUP1 DUP4 SUB DUP2 DUP7 GAS DELEGATECALL ISZERO DUP1 ISZERO PUSH2 0x28B5 JUMPI RETURNDATASIZE PUSH1 0x0 DUP1 RETURNDATACOPY RETURNDATASIZE PUSH1 0x0 REVERT JUMPDEST POP POP POP POP PUSH1 0x40 MLOAD RETURNDATASIZE PUSH1 0x1F NOT PUSH1 0x1F DUP3 ADD AND DUP3 ADD DUP1 PUSH1 0x40 MSTORE POP DUP2 ADD SWAP1 PUSH2 0x28D9 SWAP2 SWAP1 PUSH2 0x4114 JUMP JUMPDEST SWAP2 POP PUSH2 0x28FB JUMP JUMPDEST DUP2 DUP8 PUSH1 0x2 ADD PUSH1 0x0 DUP4 DUP2 MSTORE PUSH1 0x20 ADD SWAP1 DUP2 MSTORE PUSH1 0x20 ADD PUSH1 0x0 KECCAK256 DUP2 SWAP1 SSTORE POP JUMPDEST DUP1 PUSH1 0x1 ADD SWAP1 POP PUSH2 0x2823 JUMP JUMPDEST POP DUP3 PUSH2 0x2911 SWAP1 PUSH2 0x35F5 JUMP JUMPDEST SWAP3 POP DUP3 DUP7 PUSH1 0x0 ADD DUP2 SWAP1 SSTORE POP DUP1 DUP7 PUSH1 0x2 ADD PUSH1 0x0 DUP5 DUP2 MSTORE PUSH1 0x20 ADD SWAP1 DUP2 MSTORE PUSH1 0x20 ADD PUSH1 0x0 KECCAK256 DUP2 SWAP1 SSTORE POP DUP3 DUP7 PUSH1 0x3 ADD PUSH1 0x0 DUP8 DUP2 MSTORE PUSH1 0x20 ADD SWAP1 DUP2 MSTORE PUSH1 0x20 ADD PUSH1 0x0 KECCAK256 DUP2 SWAP1 SSTORE POP DUP1 SWAP4 POP POP POP POP SWAP3 SWAP2 POP POP JUMP JUMPDEST PUSH1 0x0 PUSH32 0x30644E72E131A029B85045B68181585D2833E84879B9709143E1F593F0000001 DUP5 LT PUSH2 0x29B7 JUMPI PUSH1 0x40 MLOAD PUSH32 0xC380A82E00000000000000000000000000000000000000000000000000000000 DUP2 MSTORE PUSH1 0x4 ADD PUSH1 0x40 MLOAD DUP1 SWAP2 SUB SWAP1 REVERT JUMPDEST PUSH2 0x29C1 DUP7 DUP7 PUSH2 0x1F1C JUMP JUMPDEST PUSH2 0x29F7 JUMPI PUSH1 0x40 MLOAD PUSH32 0x7204756C00000000000000000000000000000000000000000000000000000000 DUP2 MSTORE PUSH1 0x4 ADD PUSH1 0x40 MLOAD DUP1 SWAP2 SUB SWAP1 REVERT JUMPDEST PUSH2 0x2A01 DUP7 DUP6 PUSH2 0x1F1C JUMP JUMPDEST ISZERO PUSH2 0x2A38 JUMPI PUSH1 0x40 MLOAD PUSH32 0x258A195A00000000000000000000000000000000000000000000000000000000 DUP2 MSTORE PUSH1 0x4 ADD PUSH1 0x40 MLOAD DUP1 SWAP2 SUB SWAP1 REVERT JUMPDEST PUSH1 0x0 PUSH2 0x2A44 DUP8 DUP8 PUSH2 0x179F JUMP JUMPDEST SWAP1 POP PUSH1 0x0 DUP6 SWAP1 POP PUSH1 0x0 DUP8 SWAP1 POP PUSH1 0x0 PUSH1 0x1 DUP11 PUSH1 0x0 ADD SLOAD PUSH2 0x2A63 SWAP2 SWAP1 PUSH2 0x3726 JUMP JUMPDEST SWAP1 POP PUSH1 0x0 DUP1 DUP12 PUSH1 0x1 ADD SLOAD SWAP1 POP PUSH1 0x0 JUMPDEST DUP2 DUP2 LT ISZERO PUSH2 0x2E51 JUMPI PUSH1 0x1 DUP1 DUP3 DUP10 SWAP1 SHR AND SUB PUSH2 0x2C52 JUMPI PUSH32 0x30644E72E131A029B85045B68181585D2833E84879B9709143E1F593F0000001 DUP11 DUP11 DUP6 DUP2 DUP2 LT PUSH2 0x2ABB JUMPI PUSH2 0x2ABA PUSH2 0x378E JUMP JUMPDEST JUMPDEST SWAP1 POP PUSH1 0x20 MUL ADD CALLDATALOAD LT PUSH2 0x2AF9 JUMPI PUSH1 0x40 MLOAD PUSH32 0xC380A82E00000000000000000000000000000000000000000000000000000000 DUP2 MSTORE PUSH1 0x4 ADD PUSH1 0x40 MLOAD DUP1 SWAP2 SUB SWAP1 REVERT JUMPDEST PUSH20 0x0 PUSH4 0x561558FE PUSH1 0x40 MLOAD DUP1 PUSH1 0x40 ADD PUSH1 0x40 MSTORE DUP1 DUP14 DUP14 DUP9 DUP2 DUP2 LT PUSH2 0x2B31 JUMPI PUSH2 0x2B30 PUSH2 0x378E JUMP JUMPDEST JUMPDEST SWAP1 POP PUSH1 0x20 MUL ADD CALLDATALOAD DUP2 MSTORE PUSH1 0x20 ADD DUP10 DUP2 MSTORE POP PUSH1 0x40 MLOAD DUP3 PUSH4 0xFFFFFFFF AND PUSH1 0xE0 SHL DUP2 MSTORE PUSH1 0x4 ADD PUSH2 0x2B5D SWAP2 SWAP1 PUSH2 0x40E4 JUMP JUMPDEST PUSH1 0x20 PUSH1 0x40 MLOAD DUP1 DUP4 SUB DUP2 DUP7 GAS DELEGATECALL ISZERO DUP1 ISZERO PUSH2 0x2B7A JUMPI RETURNDATASIZE PUSH1 0x0 DUP1 RETURNDATACOPY RETURNDATASIZE PUSH1 0x0 REVERT JUMPDEST POP POP POP POP PUSH1 0x40 MLOAD RETURNDATASIZE PUSH1 0x1F NOT PUSH1 0x1F DUP3 ADD AND DUP3 ADD DUP1 PUSH1 0x40 MSTORE POP DUP2 ADD SWAP1 PUSH2 0x2B9E SWAP2 SWAP1 PUSH2 0x4114 JUMP JUMPDEST SWAP6 POP PUSH20 0x0 PUSH4 0x561558FE PUSH1 0x40 MLOAD DUP1 PUSH1 0x40 ADD PUSH1 0x40 MSTORE DUP1 DUP14 DUP14 DUP9 DUP2 DUP2 LT PUSH2 0x2BD8 JUMPI PUSH2 0x2BD7 PUSH2 0x378E JUMP JUMPDEST JUMPDEST SWAP1 POP PUSH1 0x20 MUL ADD CALLDATALOAD DUP2 MSTORE PUSH1 0x20 ADD DUP9 DUP2 MSTORE POP PUSH1 0x40 MLOAD DUP3 PUSH4 0xFFFFFFFF AND PUSH1 0xE0 SHL DUP2 MSTORE PUSH1 0x4 ADD PUSH2 0x2C04 SWAP2 SWAP1 PUSH2 0x40E4 JUMP JUMPDEST PUSH1 0x20 PUSH1 0x40 MLOAD DUP1 DUP4 SUB DUP2 DUP7 GAS DELEGATECALL ISZERO DUP1 ISZERO PUSH2 0x2C21 JUMPI RETURNDATASIZE PUSH1 0x0 DUP1 RETURNDATACOPY RETURNDATASIZE PUSH1 0x0 REVERT JUMPDEST POP POP POP POP PUSH1 0x40 MLOAD RETURNDATASIZE PUSH1 0x1F NOT PUSH1 0x1F DUP3 ADD AND DUP3 ADD DUP1 PUSH1 0x40 MSTORE POP DUP2 ADD SWAP1 PUSH2 0x2C45 SWAP2 SWAP1 PUSH2 0x4114 JUMP JUMPDEST SWAP5 POP DUP3 PUSH1 0x1 ADD SWAP3 POP PUSH2 0x2E46 JUMP JUMPDEST DUP1 DUP5 SWAP1 SHR DUP2 DUP9 SWAP1 SHR EQ PUSH2 0x2E2A JUMPI PUSH32 0x30644E72E131A029B85045B68181585D2833E84879B9709143E1F593F0000001 DUP11 DUP11 DUP6 DUP2 DUP2 LT PUSH2 0x2C93 JUMPI PUSH2 0x2C92 PUSH2 0x378E JUMP JUMPDEST JUMPDEST SWAP1 POP PUSH1 0x20 MUL ADD CALLDATALOAD LT PUSH2 0x2CD1 JUMPI PUSH1 0x40 MLOAD PUSH32 0xC380A82E00000000000000000000000000000000000000000000000000000000 DUP2 MSTORE PUSH1 0x4 ADD PUSH1 0x40 MLOAD DUP1 SWAP2 SUB SWAP1 REVERT JUMPDEST PUSH20 0x0 PUSH4 0x561558FE PUSH1 0x40 MLOAD DUP1 PUSH1 0x40 ADD PUSH1 0x40 MSTORE DUP1 DUP10 DUP2 MSTORE PUSH1 0x20 ADD DUP14 DUP14 DUP9 DUP2 DUP2 LT PUSH2 0x2D0F JUMPI PUSH2 0x2D0E PUSH2 0x378E JUMP JUMPDEST JUMPDEST SWAP1 POP PUSH1 0x20 MUL ADD CALLDATALOAD DUP2 MSTORE POP PUSH1 0x40 MLOAD DUP3 PUSH4 0xFFFFFFFF AND PUSH1 0xE0 SHL DUP2 MSTORE PUSH1 0x4 ADD PUSH2 0x2D35 SWAP2 SWAP1 PUSH2 0x40E4 JUMP JUMPDEST PUSH1 0x20 PUSH1 0x40 MLOAD DUP1 DUP4 SUB DUP2 DUP7 GAS DELEGATECALL ISZERO DUP1 ISZERO PUSH2 0x2D52 JUMPI RETURNDATASIZE PUSH1 0x0 DUP1 RETURNDATACOPY RETURNDATASIZE PUSH1 0x0 REVERT JUMPDEST POP POP POP POP PUSH1 0x40 MLOAD RETURNDATASIZE PUSH1 0x1F NOT PUSH1 0x1F DUP3 ADD AND DUP3 ADD DUP1 PUSH1 0x40 MSTORE POP DUP2 ADD SWAP1 PUSH2 0x2D76 SWAP2 SWAP1 PUSH2 0x4114 JUMP JUMPDEST SWAP6 POP PUSH20 0x0 PUSH4 0x561558FE PUSH1 0x40 MLOAD DUP1 PUSH1 0x40 ADD PUSH1 0x40 MSTORE DUP1 DUP9 DUP2 MSTORE PUSH1 0x20 ADD DUP14 DUP14 DUP9 DUP2 DUP2 LT PUSH2 0x2DB6 JUMPI PUSH2 0x2DB5 PUSH2 0x378E JUMP JUMPDEST JUMPDEST SWAP1 POP PUSH1 0x20 MUL ADD CALLDATALOAD DUP2 MSTORE POP PUSH1 0x40 MLOAD DUP3 PUSH4 0xFFFFFFFF AND PUSH1 0xE0 SHL DUP2 MSTORE PUSH1 0x4 ADD PUSH2 0x2DDC SWAP2 SWAP1 PUSH2 0x40E4 JUMP JUMPDEST PUSH1 0x20 PUSH1 0x40 MLOAD DUP1 DUP4 SUB DUP2 DUP7 GAS DELEGATECALL ISZERO DUP1 ISZERO PUSH2 0x2DF9 JUMPI RETURNDATASIZE PUSH1 0x0 DUP1 RETURNDATACOPY RETURNDATASIZE PUSH1 0x0 REVERT JUMPDEST POP POP POP POP PUSH1 0x40 MLOAD RETURNDATASIZE PUSH1 0x1F NOT PUSH1 0x1F DUP3 ADD AND DUP3 ADD DUP1 PUSH1 0x40 MSTORE POP DUP2 ADD SWAP1 PUSH2 0x2E1D SWAP2 SWAP1 PUSH2 0x4114 JUMP JUMPDEST SWAP5 POP DUP3 PUSH1 0x1 ADD SWAP3 POP PUSH2 0x2E45 JUMP JUMPDEST DUP6 DUP14 PUSH1 0x2 ADD PUSH1 0x0 DUP6 DUP2 MSTORE PUSH1 0x20 ADD SWAP1 DUP2 MSTORE PUSH1 0x20 ADD PUSH1 0x0 KECCAK256 DUP2 SWAP1 SSTORE POP JUMPDEST JUMPDEST DUP1 PUSH1 0x1 ADD SWAP1 POP PUSH2 0x2A72 JUMP JUMPDEST POP PUSH2 0x2E5B DUP13 PUSH2 0x20F6 JUMP JUMPDEST DUP5 EQ PUSH2 0x2E93 JUMPI PUSH1 0x40 MLOAD PUSH32 0x3FA930C600000000000000000000000000000000000000000000000000000000 DUP2 MSTORE PUSH1 0x4 ADD PUSH1 0x40 MLOAD DUP1 SWAP2 SUB SWAP1 REVERT JUMPDEST DUP5 DUP13 PUSH1 0x2 ADD PUSH1 0x0 DUP4 DUP2 MSTORE PUSH1 0x20 ADD SWAP1 DUP2 MSTORE PUSH1 0x20 ADD PUSH1 0x0 KECCAK256 DUP2 SWAP1 SSTORE POP PUSH1 0x0 DUP11 EQ PUSH2 0x2EE5 JUMPI DUP12 PUSH1 0x3 ADD PUSH1 0x0 DUP13 DUP2 MSTORE PUSH1 0x20 ADD SWAP1 DUP2 MSTORE PUSH1 0x20 ADD PUSH1 0x0 KECCAK256 SLOAD DUP13 PUSH1 0x3 ADD PUSH1 0x0 DUP13 DUP2 MSTORE PUSH1 0x20 ADD SWAP1 DUP2 MSTORE PUSH1 0x20 ADD PUSH1 0x0 KECCAK256 DUP2 SWAP1 SSTORE POP JUMPDEST PUSH1 0x0 DUP13 PUSH1 0x3 ADD PUSH1 0x0 DUP14 DUP2 MSTORE PUSH1 0x20 ADD SWAP1 DUP2 MSTORE PUSH1 0x20 ADD PUSH1 0x0 KECCAK256 DUP2 SWAP1 SSTORE POP DUP5 SWAP7 POP POP POP POP POP POP POP SWAP6 SWAP5 POP POP POP POP POP JUMP JUMPDEST PUSH1 0x0 PUSH2 0x2F22 DUP6 DUP6 PUSH1 0x0 DUP7 DUP7 PUSH2 0x295C JUMP JUMPDEST SWAP1 POP SWAP5 SWAP4 POP POP POP POP JUMP JUMPDEST PUSH1 0x0 DUP1 REVERT JUMPDEST PUSH1 0x0 DUP1 REVERT JUMPDEST PUSH1 0x0 DUP2 SWAP1 POP SWAP2 SWAP1 POP JUMP JUMPDEST PUSH2 0x2F49 DUP2 PUSH2 0x2F36 JUMP JUMPDEST DUP2 EQ PUSH2 0x2F54 JUMPI PUSH1 0x0 DUP1 REVERT JUMPDEST POP JUMP JUMPDEST PUSH1 0x0 DUP2 CALLDATALOAD SWAP1 POP PUSH2 0x2F66 DUP2 PUSH2 0x2F40 JUMP JUMPDEST SWAP3 SWAP2 POP POP JUMP JUMPDEST PUSH1 0x0 DUP1 REVERT JUMPDEST PUSH1 0x0 DUP1 REVERT JUMPDEST PUSH1 0x0 DUP1 REVERT JUMPDEST PUSH1 0x0 DUP1 DUP4 PUSH1 0x1F DUP5 ADD SLT PUSH2 0x2F91 JUMPI PUSH2 0x2F90 PUSH2 0x2F6C JUMP JUMPDEST JUMPDEST DUP3 CALLDATALOAD SWAP1 POP PUSH8 0xFFFFFFFFFFFFFFFF DUP2 GT ISZERO PUSH2 0x2FAE JUMPI PUSH2 0x2FAD PUSH2 0x2F71 JUMP JUMPDEST JUMPDEST PUSH1 0x20 DUP4 ADD SWAP2 POP DUP4 PUSH1 0x20 DUP3 MUL DUP4 ADD GT ISZERO PUSH2 0x2FCA JUMPI PUSH2 0x2FC9 PUSH2 0x2F76 JUMP JUMPDEST JUMPDEST SWAP3 POP SWAP3 SWAP1 POP JUMP JUMPDEST PUSH1 0x0 DUP1 PUSH1 0x0 PUSH1 0x40 DUP5 DUP7 SUB SLT ISZERO PUSH2 0x2FEA JUMPI PUSH2 0x2FE9 PUSH2 0x2F2C JUMP JUMPDEST JUMPDEST PUSH1 0x0 PUSH2 0x2FF8 DUP7 DUP3 DUP8 ADD PUSH2 0x2F57 JUMP JUMPDEST SWAP4 POP POP PUSH1 0x20 DUP5 ADD CALLDATALOAD PUSH8 0xFFFFFFFFFFFFFFFF DUP2 GT ISZERO PUSH2 0x3019 JUMPI PUSH2 0x3018 PUSH2 0x2F31 JUMP JUMPDEST JUMPDEST PUSH2 0x3025 DUP7 DUP3 DUP8 ADD PUSH2 0x2F7B JUMP JUMPDEST SWAP3 POP SWAP3 POP POP SWAP3 POP SWAP3 POP SWAP3 JUMP JUMPDEST PUSH1 0x0 DUP1 PUSH1 0x40 DUP4 DUP6 SUB SLT ISZERO PUSH2 0x3048 JUMPI PUSH2 0x3047 PUSH2 0x2F2C JUMP JUMPDEST JUMPDEST PUSH1 0x0 PUSH2 0x3056 DUP6 DUP3 DUP7 ADD PUSH2 0x2F57 JUMP JUMPDEST SWAP3 POP POP PUSH1 0x20 PUSH2 0x3067 DUP6 DUP3 DUP7 ADD PUSH2 0x2F57 JUMP JUMPDEST SWAP2 POP POP SWAP3 POP SWAP3 SWAP1 POP JUMP JUMPDEST PUSH2 0x307A DUP2 PUSH2 0x2F36 JUMP JUMPDEST DUP3 MSTORE POP POP JUMP JUMPDEST PUSH1 0x0 PUSH1 0x20 DUP3 ADD SWAP1 POP PUSH2 0x3095 PUSH1 0x0 DUP4 ADD DUP5 PUSH2 0x3071 JUMP JUMPDEST SWAP3 SWAP2 POP POP JUMP JUMPDEST PUSH1 0x0 PUSH20 0xFFFFFFFFFFFFFFFFFFFFFFFFFFFFFFFFFFFFFFFF DUP3 AND SWAP1 POP SWAP2 SWAP1 POP JUMP JUMPDEST PUSH1 0x0 DUP2 SWAP1 POP SWAP2 SWAP1 POP JUMP JUMPDEST PUSH1 0x0 PUSH2 0x30E0 PUSH2 0x30DB PUSH2 0x30D6 DUP5 PUSH2 0x309B JUMP JUMPDEST PUSH2 0x30BB JUMP JUMPDEST PUSH2 0x309B JUMP JUMPDEST SWAP1 POP SWAP2 SWAP1 POP JUMP JUMPDEST PUSH1 0x0 PUSH2 0x30F2 DUP3 PUSH2 0x30C5 JUMP JUMPDEST SWAP1 POP SWAP2 SWAP1 POP JUMP JUMPDEST PUSH1 0x0 PUSH2 0x3104 DUP3 PUSH2 0x30E7 JUMP JUMPDEST SWAP1 POP SWAP2 SWAP1 POP JUMP JUMPDEST PUSH2 0x3114 DUP2 PUSH2 0x30F9 JUMP JUMPDEST DUP3 MSTORE POP POP JUMP JUMPDEST PUSH1 0x0 PUSH1 0x20 DUP3 ADD SWAP1 POP PUSH2 0x312F PUSH1 0x0 DUP4 ADD DUP5 PUSH2 0x310B JUMP JUMPDEST SWAP3 SWAP2 POP POP JUMP JUMPDEST PUSH1 0x0 PUSH2 0x3140 DUP3 PUSH2 0x309B JUMP JUMPDEST SWAP1 POP SWAP2 SWAP1 POP JUMP JUMPDEST PUSH2 0x3150 DUP2 PUSH2 0x3135 JUMP JUMPDEST DUP2 EQ PUSH2 0x315B JUMPI PUSH1 0x0 DUP1 REVERT JUMPDEST POP JUMP JUMPDEST PUSH1 0x0 DUP2 CALLDATALOAD SWAP1 POP PUSH2 0x316D DUP2 PUSH2 0x3147 JUMP JUMPDEST SWAP3 SWAP2 POP POP JUMP JUMPDEST PUSH1 0x0 DUP1 PUSH1 0x40 DUP4 DUP6 SUB SLT ISZERO PUSH2 0x318A JUMPI PUSH2 0x3189 PUSH2 0x2F2C JUMP JUMPDEST JUMPDEST PUSH1 0x0 PUSH2 0x3198 DUP6 DUP3 DUP7 ADD PUSH2 0x315E JUMP JUMPDEST SWAP3 POP POP PUSH1 0x20 PUSH2 0x31A9 DUP6 DUP3 DUP7 ADD PUSH2 0x2F57 JUMP JUMPDEST SWAP2 POP POP SWAP3 POP SWAP3 SWAP1 POP JUMP JUMPDEST PUSH1 0x0 PUSH1 0x20 DUP3 DUP5 SUB SLT ISZERO PUSH2 0x31C9 JUMPI PUSH2 0x31C8 PUSH2 0x2F2C JUMP JUMPDEST JUMPDEST PUSH1 0x0 PUSH2 0x31D7 DUP5 DUP3 DUP6 ADD PUSH2 0x2F57 JUMP JUMPDEST SWAP2 POP POP SWAP3 SWAP2 POP POP JUMP JUMPDEST PUSH1 0x0 DUP1 PUSH1 0x0 DUP1 PUSH1 0x0 PUSH1 0x80 DUP7 DUP9 SUB SLT ISZERO PUSH2 0x31FC JUMPI PUSH2 0x31FB PUSH2 0x2F2C JUMP JUMPDEST JUMPDEST PUSH1 0x0 PUSH2 0x320A DUP9 DUP3 DUP10 ADD PUSH2 0x2F57 JUMP JUMPDEST SWAP6 POP POP PUSH1 0x20 PUSH2 0x321B DUP9 DUP3 DUP10 ADD PUSH2 0x2F57 JUMP JUMPDEST SWAP5 POP POP PUSH1 0x40 PUSH2 0x322C DUP9 DUP3 DUP10 ADD PUSH2 0x2F57 JUMP JUMPDEST SWAP4 POP POP PUSH1 0x60 DUP7 ADD CALLDATALOAD PUSH8 0xFFFFFFFFFFFFFFFF DUP2 GT ISZERO PUSH2 0x324D JUMPI PUSH2 0x324C PUSH2 0x2F31 JUMP JUMPDEST JUMPDEST PUSH2 0x3259 DUP9 DUP3 DUP10 ADD PUSH2 0x2F7B JUMP JUMPDEST SWAP3 POP SWAP3 POP POP SWAP3 SWAP6 POP SWAP3 SWAP6 SWAP1 SWAP4 POP JUMP JUMPDEST PUSH1 0x0 DUP1 REVERT JUMPDEST PUSH1 0x0 PUSH2 0x1A0 DUP3 DUP5 SUB SLT ISZERO PUSH2 0x3284 JUMPI PUSH2 0x3283 PUSH2 0x3268 JUMP JUMPDEST JUMPDEST DUP2 SWAP1 POP SWAP3 SWAP2 POP POP JUMP JUMPDEST PUSH1 0x0 DUP1 PUSH2 0x1C0 DUP4 DUP6 SUB SLT ISZERO PUSH2 0x32A5 JUMPI PUSH2 0x32A4 PUSH2 0x2F2C JUMP JUMPDEST JUMPDEST PUSH1 0x0 PUSH2 0x32B3 DUP6 DUP3 DUP7 ADD PUSH2 0x2F57 JUMP JUMPDEST SWAP3 POP POP PUSH1 0x20 PUSH2 0x32C4 DUP6 DUP3 DUP7 ADD PUSH2 0x326D JUMP JUMPDEST SWAP2 POP POP SWAP3 POP SWAP3 SWAP1 POP JUMP JUMPDEST PUSH1 0x0 DUP2 ISZERO ISZERO SWAP1 POP SWAP2 SWAP1 POP JUMP JUMPDEST PUSH2 0x32E3 DUP2 PUSH2 0x32CE JUMP JUMPDEST DUP3 MSTORE POP POP JUMP JUMPDEST PUSH1 0x0 PUSH1 0x20 DUP3 ADD SWAP1 POP PUSH2 0x32FE PUSH1 0x0 DUP4 ADD DUP5 PUSH2 0x32DA JUMP JUMPDEST SWAP3 SWAP2 POP POP JUMP JUMPDEST PUSH1 0x0 DUP1 PUSH1 0x40 DUP4 DUP6 SUB SLT ISZERO PUSH2 0x331B JUMPI PUSH2 0x331A PUSH2 0x2F2C JUMP JUMPDEST JUMPDEST PUSH1 0x0 PUSH2 0x3329 DUP6 DUP3 DUP7 ADD PUSH2 0x2F57 JUMP JUMPDEST SWAP3 POP POP PUSH1 0x20 PUSH2 0x333A DUP6 DUP3 DUP7 ADD PUSH2 0x315E JUMP JUMPDEST SWAP2 POP POP SWAP3 POP SWAP3 SWAP1 POP JUMP JUMPDEST PUSH1 0x0 PUSH1 0x20 DUP3 DUP5 SUB SLT ISZERO PUSH2 0x335A JUMPI PUSH2 0x3359 PUSH2 0x2F2C JUMP JUMPDEST JUMPDEST PUSH1 0x0 PUSH2 0x3368 DUP5 DUP3 DUP6 ADD PUSH2 0x315E JUMP JUMPDEST SWAP2 POP POP SWAP3 SWAP2 POP POP JUMP JUMPDEST PUSH1 0x0 PUSH2 0x140 DUP3 DUP5 SUB SLT ISZERO PUSH2 0x3388 JUMPI PUSH2 0x3387 PUSH2 0x3268 JUMP JUMPDEST JUMPDEST DUP2 SWAP1 POP SWAP3 SWAP2 POP POP JUMP JUMPDEST PUSH1 0x0 PUSH2 0x140 DUP3 DUP5 SUB SLT ISZERO PUSH2 0x33A8 JUMPI PUSH2 0x33A7 PUSH2 0x2F2C JUMP JUMPDEST JUMPDEST PUSH1 0x0 PUSH2 0x33B6 DUP5 DUP3 DUP6 ADD PUSH2 0x3371 JUMP JUMPDEST SWAP2 POP POP SWAP3 SWAP2 POP POP JUMP JUMPDEST PUSH1 0x0 DUP1 PUSH1 0x0 DUP1 PUSH1 0x60 DUP6 DUP8 SUB SLT ISZERO PUSH2 0x33D9 JUMPI PUSH2 0x33D8 PUSH2 0x2F2C JUMP JUMPDEST JUMPDEST PUSH1 0x0 PUSH2 0x33E7 DUP8 DUP3 DUP9 ADD PUSH2 0x2F57 JUMP JUMPDEST SWAP5 POP POP PUSH1 0x20 PUSH2 0x33F8 DUP8 DUP3 DUP9 ADD PUSH2 0x2F57 JUMP JUMPDEST SWAP4 POP POP PUSH1 0x40 DUP6 ADD CALLDATALOAD PUSH8 0xFFFFFFFFFFFFFFFF DUP2 GT ISZERO PUSH2 0x3419 JUMPI PUSH2 0x3418 PUSH2 0x2F31 JUMP JUMPDEST JUMPDEST PUSH2 0x3425 DUP8 DUP3 DUP9 ADD PUSH2 0x2F7B JUMP JUMPDEST SWAP3 POP SWAP3 POP POP SWAP3 SWAP6 SWAP2 SWAP5 POP SWAP3 POP JUMP JUMPDEST PUSH1 0x0 PUSH1 0x40 DUP3 ADD SWAP1 POP PUSH2 0x3448 PUSH1 0x0 DUP4 ADD DUP6 PUSH2 0x3071 JUMP JUMPDEST PUSH2 0x3455 PUSH1 0x20 DUP4 ADD DUP5 PUSH2 0x3071 JUMP JUMPDEST SWAP4 SWAP3 POP POP POP JUMP JUMPDEST PUSH2 0x3465 DUP2 PUSH2 0x3135 JUMP JUMPDEST DUP3 MSTORE POP POP JUMP JUMPDEST PUSH1 0x0 PUSH1 0x20 DUP3 ADD SWAP1 POP PUSH2 0x3480 PUSH1 0x0 DUP4 ADD DUP5 PUSH2 0x345C JUMP JUMPDEST SWAP3 SWAP2 POP POP JUMP JUMPDEST PUSH1 0x0 PUSH2 0x3491 DUP3 PUSH2 0x30E7 JUMP JUMPDEST SWAP1 POP SWAP2 SWAP1 POP JUMP JUMPDEST PUSH2 0x34A1 DUP2 PUSH2 0x3486 JUMP JUMPDEST DUP3 MSTORE POP POP JUMP JUMPDEST PUSH1 0x0 PUSH1 0x20 DUP3 ADD SWAP1 POP PUSH2 0x34BC PUSH1 0x0 DUP4 ADD DUP5 PUSH2 0x3498 JUMP JUMPDEST SWAP3 SWAP2 POP POP JUMP JUMPDEST PUSH1 0x0 DUP1 PUSH2 0x1C0 DUP4 DUP6 SUB SLT ISZERO PUSH2 0x34DA JUMPI PUSH2 0x34D9 PUSH2 0x2F2C JUMP JUMPDEST JUMPDEST PUSH1 0x0 PUSH2 0x34E8 DUP6 DUP3 DUP7 ADD PUSH2 0x326D JUMP JUMPDEST SWAP3 POP POP PUSH2 0x1A0 PUSH2 0x34FA DUP6 DUP3 DUP7 ADD PUSH2 0x2F57 JUMP JUMPDEST SWAP2 POP POP SWAP3 POP SWAP3 SWAP1 POP JUMP JUMPDEST PUSH1 0x0 DUP2 SWAP1 POP DUP3 PUSH1 0x20 PUSH1 0x2 MUL DUP3 ADD GT ISZERO PUSH2 0x3520 JUMPI PUSH2 0x351F PUSH2 0x2F76 JUMP JUMPDEST JUMPDEST SWAP3 SWAP2 POP POP JUMP JUMPDEST PUSH1 0x0 DUP2 SWAP1 POP DUP3 PUSH1 0x40 PUSH1 0x2 MUL DUP3 ADD GT ISZERO PUSH2 0x3542 JUMPI PUSH2 0x3541 PUSH2 0x2F76 JUMP JUMPDEST JUMPDEST SWAP3 SWAP2 POP POP JUMP JUMPDEST PUSH1 0x0 DUP1 PUSH1 0x0 DUP1 PUSH1 0x0 PUSH2 0x140 DUP7 DUP9 SUB SLT ISZERO PUSH2 0x3565 JUMPI PUSH2 0x3564 PUSH2 0x2F2C JUMP JUMPDEST JUMPDEST PUSH1 0x0 PUSH2 0x3573 DUP9 DUP3 DUP10 ADD PUSH2 0x3504 JUMP JUMPDEST SWAP6 POP POP PUSH1 0x40 PUSH2 0x3584 DUP9 DUP3 DUP10 ADD PUSH2 0x3526 JUMP JUMPDEST SWAP5 POP POP PUSH1 0xC0 PUSH2 0x3595 DUP9 DUP3 DUP10 ADD PUSH2 0x3504 JUMP JUMPDEST SWAP4 POP POP PUSH2 0x100 PUSH2 0x35A7 DUP9 DUP3 DUP10 ADD PUSH2 0x2F57 JUMP JUMPDEST SWAP3 POP POP PUSH2 0x120 PUSH2 0x35B9 DUP9 DUP3 DUP10 ADD PUSH2 0x2F57 JUMP JUMPDEST SWAP2 POP POP SWAP3 SWAP6 POP SWAP3 SWAP6 SWAP1 SWAP4 POP JUMP JUMPDEST PUSH32 0x4E487B7100000000000000000000000000000000000000000000000000000000 PUSH1 0x0 MSTORE PUSH1 0x11 PUSH1 0x4 MSTORE PUSH1 0x24 PUSH1 0x0 REVERT JUMPDEST PUSH1 0x0 PUSH2 0x3600 DUP3 PUSH2 0x2F36 JUMP JUMPDEST SWAP2 POP PUSH32 0xFFFFFFFFFFFFFFFFFFFFFFFFFFFFFFFFFFFFFFFFFFFFFFFFFFFFFFFFFFFFFFFF DUP3 SUB PUSH2 0x3632 JUMPI PUSH2 0x3631 PUSH2 0x35C6 JUMP JUMPDEST JUMPDEST PUSH1 0x1 DUP3 ADD SWAP1 POP SWAP2 SWAP1 POP JUMP JUMPDEST PUSH1 0x0 DUP3 DUP3 MSTORE PUSH1 0x20 DUP3 ADD SWAP1 POP SWAP3 SWAP2 POP POP JUMP JUMPDEST PUSH32 0x7572206E6F7420746865206F776E6572206F66207468697320626F7800000000 PUSH1 0x0 DUP3 ADD MSTORE POP JUMP JUMPDEST PUSH1 0x0 PUSH2 0x3684 PUSH1 0x1C DUP4 PUSH2 0x363D JUMP JUMPDEST SWAP2 POP PUSH2 0x368F DUP3 PUSH2 0x364E JUMP JUMPDEST PUSH1 0x20 DUP3 ADD SWAP1 POP SWAP2 SWAP1 POP JUMP JUMPDEST PUSH1 0x0 PUSH1 0x20 DUP3 ADD SWAP1 POP DUP2 DUP2 SUB PUSH1 0x0 DUP4 ADD MSTORE PUSH2 0x36B3 DUP2 PUSH2 0x3677 JUMP JUMPDEST SWAP1 POP SWAP2 SWAP1 POP JUMP JUMPDEST PUSH32 0x4E6F7420656E6F7567682066756E647300000000000000000000000000000000 PUSH1 0x0 DUP3 ADD MSTORE POP JUMP JUMPDEST PUSH1 0x0 PUSH2 0x36F0 PUSH1 0x10 DUP4 PUSH2 0x363D JUMP JUMPDEST SWAP2 POP PUSH2 0x36FB DUP3 PUSH2 0x36BA JUMP JUMPDEST PUSH1 0x20 DUP3 ADD SWAP1 POP SWAP2 SWAP1 POP JUMP JUMPDEST PUSH1 0x0 PUSH1 0x20 DUP3 ADD SWAP1 POP DUP2 DUP2 SUB PUSH1 0x0 DUP4 ADD MSTORE PUSH2 0x371F DUP2 PUSH2 0x36E3 JUMP JUMPDEST SWAP1 POP SWAP2 SWAP1 POP JUMP JUMPDEST PUSH1 0x0 PUSH2 0x3731 DUP3 PUSH2 0x2F36 JUMP JUMPDEST SWAP2 POP PUSH2 0x373C DUP4 PUSH2 0x2F36 JUMP JUMPDEST SWAP3 POP DUP3 DUP3 SUB SWAP1 POP DUP2 DUP2 GT ISZERO PUSH2 0x3754 JUMPI PUSH2 0x3753 PUSH2 0x35C6 JUMP JUMPDEST JUMPDEST SWAP3 SWAP2 POP POP JUMP JUMPDEST PUSH1 0x0 PUSH2 0x3765 DUP3 PUSH2 0x2F36 JUMP JUMPDEST SWAP2 POP PUSH2 0x3770 DUP4 PUSH2 0x2F36 JUMP JUMPDEST SWAP3 POP DUP3 DUP3 ADD SWAP1 POP DUP1 DUP3 GT ISZERO PUSH2 0x3788 JUMPI PUSH2 0x3787 PUSH2 0x35C6 JUMP JUMPDEST JUMPDEST SWAP3 SWAP2 POP POP JUMP JUMPDEST PUSH32 0x4E487B7100000000000000000000000000000000000000000000000000000000 PUSH1 0x0 MSTORE PUSH1 0x32 PUSH1 0x4 MSTORE PUSH1 0x24 PUSH1 0x0 REVERT JUMPDEST PUSH1 0x0 PUSH1 0x2 SWAP1 POP SWAP2 SWAP1 POP JUMP JUMPDEST PUSH1 0x0 DUP2 SWAP1 POP SWAP3 SWAP2 POP POP JUMP JUMPDEST PUSH1 0x0 DUP2 SWAP1 POP SWAP2 SWAP1 POP JUMP JUMPDEST PUSH2 0x37E6 DUP2 PUSH2 0x2F36 JUMP JUMPDEST DUP3 MSTORE POP POP JUMP JUMPDEST PUSH1 0x0 PUSH2 0x37F8 DUP4 DUP4 PUSH2 0x37DD JUMP JUMPDEST PUSH1 0x20 DUP4 ADD SWAP1 POP SWAP3 SWAP2 POP POP JUMP JUMPDEST PUSH1 0x0 PUSH1 0x20 DUP3 ADD SWAP1 POP SWAP2 SWAP1 POP JUMP JUMPDEST PUSH2 0x381A DUP2 PUSH2 0x37BD JUMP JUMPDEST PUSH2 0x3824 DUP2 DUP5 PUSH2 0x37C8 JUMP JUMPDEST SWAP3 POP PUSH2 0x382F DUP3 PUSH2 0x37D3 JUMP JUMPDEST DUP1 PUSH1 0x0 JUMPDEST DUP4 DUP2 LT ISZERO PUSH2 0x3860 JUMPI DUP2 MLOAD PUSH2 0x3847 DUP8 DUP3 PUSH2 0x37EC JUMP JUMPDEST SWAP7 POP PUSH2 0x3852 DUP4 PUSH2 0x3804 JUMP JUMPDEST SWAP3 POP POP PUSH1 0x1 DUP2 ADD SWAP1 POP PUSH2 0x3833 JUMP JUMPDEST POP POP POP POP POP POP JUMP JUMPDEST PUSH1 0x0 PUSH1 0x2 SWAP1 POP SWAP2 SWAP1 POP JUMP JUMPDEST PUSH1 0x0 DUP2 SWAP1 POP SWAP3 SWAP2 POP POP JUMP JUMPDEST PUSH1 0x0 DUP2 SWAP1 POP SWAP2 SWAP1 POP JUMP JUMPDEST PUSH1 0x0 DUP2 SWAP1 POP SWAP3 SWAP2 POP POP JUMP JUMPDEST PUSH2 0x389C DUP2 PUSH2 0x37BD JUMP JUMPDEST PUSH2 0x38A6 DUP2 DUP5 PUSH2 0x3888 JUMP JUMPDEST SWAP3 POP PUSH2 0x38B1 DUP3 PUSH2 0x37D3 JUMP JUMPDEST DUP1 PUSH1 0x0 JUMPDEST DUP4 DUP2 LT ISZERO PUSH2 0x38E2 JUMPI DUP2 MLOAD PUSH2 0x38C9 DUP8 DUP3 PUSH2 0x37EC JUMP JUMPDEST SWAP7 POP PUSH2 0x38D4 DUP4 PUSH2 0x3804 JUMP JUMPDEST SWAP3 POP POP PUSH1 0x1 DUP2 ADD SWAP1 POP PUSH2 0x38B5 JUMP JUMPDEST POP POP POP POP POP POP JUMP JUMPDEST PUSH1 0x0 PUSH2 0x38F6 DUP4 DUP4 PUSH2 0x3893 JUMP JUMPDEST PUSH1 0x40 DUP4 ADD SWAP1 POP SWAP3 SWAP2 POP POP JUMP JUMPDEST PUSH1 0x0 PUSH1 0x20 DUP3 ADD SWAP1 POP SWAP2 SWAP1 POP JUMP JUMPDEST PUSH2 0x3918 DUP2 PUSH2 0x3868 JUMP JUMPDEST PUSH2 0x3922 DUP2 DUP5 PUSH2 0x3873 JUMP JUMPDEST SWAP3 POP PUSH2 0x392D DUP3 PUSH2 0x387E JUMP JUMPDEST DUP1 PUSH1 0x0 JUMPDEST DUP4 DUP2 LT ISZERO PUSH2 0x395E JUMPI DUP2 MLOAD PUSH2 0x3945 DUP8 DUP3 PUSH2 0x38EA JUMP JUMPDEST SWAP7 POP PUSH2 0x3950 DUP4 PUSH2 0x3902 JUMP JUMPDEST SWAP3 POP POP PUSH1 0x1 DUP2 ADD SWAP1 POP PUSH2 0x3931 JUMP JUMPDEST POP POP POP POP POP POP JUMP JUMPDEST PUSH1 0x0 PUSH1 0x4 SWAP1 POP SWAP2 SWAP1 POP JUMP JUMPDEST PUSH1 0x0 DUP2 SWAP1 POP SWAP3 SWAP2 POP POP JUMP JUMPDEST PUSH1 0x0 DUP2 SWAP1 POP SWAP2 SWAP1 POP JUMP JUMPDEST PUSH1 0x0 PUSH1 0x20 DUP3 ADD SWAP1 POP SWAP2 SWAP1 POP JUMP JUMPDEST PUSH2 0x399C DUP2 PUSH2 0x3966 JUMP JUMPDEST PUSH2 0x39A6 DUP2 DUP5 PUSH2 0x3971 JUMP JUMPDEST SWAP3 POP PUSH2 0x39B1 DUP3 PUSH2 0x397C JUMP JUMPDEST DUP1 PUSH1 0x0 JUMPDEST DUP4 DUP2 LT ISZERO PUSH2 0x39E2 JUMPI DUP2 MLOAD PUSH2 0x39C9 DUP8 DUP3 PUSH2 0x37EC JUMP JUMPDEST SWAP7 POP PUSH2 0x39D4 DUP4 PUSH2 0x3986 JUMP JUMPDEST SWAP3 POP POP PUSH1 0x1 DUP2 ADD SWAP1 POP PUSH2 0x39B5 JUMP JUMPDEST POP POP POP POP POP POP JUMP JUMPDEST PUSH1 0x0 PUSH2 0x1A0 DUP3 ADD SWAP1 POP PUSH2 0x3A00 PUSH1 0x0 DUP4 ADD DUP9 PUSH2 0x3811 JUMP JUMPDEST PUSH2 0x3A0D PUSH1 0x40 DUP4 ADD DUP8 PUSH2 0x390F JUMP JUMPDEST PUSH2 0x3A1A PUSH1 0xC0 DUP4 ADD DUP7 PUSH2 0x3811 JUMP JUMPDEST PUSH2 0x3A28 PUSH2 0x100 DUP4 ADD DUP6 PUSH2 0x3993 JUMP JUMPDEST PUSH2 0x3A36 PUSH2 0x180 DUP4 ADD DUP5 PUSH2 0x3071 JUMP JUMPDEST SWAP7 SWAP6 POP POP POP POP POP POP JUMP JUMPDEST PUSH2 0x3A49 DUP2 PUSH2 0x32CE JUMP JUMPDEST DUP2 EQ PUSH2 0x3A54 JUMPI PUSH1 0x0 DUP1 REVERT JUMPDEST POP JUMP JUMPDEST PUSH1 0x0 DUP2 MLOAD SWAP1 POP PUSH2 0x3A66 DUP2 PUSH2 0x3A40 JUMP JUMPDEST SWAP3 SWAP2 POP POP JUMP JUMPDEST PUSH1 0x0 PUSH1 0x20 DUP3 DUP5 SUB SLT ISZERO PUSH2 0x3A82 JUMPI PUSH2 0x3A81 PUSH2 0x2F2C JUMP JUMPDEST JUMPDEST PUSH1 0x0 PUSH2 0x3A90 DUP5 DUP3 DUP6 ADD PUSH2 0x3A57 JUMP JUMPDEST SWAP2 POP POP SWAP3 SWAP2 POP POP JUMP JUMPDEST PUSH32 0x6E6F7420656E6F7567682066756E64732073656E7420776974682066756E6374 PUSH1 0x0 DUP3 ADD MSTORE PUSH32 0x696F6E0000000000000000000000000000000000000000000000000000000000 PUSH1 0x20 DUP3 ADD MSTORE POP JUMP JUMPDEST PUSH1 0x0 PUSH2 0x3AF5 PUSH1 0x23 DUP4 PUSH2 0x363D JUMP JUMPDEST SWAP2 POP PUSH2 0x3B00 DUP3 PUSH2 0x3A99 JUMP JUMPDEST PUSH1 0x40 DUP3 ADD SWAP1 POP SWAP2 SWAP1 POP JUMP JUMPDEST PUSH1 0x0 PUSH1 0x20 DUP3 ADD SWAP1 POP DUP2 DUP2 SUB PUSH1 0x0 DUP4 ADD MSTORE PUSH2 0x3B24 DUP2 PUSH2 0x3AE8 JUMP JUMPDEST SWAP1 POP SWAP2 SWAP1 POP JUMP JUMPDEST PUSH32 0x636F6D6D69746D656E7420616E6420616D6F756E7420646F6E74206D61746368 PUSH1 0x0 DUP3 ADD MSTORE POP JUMP JUMPDEST PUSH1 0x0 PUSH2 0x3B61 PUSH1 0x20 DUP4 PUSH2 0x363D JUMP JUMPDEST SWAP2 POP PUSH2 0x3B6C DUP3 PUSH2 0x3B2B JUMP JUMPDEST PUSH1 0x20 DUP3 ADD SWAP1 POP SWAP2 SWAP1 POP JUMP JUMPDEST PUSH1 0x0 PUSH1 0x20 DUP3 ADD SWAP1 POP DUP2 DUP2 SUB PUSH1 0x0 DUP4 ADD MSTORE PUSH2 0x3B90 DUP2 PUSH2 0x3B54 JUMP JUMPDEST SWAP1 POP SWAP2 SWAP1 POP JUMP JUMPDEST DUP3 DUP2 DUP4 CALLDATACOPY POP POP POP JUMP JUMPDEST PUSH2 0x3BAD PUSH2 0x100 DUP4 DUP4 PUSH2 0x3B97 JUMP JUMPDEST POP POP JUMP JUMPDEST PUSH1 0x0 PUSH2 0x160 DUP3 ADD SWAP1 POP PUSH2 0x3BC7 PUSH1 0x0 DUP4 ADD DUP8 PUSH2 0x3071 JUMP JUMPDEST PUSH2 0x3BD4 PUSH1 0x20 DUP4 ADD DUP7 PUSH2 0x3071 JUMP JUMPDEST PUSH2 0x3BE1 PUSH1 0x40 DUP4 ADD DUP6 PUSH2 0x3071 JUMP JUMPDEST PUSH2 0x3BEE PUSH1 0x60 DUP4 ADD DUP5 PUSH2 0x3BA0 JUMP JUMPDEST SWAP6 SWAP5 POP POP POP POP POP JUMP JUMPDEST PUSH2 0x3C03 PUSH1 0x40 DUP4 DUP4 PUSH2 0x3B97 JUMP JUMPDEST POP POP JUMP JUMPDEST PUSH1 0x0 PUSH1 0x2 SWAP1 POP SWAP2 SWAP1 POP JUMP JUMPDEST PUSH1 0x0 DUP2 SWAP1 POP SWAP2 SWAP1 POP JUMP JUMPDEST PUSH2 0x3C28 PUSH1 0x40 DUP4 DUP4 PUSH2 0x3B97 JUMP JUMPDEST POP POP JUMP JUMPDEST PUSH1 0x0 PUSH2 0x3C38 DUP4 DUP4 PUSH2 0x3C1C JUMP JUMPDEST PUSH1 0x40 DUP4 ADD SWAP1 POP SWAP3 SWAP2 POP POP JUMP JUMPDEST PUSH1 0x0 DUP3 SWAP1 POP SWAP3 SWAP2 POP POP JUMP JUMPDEST PUSH1 0x0 PUSH1 0x40 DUP3 ADD SWAP1 POP SWAP2 SWAP1 POP JUMP JUMPDEST PUSH2 0x3C65 DUP2 PUSH2 0x3C07 JUMP JUMPDEST PUSH2 0x3C6F DUP2 DUP5 PUSH2 0x3873 JUMP JUMPDEST SWAP3 POP PUSH2 0x3C7A DUP3 PUSH2 0x3C12 JUMP JUMPDEST DUP1 PUSH1 0x0 JUMPDEST DUP4 DUP2 LT ISZERO PUSH2 0x3CB3 JUMPI PUSH2 0x3C90 DUP3 DUP5 PUSH2 0x3C44 JUMP JUMPDEST PUSH2 0x3C9A DUP8 DUP3 PUSH2 0x3C2C JUMP JUMPDEST SWAP7 POP PUSH2 0x3CA5 DUP4 PUSH2 0x3C4F JUMP JUMPDEST SWAP3 POP POP PUSH1 0x1 DUP2 ADD SWAP1 POP PUSH2 0x3C7E JUMP JUMPDEST POP POP POP POP POP POP JUMP JUMPDEST PUSH1 0x0 PUSH2 0x140 DUP3 ADD SWAP1 POP PUSH2 0x3CD1 PUSH1 0x0 DUP4 ADD DUP8 PUSH2 0x3BF7 JUMP JUMPDEST PUSH2 0x3CDE PUSH1 0x40 DUP4 ADD DUP7 PUSH2 0x3C5C JUMP JUMPDEST PUSH2 0x3CEB PUSH1 0xC0 DUP4 ADD DUP6 PUSH2 0x3BF7 JUMP JUMPDEST PUSH2 0x3CF9 PUSH2 0x100 DUP4 ADD DUP5 PUSH2 0x3811 JUMP JUMPDEST SWAP6 SWAP5 POP POP POP POP POP JUMP JUMPDEST PUSH1 0x0 DUP3 DUP3 MSTORE PUSH1 0x20 DUP3 ADD SWAP1 POP SWAP3 SWAP2 POP POP JUMP JUMPDEST PUSH1 0x0 DUP1 REVERT JUMPDEST PUSH1 0x0 PUSH2 0x3D24 DUP4 DUP6 PUSH2 0x3D02 JUMP JUMPDEST SWAP4 POP PUSH32 0x7FFFFFFFFFFFFFFFFFFFFFFFFFFFFFFFFFFFFFFFFFFFFFFFFFFFFFFFFFFFFFF DUP4 GT ISZERO PUSH2 0x3D57 JUMPI PUSH2 0x3D56 PUSH2 0x3D13 JUMP JUMPDEST JUMPDEST PUSH1 0x20 DUP4 MUL SWAP3 POP PUSH2 0x3D68 DUP4 DUP6 DUP5 PUSH2 0x3B97 JUMP JUMPDEST DUP3 DUP5 ADD SWAP1 POP SWAP4 SWAP3 POP POP POP JUMP JUMPDEST PUSH1 0x0 PUSH1 0x60 DUP3 ADD SWAP1 POP PUSH2 0x3D89 PUSH1 0x0 DUP4 ADD DUP8 PUSH2 0x3071 JUMP JUMPDEST DUP2 DUP2 SUB PUSH1 0x20 DUP4 ADD MSTORE PUSH2 0x3D9C DUP2 DUP6 DUP8 PUSH2 0x3D18 JUMP JUMPDEST SWAP1 POP PUSH2 0x3DAB PUSH1 0x40 DUP4 ADD DUP5 PUSH2 0x3071 JUMP JUMPDEST SWAP6 SWAP5 POP POP POP POP POP JUMP JUMPDEST PUSH1 0x0 PUSH1 0x60 DUP3 ADD SWAP1 POP PUSH2 0x3DC9 PUSH1 0x0 DUP4 ADD DUP7 PUSH2 0x3071 JUMP JUMPDEST PUSH2 0x3DD6 PUSH1 0x20 DUP4 ADD DUP6 PUSH2 0x3071 JUMP JUMPDEST PUSH2 0x3DE3 PUSH1 0x40 DUP4 ADD DUP5 PUSH2 0x3071 JUMP JUMPDEST SWAP5 SWAP4 POP POP POP POP JUMP JUMPDEST PUSH1 0x0 PUSH1 0x80 DUP3 ADD SWAP1 POP PUSH2 0x3E00 PUSH1 0x0 DUP4 ADD DUP8 PUSH2 0x3071 JUMP JUMPDEST PUSH2 0x3E0D PUSH1 0x20 DUP4 ADD DUP7 PUSH2 0x3071 JUMP JUMPDEST PUSH2 0x3E1A PUSH1 0x40 DUP4 ADD DUP6 PUSH2 0x3071 JUMP JUMPDEST PUSH2 0x3E27 PUSH1 0x60 DUP4 ADD DUP5 PUSH2 0x3071 JUMP JUMPDEST SWAP6 SWAP5 POP POP POP POP POP JUMP JUMPDEST PUSH1 0x0 DUP2 SWAP1 POP SWAP2 SWAP1 POP JUMP JUMPDEST PUSH2 0x3E4B PUSH2 0x3E46 DUP3 PUSH2 0x2F36 JUMP JUMPDEST PUSH2 0x3E30 JUMP JUMPDEST DUP3 MSTORE POP POP JUMP JUMPDEST PUSH1 0x0 PUSH2 0x3E5D DUP3 DUP5 PUSH2 0x3E3A JUMP JUMPDEST PUSH1 0x20 DUP3 ADD SWAP2 POP DUP2 SWAP1 POP SWAP3 SWAP2 POP POP JUMP JUMPDEST PUSH1 0x0 DUP2 PUSH1 0x1 SHR SWAP1 POP SWAP2 SWAP1 POP JUMP JUMPDEST PUSH1 0x0 DUP1 DUP3 SWAP2 POP DUP4 SWAP1 POP JUMPDEST PUSH1 0x1 DUP6 GT ISZERO PUSH2 0x3EC3 JUMPI DUP1 DUP7 DIV DUP2 GT ISZERO PUSH2 0x3E9F JUMPI PUSH2 0x3E9E PUSH2 0x35C6 JUMP JUMPDEST JUMPDEST PUSH1 0x1 DUP6 AND ISZERO PUSH2 0x3EAE JUMPI DUP1 DUP3 MUL SWAP2 POP JUMPDEST DUP1 DUP2 MUL SWAP1 POP PUSH2 0x3EBC DUP6 PUSH2 0x3E6C JUMP JUMPDEST SWAP5 POP PUSH2 0x3E83 JUMP JUMPDEST SWAP5 POP SWAP5 SWAP3 POP POP POP JUMP JUMPDEST PUSH1 0x0 DUP3 PUSH2 0x3EDC JUMPI PUSH1 0x1 SWAP1 POP PUSH2 0x3F98 JUMP JUMPDEST DUP2 PUSH2 0x3EEA JUMPI PUSH1 0x0 SWAP1 POP PUSH2 0x3F98 JUMP JUMPDEST DUP2 PUSH1 0x1 DUP2 EQ PUSH2 0x3F00 JUMPI PUSH1 0x2 DUP2 EQ PUSH2 0x3F0A JUMPI PUSH2 0x3F39 JUMP JUMPDEST PUSH1 0x1 SWAP2 POP POP PUSH2 0x3F98 JUMP JUMPDEST PUSH1 0xFF DUP5 GT ISZERO PUSH2 0x3F1C JUMPI PUSH2 0x3F1B PUSH2 0x35C6 JUMP JUMPDEST JUMPDEST DUP4 PUSH1 0x2 EXP SWAP2 POP DUP5 DUP3 GT ISZERO PUSH2 0x3F33 JUMPI PUSH2 0x3F32 PUSH2 0x35C6 JUMP JUMPDEST JUMPDEST POP PUSH2 0x3F98 JUMP JUMPDEST POP PUSH1 0x20 DUP4 LT PUSH2 0x133 DUP4 LT AND PUSH1 0x4E DUP5 LT PUSH1 0xB DUP5 LT AND OR ISZERO PUSH2 0x3F6E JUMPI DUP3 DUP3 EXP SWAP1 POP DUP4 DUP2 GT ISZERO PUSH2 0x3F69 JUMPI PUSH2 0x3F68 PUSH2 0x35C6 JUMP JUMPDEST JUMPDEST PUSH2 0x3F98 JUMP JUMPDEST PUSH2 0x3F7B DUP5 DUP5 DUP5 PUSH1 0x1 PUSH2 0x3E79 JUMP JUMPDEST SWAP3 POP SWAP1 POP DUP2 DUP5 DIV DUP2 GT ISZERO PUSH2 0x3F92 JUMPI PUSH2 0x3F91 PUSH2 0x35C6 JUMP JUMPDEST JUMPDEST DUP2 DUP2 MUL SWAP1 POP JUMPDEST SWAP4 SWAP3 POP POP POP JUMP JUMPDEST PUSH1 0x0 PUSH2 0x3FAA DUP3 PUSH2 0x2F36 JUMP JUMPDEST SWAP2 POP PUSH2 0x3FB5 DUP4 PUSH2 0x2F36 JUMP JUMPDEST SWAP3 POP PUSH2 0x3FE2 PUSH32 0xFFFFFFFFFFFFFFFFFFFFFFFFFFFFFFFFFFFFFFFFFFFFFFFFFFFFFFFFFFFFFFFF DUP5 DUP5 PUSH2 0x3ECC JUMP JUMPDEST SWAP1 POP SWAP3 SWAP2 POP POP JUMP JUMPDEST PUSH32 0x4E487B7100000000000000000000000000000000000000000000000000000000 PUSH1 0x0 MSTORE PUSH1 0x41 PUSH1 0x4 MSTORE PUSH1 0x24 PUSH1 0x0 REVERT JUMPDEST PUSH1 0x0 PUSH2 0x4024 DUP3 PUSH2 0x2F36 JUMP JUMPDEST SWAP2 POP PUSH2 0x402F DUP4 PUSH2 0x2F36 JUMP JUMPDEST SWAP3 POP DUP3 DUP3 MUL PUSH2 0x403D DUP2 PUSH2 0x2F36 JUMP JUMPDEST SWAP2 POP DUP3 DUP3 DIV DUP5 EQ DUP4 ISZERO OR PUSH2 0x4054 JUMPI PUSH2 0x4053 PUSH2 0x35C6 JUMP JUMPDEST JUMPDEST POP SWAP3 SWAP2 POP POP JUMP JUMPDEST PUSH1 0x0 DUP2 SWAP1 POP SWAP3 SWAP2 POP POP JUMP JUMPDEST PUSH2 0x406F DUP2 PUSH2 0x2F36 JUMP JUMPDEST DUP3 MSTORE POP POP JUMP JUMPDEST PUSH1 0x0 PUSH2 0x4081 DUP4 DUP4 PUSH2 0x4066 JUMP JUMPDEST PUSH1 0x20 DUP4 ADD SWAP1 POP SWAP3 SWAP2 POP POP JUMP JUMPDEST PUSH2 0x4096 DUP2 PUSH2 0x37BD JUMP JUMPDEST PUSH2 0x40A0 DUP2 DUP5 PUSH2 0x405B JUMP JUMPDEST SWAP3 POP PUSH2 0x40AB DUP3 PUSH2 0x37D3 JUMP JUMPDEST DUP1 PUSH1 0x0 JUMPDEST DUP4 DUP2 LT ISZERO PUSH2 0x40DC JUMPI DUP2 MLOAD PUSH2 0x40C3 DUP8 DUP3 PUSH2 0x4075 JUMP JUMPDEST SWAP7 POP PUSH2 0x40CE DUP4 PUSH2 0x3804 JUMP JUMPDEST SWAP3 POP POP PUSH1 0x1 DUP2 ADD SWAP1 POP PUSH2 0x40AF JUMP JUMPDEST POP POP POP POP POP POP JUMP JUMPDEST PUSH1 0x0 PUSH1 0x40 DUP3 ADD SWAP1 POP PUSH2 0x40F9 PUSH1 0x0 DUP4 ADD DUP5 PUSH2 0x408D JUMP JUMPDEST SWAP3 SWAP2 POP POP JUMP JUMPDEST PUSH1 0x0 DUP2 MLOAD SWAP1 POP PUSH2 0x410E DUP2 PUSH2 0x2F40 JUMP JUMPDEST SWAP3 SWAP2 POP POP JUMP JUMPDEST PUSH1 0x0 PUSH1 0x20 DUP3 DUP5 SUB SLT ISZERO PUSH2 0x412A JUMPI PUSH2 0x4129 PUSH2 0x2F2C JUMP JUMPDEST JUMPDEST PUSH1 0x0 PUSH2 0x4138 DUP5 DUP3 DUP6 ADD PUSH2 0x40FF JUMP JUMPDEST SWAP2 POP POP SWAP3 SWAP2 POP POP JUMP INVALID LOG2 PUSH5 0x6970667358 0x22 SLT KECCAK256 CALLCODE AND PUSH8 0xA476E6969B79C6E 0x4E PUSH11 0xDD0EB613F2EB6F373E4A2F 0xD3 0xDF 0x2C 0x4D SLT CODECOPY CALLER 0xD7 PUSH5 0x736F6C6343 STOP ADDMOD NOT STOP CALLER "
		},
		"gasEstimates": {
			"creation": {
				"codeDepositCost": "3351800",
				"executionCost": "infinite",
				"totalCost": "infinite"
			},
			"external": {
				"acceptGroupAdmin(uint256)": "55540",
				"addCommitmentToGroup((uint256,uint256,uint256,uint256,uint256,uint256[8]),uint256)": "infinite",
				"addDeposit((uint256[2],uint256[2][2],uint256[2],uint256,uint256))": "infinite",
				"addMember(uint256,uint256)": "infinite",
				"addMembers(uint256,uint256[])": "infinite",
				"commitmentAmounts(uint256)": "infinite",
				"commitmentVerifier()": "infinite",
				"createGroup()": "infinite",
				"createGroup(address)": "infinite",
				"createGroup(address,uint256)": "infinite",
				"getGroupAdmin(uint256)": "2976",
				"getMerkleTreeDepth(uint256)": "infinite",
				"getMerkleTreeRoot(uint256)": "infinite",
				"getMerkleTreeSize(uint256)": "infinite",
				"groupCounter()": "2540",
				"groups(uint256)": "infinite",
				"hasMember(uint256,uint256)": "infinite",
				"indexOf(uint256,uint256)": "infinite",
				"removeMember(uint256,uint256,uint256[])": "infinite",
				"updateGroupAdmin(uint256,address)": "29249",
				"updateGroupMerkleTreeDuration(uint256,uint256)": "infinite",
				"updateMember(uint256,uint256,uint256,uint256[])": "infinite",
				"validateProof(uint256,(uint256,uint256,uint256,uint256,uint256,uint256[8]))": "infinite",
				"verifier()": "infinite",
				"verifyCommitmentProof(uint256[2],uint256[2][2],uint256[2],uint256,uint256)": "infinite",
				"verifyProof(uint256,(uint256,uint256,uint256,uint256,uint256,uint256[8]))": "infinite",
				"viewFunds(uint256)": "infinite",
				"withdraw(uint256)": "infinite",
				"withdrawFromBox(uint256,uint256)": "infinite"
			},
			"internal": {
				"_hash(uint256)": "infinite"
			}
		},
		"methodIdentifiers": {
			"acceptGroupAdmin(uint256)": "da3cda52",
			"addCommitmentToGroup((uint256,uint256,uint256,uint256,uint256,uint256[8]),uint256)": "c8bce995",
			"addDeposit((uint256[2],uint256[2][2],uint256[2],uint256,uint256))": "6c69a468",
			"addMember(uint256,uint256)": "1783efc3",
			"addMembers(uint256,uint256[])": "04245371",
			"commitmentAmounts(uint256)": "40d66168",
			"commitmentVerifier()": "c6e89258",
			"createGroup()": "575185ed",
			"createGroup(address)": "5c3f3b60",
			"createGroup(address,uint256)": "2c880363",
			"getGroupAdmin(uint256)": "a9961c94",
			"getMerkleTreeDepth(uint256)": "6389e107",
			"getMerkleTreeRoot(uint256)": "dabc4d51",
			"getMerkleTreeSize(uint256)": "7ee35a0c",
			"groupCounter()": "d24924fe",
			"groups(uint256)": "96324bd4",
			"hasMember(uint256,uint256)": "90509d44",
			"indexOf(uint256,uint256)": "06dd8485",
			"removeMember(uint256,uint256,uint256[])": "6cdd32fe",
			"updateGroupAdmin(uint256,address)": "568ee826",
			"updateGroupMerkleTreeDuration(uint256,uint256)": "fcf0b6ec",
			"updateMember(uint256,uint256,uint256,uint256[])": "4178c4d5",
			"validateProof(uint256,(uint256,uint256,uint256,uint256,uint256,uint256[8]))": "d0d898dd",
			"verifier()": "2b7ac3f3",
			"verifyCommitmentProof(uint256[2],uint256[2][2],uint256[2],uint256,uint256)": "e007fe52",
			"verifyProof(uint256,(uint256,uint256,uint256,uint256,uint256,uint256[8]))": "456f4188",
			"viewFunds(uint256)": "4f842c3a",
			"withdraw(uint256)": "2e1a7d4d",
			"withdrawFromBox(uint256,uint256)": "3f9a4ba3"
		}
	},
	"abi": [
		{
			"inputs": [
				{
					"internalType": "contract ISemaphoreVerifier",
					"name": "_verifier",
					"type": "address"
				},
				{
					"internalType": "contract ICommitmentVerifier",
					"name": "_commitmentVerifier",
					"type": "address"
				}
			],
			"stateMutability": "nonpayable",
			"type": "constructor"
		},
		{
			"inputs": [],
			"name": "LeafAlreadyExists",
			"type": "error"
		},
		{
			"inputs": [],
			"name": "LeafCannotBeZero",
			"type": "error"
		},
		{
			"inputs": [],
			"name": "LeafDoesNotExist",
			"type": "error"
		},
		{
			"inputs": [],
			"name": "LeafGreaterThanSnarkScalarField",
			"type": "error"
		},
		{
			"inputs": [],
			"name": "Semaphore__CallerIsNotTheGroupAdmin",
			"type": "error"
		},
		{
			"inputs": [],
			"name": "Semaphore__CallerIsNotThePendingGroupAdmin",
			"type": "error"
		},
		{
			"inputs": [],
			"name": "Semaphore__GroupDoesNotExist",
			"type": "error"
		},
		{
			"inputs": [],
			"name": "Semaphore__GroupHasNoMembers",
			"type": "error"
		},
		{
			"inputs": [],
			"name": "Semaphore__InvalidProof",
			"type": "error"
		},
		{
			"inputs": [],
			"name": "Semaphore__MerkleTreeDepthIsNotSupported",
			"type": "error"
		},
		{
			"inputs": [],
			"name": "Semaphore__MerkleTreeRootIsExpired",
			"type": "error"
		},
		{
			"inputs": [],
			"name": "Semaphore__MerkleTreeRootIsNotPartOfTheGroup",
			"type": "error"
		},
		{
			"inputs": [],
			"name": "Semaphore__YouAreUsingTheSameNullifierTwice",
			"type": "error"
		},
		{
			"inputs": [],
			"name": "Semaphore__YouDidntSendEnoughFunds",
			"type": "error"
		},
		{
			"inputs": [],
			"name": "WrongSiblingNodes",
			"type": "error"
		},
		{
			"anonymous": false,
			"inputs": [
				{
					"indexed": true,
					"internalType": "uint256",
					"name": "groupId",
					"type": "uint256"
				},
				{
					"indexed": true,
					"internalType": "address",
					"name": "oldAdmin",
					"type": "address"
				},
				{
					"indexed": true,
					"internalType": "address",
					"name": "newAdmin",
					"type": "address"
				}
			],
			"name": "GroupAdminPending",
			"type": "event"
		},
		{
			"anonymous": false,
			"inputs": [
				{
					"indexed": true,
					"internalType": "uint256",
					"name": "groupId",
					"type": "uint256"
				},
				{
					"indexed": true,
					"internalType": "address",
					"name": "oldAdmin",
					"type": "address"
				},
				{
					"indexed": true,
					"internalType": "address",
					"name": "newAdmin",
					"type": "address"
				}
			],
			"name": "GroupAdminUpdated",
			"type": "event"
		},
		{
			"anonymous": false,
			"inputs": [
				{
					"indexed": true,
					"internalType": "uint256",
					"name": "groupId",
					"type": "uint256"
				}
			],
			"name": "GroupCreated",
			"type": "event"
		},
		{
			"anonymous": false,
			"inputs": [
				{
					"indexed": true,
					"internalType": "uint256",
					"name": "groupId",
					"type": "uint256"
				},
				{
					"indexed": false,
					"internalType": "uint256",
					"name": "oldMerkleTreeDuration",
					"type": "uint256"
				},
				{
					"indexed": false,
					"internalType": "uint256",
					"name": "newMerkleTreeDuration",
					"type": "uint256"
				}
			],
			"name": "GroupMerkleTreeDurationUpdated",
			"type": "event"
		},
		{
			"anonymous": false,
			"inputs": [
				{
					"indexed": true,
					"internalType": "uint256",
					"name": "groupId",
					"type": "uint256"
				},
				{
					"indexed": false,
					"internalType": "uint256",
					"name": "index",
					"type": "uint256"
				},
				{
					"indexed": false,
					"internalType": "uint256",
					"name": "identityCommitment",
					"type": "uint256"
				},
				{
					"indexed": false,
					"internalType": "uint256",
					"name": "merkleTreeRoot",
					"type": "uint256"
				}
			],
			"name": "MemberAdded",
			"type": "event"
		},
		{
			"anonymous": false,
			"inputs": [
				{
					"indexed": true,
					"internalType": "uint256",
					"name": "groupId",
					"type": "uint256"
				},
				{
					"indexed": false,
					"internalType": "uint256",
					"name": "index",
					"type": "uint256"
				},
				{
					"indexed": false,
					"internalType": "uint256",
					"name": "identityCommitment",
					"type": "uint256"
				},
				{
					"indexed": false,
					"internalType": "uint256",
					"name": "merkleTreeRoot",
					"type": "uint256"
				}
			],
			"name": "MemberRemoved",
			"type": "event"
		},
		{
			"anonymous": false,
			"inputs": [
				{
					"indexed": true,
					"internalType": "uint256",
					"name": "groupId",
					"type": "uint256"
				},
				{
					"indexed": false,
					"internalType": "uint256",
					"name": "index",
					"type": "uint256"
				},
				{
					"indexed": false,
					"internalType": "uint256",
					"name": "identityCommitment",
					"type": "uint256"
				},
				{
					"indexed": false,
					"internalType": "uint256",
					"name": "newIdentityCommitment",
					"type": "uint256"
				},
				{
					"indexed": false,
					"internalType": "uint256",
					"name": "merkleTreeRoot",
					"type": "uint256"
				}
			],
			"name": "MemberUpdated",
			"type": "event"
		},
		{
			"anonymous": false,
			"inputs": [
				{
					"indexed": true,
					"internalType": "uint256",
					"name": "groupId",
					"type": "uint256"
				},
				{
					"indexed": false,
					"internalType": "uint256",
					"name": "startIndex",
					"type": "uint256"
				},
				{
					"indexed": false,
					"internalType": "uint256[]",
					"name": "identityCommitments",
					"type": "uint256[]"
				},
				{
					"indexed": false,
					"internalType": "uint256",
					"name": "merkleTreeRoot",
					"type": "uint256"
				}
			],
			"name": "MembersAdded",
			"type": "event"
		},
		{
			"anonymous": false,
			"inputs": [
				{
					"indexed": true,
					"internalType": "uint256",
					"name": "groupId",
					"type": "uint256"
				},
				{
					"indexed": false,
					"internalType": "uint256",
					"name": "merkleTreeDepth",
					"type": "uint256"
				},
				{
					"indexed": true,
					"internalType": "uint256",
					"name": "merkleTreeRoot",
					"type": "uint256"
				},
				{
					"indexed": false,
					"internalType": "uint256",
					"name": "nullifier",
					"type": "uint256"
				},
				{
					"indexed": false,
					"internalType": "uint256",
					"name": "message",
					"type": "uint256"
				},
				{
					"indexed": true,
					"internalType": "uint256",
					"name": "scope",
					"type": "uint256"
				},
				{
					"indexed": false,
					"internalType": "uint256[8]",
					"name": "points",
					"type": "uint256[8]"
				}
			],
			"name": "ProofValidated",
			"type": "event"
		},
		{
			"inputs": [
				{
					"internalType": "uint256",
					"name": "groupId",
					"type": "uint256"
				}
			],
			"name": "acceptGroupAdmin",
			"outputs": [],
			"stateMutability": "nonpayable",
			"type": "function"
		},
		{
			"inputs": [
				{
					"components": [
						{
							"internalType": "uint256",
							"name": "merkleTreeDepth",
							"type": "uint256"
						},
						{
							"internalType": "uint256",
							"name": "merkleTreeRoot",
							"type": "uint256"
						},
						{
							"internalType": "uint256",
							"name": "nullifier",
							"type": "uint256"
						},
						{
							"internalType": "uint256",
							"name": "amount",
							"type": "uint256"
						},
						{
							"internalType": "uint256",
							"name": "scope",
							"type": "uint256"
						},
						{
							"internalType": "uint256[8]",
							"name": "points",
							"type": "uint256[8]"
						}
					],
					"internalType": "struct ISemaphore.SemaphoreProof",
					"name": "proof",
					"type": "tuple"
				},
				{
					"internalType": "uint256",
					"name": "groupId",
					"type": "uint256"
				}
			],
			"name": "addCommitmentToGroup",
			"outputs": [],
			"stateMutability": "nonpayable",
			"type": "function"
		},
		{
			"inputs": [
				{
					"components": [
						{
							"internalType": "uint256[2]",
							"name": "p_a",
							"type": "uint256[2]"
						},
						{
							"internalType": "uint256[2][2]",
							"name": "p_b",
							"type": "uint256[2][2]"
						},
						{
							"internalType": "uint256[2]",
							"name": "p_c",
							"type": "uint256[2]"
						},
						{
							"internalType": "uint256",
							"name": "commitment",
							"type": "uint256"
						},
						{
							"internalType": "uint256",
							"name": "amount",
							"type": "uint256"
						}
					],
					"internalType": "struct ISemaphore.CommitmentProof",
					"name": "commitmentProof",
					"type": "tuple"
				}
			],
			"name": "addDeposit",
			"outputs": [],
			"stateMutability": "payable",
			"type": "function"
		},
		{
			"inputs": [
				{
					"internalType": "uint256",
					"name": "groupId",
					"type": "uint256"
				},
				{
					"internalType": "uint256",
					"name": "identityCommitment",
					"type": "uint256"
				}
			],
			"name": "addMember",
			"outputs": [],
			"stateMutability": "nonpayable",
			"type": "function"
		},
		{
			"inputs": [
				{
					"internalType": "uint256",
					"name": "groupId",
					"type": "uint256"
				},
				{
					"internalType": "uint256[]",
					"name": "identityCommitments",
					"type": "uint256[]"
				}
			],
			"name": "addMembers",
			"outputs": [],
			"stateMutability": "nonpayable",
			"type": "function"
		},
		{
			"inputs": [
				{
					"internalType": "uint256",
					"name": "",
					"type": "uint256"
				}
			],
			"name": "commitmentAmounts",
			"outputs": [
				{
					"internalType": "uint256",
					"name": "",
					"type": "uint256"
				}
			],
			"stateMutability": "view",
			"type": "function"
		},
		{
			"inputs": [],
			"name": "commitmentVerifier",
			"outputs": [
				{
					"internalType": "contract ICommitmentVerifier",
					"name": "",
					"type": "address"
				}
			],
			"stateMutability": "view",
			"type": "function"
		},
		{
			"inputs": [
				{
					"internalType": "address",
					"name": "admin",
					"type": "address"
				},
				{
					"internalType": "uint256",
					"name": "merkleTreeDuration",
					"type": "uint256"
				}
			],
			"name": "createGroup",
			"outputs": [
				{
					"internalType": "uint256",
					"name": "groupId",
					"type": "uint256"
				}
			],
			"stateMutability": "nonpayable",
			"type": "function"
		},
		{
			"inputs": [],
			"name": "createGroup",
			"outputs": [
				{
					"internalType": "uint256",
					"name": "groupId",
					"type": "uint256"
				}
			],
			"stateMutability": "nonpayable",
			"type": "function"
		},
		{
			"inputs": [
				{
					"internalType": "address",
					"name": "admin",
					"type": "address"
				}
			],
			"name": "createGroup",
			"outputs": [
				{
					"internalType": "uint256",
					"name": "groupId",
					"type": "uint256"
				}
			],
			"stateMutability": "nonpayable",
			"type": "function"
		},
		{
			"inputs": [
				{
					"internalType": "uint256",
					"name": "groupId",
					"type": "uint256"
				}
			],
			"name": "getGroupAdmin",
			"outputs": [
				{
					"internalType": "address",
					"name": "",
					"type": "address"
				}
			],
			"stateMutability": "view",
			"type": "function"
		},
		{
			"inputs": [
				{
					"internalType": "uint256",
					"name": "groupId",
					"type": "uint256"
				}
			],
			"name": "getMerkleTreeDepth",
			"outputs": [
				{
					"internalType": "uint256",
					"name": "",
					"type": "uint256"
				}
			],
			"stateMutability": "view",
			"type": "function"
		},
		{
			"inputs": [
				{
					"internalType": "uint256",
					"name": "groupId",
					"type": "uint256"
				}
			],
			"name": "getMerkleTreeRoot",
			"outputs": [
				{
					"internalType": "uint256",
					"name": "",
					"type": "uint256"
				}
			],
			"stateMutability": "view",
			"type": "function"
		},
		{
			"inputs": [
				{
					"internalType": "uint256",
					"name": "groupId",
					"type": "uint256"
				}
			],
			"name": "getMerkleTreeSize",
			"outputs": [
				{
					"internalType": "uint256",
					"name": "",
					"type": "uint256"
				}
			],
			"stateMutability": "view",
			"type": "function"
		},
		{
			"inputs": [],
			"name": "groupCounter",
			"outputs": [
				{
					"internalType": "uint256",
					"name": "",
					"type": "uint256"
				}
			],
			"stateMutability": "view",
			"type": "function"
		},
		{
			"inputs": [
				{
					"internalType": "uint256",
					"name": "",
					"type": "uint256"
				}
			],
			"name": "groups",
			"outputs": [
				{
					"internalType": "uint256",
					"name": "merkleTreeDuration",
					"type": "uint256"
				},
				{
					"internalType": "uint256",
					"name": "boxFund",
					"type": "uint256"
				}
			],
			"stateMutability": "view",
			"type": "function"
		},
		{
			"inputs": [
				{
					"internalType": "uint256",
					"name": "groupId",
					"type": "uint256"
				},
				{
					"internalType": "uint256",
					"name": "identityCommitment",
					"type": "uint256"
				}
			],
			"name": "hasMember",
			"outputs": [
				{
					"internalType": "bool",
					"name": "",
					"type": "bool"
				}
			],
			"stateMutability": "view",
			"type": "function"
		},
		{
			"inputs": [
				{
					"internalType": "uint256",
					"name": "groupId",
					"type": "uint256"
				},
				{
					"internalType": "uint256",
					"name": "identityCommitment",
					"type": "uint256"
				}
			],
			"name": "indexOf",
			"outputs": [
				{
					"internalType": "uint256",
					"name": "",
					"type": "uint256"
				}
			],
			"stateMutability": "view",
			"type": "function"
		},
		{
			"inputs": [
				{
					"internalType": "uint256",
					"name": "groupId",
					"type": "uint256"
				},
				{
					"internalType": "uint256",
					"name": "identityCommitment",
					"type": "uint256"
				},
				{
					"internalType": "uint256[]",
					"name": "merkleProofSiblings",
					"type": "uint256[]"
				}
			],
			"name": "removeMember",
			"outputs": [],
			"stateMutability": "nonpayable",
			"type": "function"
		},
		{
			"inputs": [
				{
					"internalType": "uint256",
					"name": "groupId",
					"type": "uint256"
				},
				{
					"internalType": "address",
					"name": "newAdmin",
					"type": "address"
				}
			],
			"name": "updateGroupAdmin",
			"outputs": [],
			"stateMutability": "nonpayable",
			"type": "function"
		},
		{
			"inputs": [
				{
					"internalType": "uint256",
					"name": "groupId",
					"type": "uint256"
				},
				{
					"internalType": "uint256",
					"name": "newMerkleTreeDuration",
					"type": "uint256"
				}
			],
			"name": "updateGroupMerkleTreeDuration",
			"outputs": [],
			"stateMutability": "nonpayable",
			"type": "function"
		},
		{
			"inputs": [
				{
					"internalType": "uint256",
					"name": "groupId",
					"type": "uint256"
				},
				{
					"internalType": "uint256",
					"name": "identityCommitment",
					"type": "uint256"
				},
				{
					"internalType": "uint256",
					"name": "newIdentityCommitment",
					"type": "uint256"
				},
				{
					"internalType": "uint256[]",
					"name": "merkleProofSiblings",
					"type": "uint256[]"
				}
			],
			"name": "updateMember",
			"outputs": [],
			"stateMutability": "nonpayable",
			"type": "function"
		},
		{
			"inputs": [
				{
					"internalType": "uint256",
					"name": "groupId",
					"type": "uint256"
				},
				{
					"components": [
						{
							"internalType": "uint256",
							"name": "merkleTreeDepth",
							"type": "uint256"
						},
						{
							"internalType": "uint256",
							"name": "merkleTreeRoot",
							"type": "uint256"
						},
						{
							"internalType": "uint256",
							"name": "nullifier",
							"type": "uint256"
						},
						{
							"internalType": "uint256",
							"name": "amount",
							"type": "uint256"
						},
						{
							"internalType": "uint256",
							"name": "scope",
							"type": "uint256"
						},
						{
							"internalType": "uint256[8]",
							"name": "points",
							"type": "uint256[8]"
						}
					],
					"internalType": "struct ISemaphore.SemaphoreProof",
					"name": "proof",
					"type": "tuple"
				}
			],
			"name": "validateProof",
			"outputs": [],
			"stateMutability": "payable",
			"type": "function"
		},
		{
			"inputs": [],
			"name": "verifier",
			"outputs": [
				{
					"internalType": "contract ISemaphoreVerifier",
					"name": "",
					"type": "address"
				}
			],
			"stateMutability": "view",
			"type": "function"
		},
		{
			"inputs": [
				{
					"internalType": "uint256[2]",
					"name": "p_a",
					"type": "uint256[2]"
				},
				{
					"internalType": "uint256[2][2]",
					"name": "p_b",
					"type": "uint256[2][2]"
				},
				{
					"internalType": "uint256[2]",
					"name": "p_c",
					"type": "uint256[2]"
				},
				{
					"internalType": "uint256",
					"name": "commitment",
					"type": "uint256"
				},
				{
					"internalType": "uint256",
					"name": "amount",
					"type": "uint256"
				}
			],
			"name": "verifyCommitmentProof",
			"outputs": [
				{
					"internalType": "bool",
					"name": "",
					"type": "bool"
				}
			],
			"stateMutability": "view",
			"type": "function"
		},
		{
			"inputs": [
				{
					"internalType": "uint256",
					"name": "groupId",
					"type": "uint256"
				},
				{
					"components": [
						{
							"internalType": "uint256",
							"name": "merkleTreeDepth",
							"type": "uint256"
						},
						{
							"internalType": "uint256",
							"name": "merkleTreeRoot",
							"type": "uint256"
						},
						{
							"internalType": "uint256",
							"name": "nullifier",
							"type": "uint256"
						},
						{
							"internalType": "uint256",
							"name": "amount",
							"type": "uint256"
						},
						{
							"internalType": "uint256",
							"name": "scope",
							"type": "uint256"
						},
						{
							"internalType": "uint256[8]",
							"name": "points",
							"type": "uint256[8]"
						}
					],
					"internalType": "struct ISemaphore.SemaphoreProof",
					"name": "proof",
					"type": "tuple"
				}
			],
			"name": "verifyProof",
			"outputs": [
				{
					"internalType": "bool",
					"name": "",
					"type": "bool"
				}
			],
			"stateMutability": "view",
			"type": "function"
		},
		{
			"inputs": [
				{
					"internalType": "uint256",
					"name": "groupId",
					"type": "uint256"
				}
			],
			"name": "viewFunds",
			"outputs": [
				{
					"internalType": "uint256",
					"name": "",
					"type": "uint256"
				}
			],
			"stateMutability": "view",
			"type": "function"
		},
		{
			"inputs": [
				{
					"internalType": "uint256",
					"name": "groupId",
					"type": "uint256"
				}
			],
			"name": "withdraw",
			"outputs": [],
			"stateMutability": "nonpayable",
			"type": "function"
		},
		{
			"inputs": [
				{
					"internalType": "uint256",
					"name": "groupId",
					"type": "uint256"
				},
				{
					"internalType": "uint256",
					"name": "amount",
					"type": "uint256"
				}
			],
			"name": "withdrawFromBox",
			"outputs": [
				{
					"internalType": "uint256",
					"name": "",
					"type": "uint256"
				}
			],
			"stateMutability": "nonpayable",
			"type": "function"
		}
	]
}